:1000000002C100002CC100002AC1000028C100006C
:1000100026C1000024C1000022C1000020C1000050
:100020001EC100001CC100001AC1000018C1000060
:1000300016C1000014C1000012C1000010C1000070
:100040000EC100000CC100000AC1000008C1000080
:1000500006C1000004C1000002C1000039C1000057
:10006000FEC0000052C30000A0C40000F8C00000A1
:10007000F6C00000F4C00000F2C00000F0C00000B4
:10008000EEC00000ECC00000EAC00000E8C00000C4
:100090007CC30000C9C40000E2C00000E0C0000052
:1000A000DEC00000DCC00000DAC00000D8C00000E4
:1000B000D6C00000D4C00000D2C00000D0C00000F4
:1000C000CEC00000CCC00000CAC000009EC300002B
:1000D000EAC40000C4C00000D8C3000023C500006B
:1000E000BEC0000000002100240027002A002D00CF
:1000F0003000330001010000040107010A01000083
:100100002200250028002B002E00310034000201BF
:100110000000050108010B0100002000230026005B
:1001200029002C002F00320000010000030106010D
:10013000090105050505070508080808020202026D
:100140000A0A080804040404010101010101010173
:100150000303030303030303040707070C0C0C0C3E
:100160000C0C0C0C02020202060606060606060627
:100170000B0B0B0B0B0B0B0B0102102020080810B4
:100180002040102040800201020108040201010207
:1001900004081020408080402010080402018004E0
:1001A000020180402010080402010804020101023B
:1001B0000408102040800102040810204080000044
:1001C000090A02080B0C0D070603040100000000D9
:1001D000000000000000000000000000000000001F
:1001E0000000000000000000000011100F000000DF
:1001F00000000000000000000000000000000000FF
:1002000000000000020711241FBECFEFD1E2DEBFC5
:10021000CDBF00E00CBF12E0A0E0B2E0E2EBF3E102
:1002200000E00BBF02C007900D92AE31B107D9F7C5
:100230001BBE14E0AEE1B2E001C01D92A13DB107CA
:10024000E1F712E0C6E0D2E004C02297FE010E946E
:10025000D309C430D107C9F70CD70C94D709D0CE35
:1002600086E339D190931F0280931E0289E494E0C3
:1002700060E072E00E94670960911E0270911F02A7
:1002800089E494E04AE050E00E944A0980911E020D
:1002900090911F02845F91401CF482E061E002C0F3
:1002A00082E060E0FFD165E070E080E090E058C05F
:1002B00089E494E040E855E260E070E072D486E3BF
:1002C00060E03DD18DE061E03AD182E061E037C18C
:1002D0001F920F920FB60F9211242F933F938F937B
:1002E0009F93AF93BF938091240290912502A09198
:1002F0002602B0912702309128020196A11DB11D5E
:10030000232F2D5F2D3720F02D570196A11DB11DF4
:10031000209328028093240290932502A093260222
:10032000B09327028091200290912102A091220295
:10033000B09123020196A11DB11D809320029093DC
:100340002102A0932202B0932302BF91AF919F910B
:100350008F913F912F910F900FBE0F901F90189586
:100360009B01AC017FB7F89480912002909121020B
:10037000A0912202B091230266B5A89B05C06F3FF1
:1003800019F00196A11DB11D7FBFBA2FA92F982F7B
:100390008827860F911DA11DB11D62E0880F991F4E
:1003A000AA1FBB1F6A95D1F7BC012DC0FFB7F894F7
:1003B0008091200290912102A0912202B09123020B
:1003C000E6B5A89B05C0EF3F19F00196A11DB11D30
:1003D000FFBFBA2FA92F982F88278E0F911DA11D1F
:1003E000B11DE2E0880F991FAA1FBB1FEA95D1F744
:1003F000861B970B885E9340C8F2215030404040E6
:10040000504068517C4F211531054105510571F669
:100410000895789484B5826084BD84B5816084BD7C
:1004200085B5826085BD85B5816085BDEEE6F0E06D
:10043000808181608083E1E8F0E0108280818260C9
:100440008083808181608083E0E8F0E0808181604A
:100450008083E1EBF0E0808184608083E0EBF0E07A
:10046000808181608083E1E9F0E080818260808327
:10047000808181608083E0E9F0E080818160808319
:10048000E1EAF0E080818260808380818160808306
:10049000E0EAF0E0808181608083E1E2F1E0808148
:1004A00082608083808181608083E0E2F1E08081EE
:1004B00081608083EAE7F0E08081846080838081CE
:1004C0008260808380818160808380818068808376
:1004D0001092C1000895382F863308F036532091CA
:1004E0007B00832F86958695869590E0817090702D
:1004F00043E0880F991F4A95E1F7277F282B209327
:100500007B00377080910D028295880F880F807C68
:10051000832B80937C0080917A00806480937A00A2
:1005200080917A0086FDFCCF20917800409179007F
:10053000942F80E030E0282B392BC9010895CF9308
:10054000DF93482F50E0CA0188589E4FFC01349138
:100550004E5C5E4FFA018491882369F190E0880F28
:10056000991FFC01EC51FF4FA591B491FC01E250A1
:10057000FF4FC591D491662351F42FB7F8948C9115
:10058000932F909589238C93888189230BC06230A7
:1005900061F42FB7F8948C91932F909589238C93C5
:1005A0008881832B88832FBF06C09FB7F8948C91D6
:1005B000832B8C939FBFDF91CF910895893009F4ED
:1005C00049C08A30A0F4843051F1853040F4823043
:1005D00079F1833000F5813009F063C026C087309F
:1005E00079F1883098F5863009F05BC025C08D30F0
:1005F00009F442C08E3028F48B30B1F18C30C0F554
:100600002DC0803109F442C0813109F445C08F30DA
:1006100009F047C037C0809180008F7703C0809178
:1006200080008F7D80938000089584B58F7702C00D
:1006300084B58F7D84BD08958091B0008F7703C00D
:100640008091B0008F7D8093B000089580919000DC
:100650008F7707C0809190008F7D03C080919000BC
:10066000877F8093900008958091A0008F7707C0C6
:100670008091A0008F7D03C08091A000877F809330
:10068000A0000895809120018F7703C08091200100
:100690008F7D80932001089580912001877F809332
:1006A00020010895FF920F931F93F62E482F50E0DC
:1006B000CA0182549E4FFC012491CA0188589E4F62
:1006C000FC0114914E5C5E4FFA0104910023C1F0CD
:1006D000222311F0822F72DFE02FF0E0EE0FFF1FD8
:1006E000E250FF4FA591B4919FB7F894FF2021F4F9
:1006F0008C911095812302C08C91812B8C939FBF8C
:100700001F910F91FF90089508951F920F920FB6B9
:100710000F920BB60F9211242F933F934F938F9309
:100720009F93EF93FF938091C00082FD1DC0409185
:10073000C6002091690230916A022F5F3F4F2F73EC
:10074000307080916B0290916C022817390771F01C
:10075000E0916902F0916A02E75DFD4F40833093BA
:100760006A022093690202C08091C600FF91EF9156
:100770009F918F914F913F912F910F900BBE0F90B2
:100780000FBE0F901F90189508951F920F920FB6ED
:100790000F920BB60F9211242F933F934F938F9389
:1007A0009F93EF93FF938091C80082FD1DC04091FD
:1007B000CE002091F1023091F2022F5F3F4F2F7354
:1007C00030708091F3029091F4022817390771F08C
:1007D000E091F102F091F202EF54FD4F408330932B
:1007E000F2022093F10202C08091CE00FF91EF91BE
:1007F0009F918F914F913F912F910F900BBE0F9032
:100800000FBE0F901F90189508951F920F920FB66C
:100810000F920BB60F9211242F933F934F938F9308
:100820009F93EF93FF938091D00082FD1DC0409174
:10083000D6002091790330917A032F5F3F4F2F73B9
:10084000307080917B0390917C032817390771F0F9
:10085000E0917903F0917A03E75CFC4F4083309399
:100860007A032093790302C08091D600FF91EF9123
:100870009F918F914F913F912F910F900BBE0F90B1
:100880000FBE0F901F90189508951F920F920FB6EC
:100890000F920BB60F9211242F933F934F938F9388
:1008A0009F93EF93FF938091300182FD1DC0409193
:1008B000360120910104309102042F5F3F4F2F73C6
:1008C000307080910304909104042817390771F067
:1008D000E0910104F0910204EF53FC4F4083309308
:1008E00002042093010402C080913601FF91EF9130
:1008F0009F918F914F913F912F910F900BBE0F9031
:100900000FBE0F901F901895E0915504F09156047A
:10091000E05CFF4F8191919120813181805C9F4FFC
:10092000821B930B60E470E0F3D4892B09F0ECDEBA
:10093000E0917704F0917804E05CFF4F8191919110
:1009400020813181805C9F4F821B930B60E470E0BB
:10095000DFD4892B09F018DFE0919904F0919A0413
:10096000E05CFF4F8191919120813181805C9F4FAC
:10097000821B930B60E470E0CBD4892B09F044DF39
:10098000E091BB04F091BC04E05CFF4F8191919138
:1009900020813181805C9F4F821B930B60E470E06B
:1009A000B7D4892B09F070CF08951F920F920FB61C
:1009B0000F920BB60F9211242F933F938F939F9317
:1009C000EF93FF932091AD023091AE028091AF0280
:1009D0009091B0022817390731F48091C1008F7DC2
:1009E0008093C10014C0E091AF02F091B002E359CE
:1009F000FD4F20818091AF029091B00201968F73DC
:100A000090709093B0028093AF022093C600FF9144
:100A1000EF919F918F913F912F910F900BBE0F906F
:100A20000FBE0F901F9018951F920F920FB60F9246
:100A30000BB60F9211242F933F938F939F93EF93B5
:100A4000FF932091350330913603809137039091C5
:100A500038032817390731F48091C9008F7D8093BE
:100A6000C90014C0E0913703F0913803EB50FD4FFB
:100A70002081809137039091380301968F73907095
:100A800090933803809337032093CE00FF91EF912A
:100A90009F918F913F912F910F900BBE0F900FBEA2
:100AA0000F901F9018951F920F920FB60F920BB6D2
:100AB0000F9211242F933F938F939F93EF93FF9364
:100AC0002091BD033091BE038091BF039091C0037C
:100AD0002817390731F48091D1008F7D8093D100A0
:100AE00014C0E091BF03F091C003E358FC4F208194
:100AF0008091BF039091C00301968F739070909383
:100B0000C0038093BF032093D600FF91EF919F9184
:100B10008F913F912F910F900BBE0F900FBE0F90B2
:100B20001F9018951F920F920FB60F920BB60F924F
:100B300011242F933F938F939F93EF93FF932091D3
:100B40004504309146048091470490914804281749
:100B5000390731F4809131018F7D8093310114C0C8
:100B6000E0914704F0914804EB5FFB4F20818091B6
:100B700047049091480401968F73907090934804B5
:100B80008093470420933601FF91EF919F918F91BD
:100B90003F912F910F900BBE0F900FBE0F901F90A3
:100BA0001895AF92BF92DF92EF92FF920F931F932F
:100BB000CF93DF93EC017A018B01DD24403081EE8D
:100BC000580780E0680780E0780711F0DD24D394AF
:100BD00091E0A92EB12CEC89FD89DD2069F0C501D9
:100BE00008A002C0880F991F0A94E2F7808360E092
:100BF00079E08DE390E005C0108260E874E88EE152
:100C000090E0A801970197D32150304040405040D8
:100C1000569547953795279580E12030380720F085
:100C2000DD2011F0DD24D7CFE889F9893083EA8906
:100C3000FB89208319A2EE89FF89408121E030E001
:100C4000C9010C8C02C0880F991F0A94E2F7482B47
:100C50004083EE89FF894081C9010D8C02C0880F55
:100C6000991F0A94E2F7482B4083EE89FF8940815F
:100C7000C9010E8C02C0880F991F0A94E2F7482B15
:100C80004083EE89FF8980810F8C02C0220F331FC1
:100C90000A94E2F7209528232083DF91CF911F91BA
:100CA0000F91FF90EF90DF90BF90AF900895DC011F
:100CB0001C96ED91FC911D97E05CFF4F8191919105
:100CC00020813181805C9F4F821B930B60E470E038
:100CD0001FC3DC011C96ED91FC911D97E05CFF4F5A
:100CE00020813181E054F040DF01AE5BBF4F8D9138
:100CF0009C9111972817390719F42FEF3FEF07C080
:100D00008D919C91E80FF91F8081282F30E0C90157
:100D10000895DC011C96ED91FC911D97E05CFF4F5E
:100D200020813181E054F040DF01AE5BBF4F8D91F7
:100D30009C9111972817390719F42FEF3FEF10C036
:100D40008D919C911197E80FF91F20818D919C91B5
:100D5000119701968F73907011969C938E9330E04B
:100D6000C9010895DC0191968C919197882339F0FF
:100D70005496ED91FC915597808186FFF9CF91961D
:100D80001C920895CF93DF93EC01EE85FF85E05C24
:100D9000FF4F20813181E054F0402F5F3F4F2F7390
:100DA0003070DF01AE5BBF4F8D919C91119728177A
:100DB0003907D1F3E05CFF4F80819181E054F0402E
:100DC000E80FF91F6083EE85FF85E05CFF4F3183FC
:100DD0002083EE89FF89208181E090E00F8C02C0A2
:100DE000880F991F0A94E2F7282B208381E089A3BA
:100DF000EC89FD8980818064808381E090E0DF91CF
:100E0000CF9108951F9310924C0410924B0428EE3A
:100E100033E040E050E020934D0430934E04409383
:100E20004F045093500462E172E070934A0460935F
:100E3000490489E292E090935604809355048DE62C
:100E400092E0909358048093570485EC90E090933F
:100E50005A048093590484EC90E090935C0480934E
:100E60005B0480EC90E090935E0480935D0481ECE1
:100E700090E09093600480935F0482EC90E0909304
:100E800062048093610486EC90E090936404809304
:100E9000630414E010936504B3E0B0936604A7E024
:100EA000A0936704F5E0F0936804E1E0E09369043F
:100EB00010926E0410926D0420936F0430937004AE
:100EC000409371045093720470936C0460936B04AC
:100ED00081EB92E0909378048093770485EF92E021
:100EE00090937A04809379048DEC90E090937C0445
:100EF00080937B048CEC90E090937E0480937D043F
:100F000088EC90E09093800480937F0489EC90E0DB
:100F100090938204809381048AEC90E090938404FF
:100F2000809383048EEC90E09093860480938504F4
:100F300010938704B0938804A0938904F0938A04E3
:100F4000E0938B041092900410928F0420939104EC
:100F500030939204409393045093940470938E04BE
:100F600060938D0489E393E090939A0480939904AD
:100F70008DE793E090939C0480939B0485ED90E033
:100F800090939E0480939D0484ED90E09093A00440
:100F900080939F0480ED90E09093A2048093A1043D
:100FA00081ED90E09093A4048093A30482ED90E0FF
:100FB0009093A6048093A50486ED90E09093A804F6
:100FC0008093A7041093A904B093AA04A093AB0440
:100FD000F093AC04E093AD041092B2041092B1040B
:100FE0002093B3043093B4044093B5045093B604F3
:100FF0007093B0046093AF0481EC93E09093BC04D1
:101000008093BB0485E094E09093BE048093BD047C
:1010100085E391E09093C0048093BF0484E391E062
:101020009093C2048093C10480E391E09093C40440
:101030008093C30481E391E09093C6048093C50438
:1010400082E391E09093C8048093C70486E391E023
:101050009093CA048093C9041093CB04B093CC043A
:10106000A093CD04F093CE04E093CF041F91089594
:101070000895CF93DF93CDD9FBDF1AD9C4E8D4E02C
:10108000EFD82097E9F340DCFBCFCF92DF92EF92CD
:10109000FF920F931F93CF93DF937C016B018A0123
:1010A000C0E0D0E00FC0D6016D916D01D701ED9188
:1010B000FC910190F081E02DC7011995C80FD91F4F
:1010C000015010400115110571F7CE01DF91CF914C
:1010D0001F910F91FF90EF90DF90CF900895EF92C6
:1010E000FF920F931F938C01DC01ED91FC91019015
:1010F000F081E02D6DE019957C01D801ED91FC9116
:101100000190F081E02DC8016AE019959C012E0D37
:101110003F1DC9011F910F91FF90EF900895CF934C
:10112000DF93EC016115710519F420E030E00FC088
:10113000DB010D900020E9F71197A61BB70BE881A2
:10114000F9810280F381E02DAD0119959C01C9015F
:10115000DF91CF9108954F925F927F928F929F92ED
:10116000AF92BF92CF92DF92EF92FF920F931F93B5
:10117000DF93CF93CDB7DEB7A1970FB6F894DEBF5C
:101180000FBECDBF2C01742ECB01223008F42AE013
:1011900019A231E2C32ED12CCC0EDD1E822E992451
:1011A000AA24BB24672D752FA5019401C4D0790111
:1011B0008A01C801B701A50194018BD0472D461BB8
:1011C0000894C108D1084A3014F4405D01C0495C5C
:1011D000F6014083E114F1040105110521F07E2C94
:1011E0005F2DC801DFCFC201B60199DFA1960FB60E
:1011F000F894DEBF0FBECDBFCF91DF911F910F914D
:10120000FF90EF90DF90CF90BF90AF909F908F9026
:101210007F905F904F900895CF92DF92EF92FF9270
:101220000F931F93CF93DF93EC016A017B0121158C
:10123000310541F4E881F9810190F081E02D642FBE
:1012400019951DC02A303105C9F477FF16C0E88111
:10125000F9810190F081E02D6DE219958C01442710
:101260005527BA014C195D096E097F09CE012AE0A4
:1012700072DF9801280F391F03C02AE06CDF9C0140
:10128000C901DF91CF911F910F91FF90EF90DF90F7
:10129000CF900895CF92DF92EF92FF920F931F931A
:1012A0006C017B019A010027F7FC0095102FB80113
:1012B000A701B2DF8C01C60112DF080F191FC80198
:1012C0001F910F91FF90EF90DF90CF90089527CF5F
:1012D0000895629FD001739FF001829FE00DF11D80
:1012E000649FE00DF11D929FF00D839FF00D749FA0
:1012F000F00D659FF00D9927729FB00DE11DF91F4C
:10130000639FB00DE11DF91FBD01CF0111240895A8
:1013100097FB092E07260AD077FD04D02ED006D0E1
:1013200000201AF4709561957F4F0895F6F7909517
:1013300081959F4F0895A1E21A2EAA1BBB1BFD01A8
:101340000DC0AA1FBB1FEE1FFF1FA217B307E407A4
:10135000F50720F0A21BB30BE40BF50B661F771FFC
:10136000881F991F1A9469F76095709580959095DC
:101370009B01AC01BD01CF010895AA1BBB1B51E12C
:1013800007C0AA1FBB1FA617B70710F0A61BB70BF5
:10139000881F991F5A95A9F780959095BC01CD019A
:1013A0000895EE0FFF1F0590F491E02D1994F89425
:0213B000FFCF6D
:1013B20056616C6F72204C4452203D2000010000A7
:0E13C2000000C2064508570689066906B206F5
:00000001FF
