:100000000C9465000C948D000C948D000C9482016E
:100010000C9482010C9482010C948D000C948D0040
:100020000C948D000C948D000C948D000C948D001C
:100030000C948D000C948D000C948D000C948D000C
:100040000C941B070C948D000C94C8090C94FA09AD
:100050000C948D000C948D000C948D000C948D00EC
:100060000C94C4040C948D000000000800020100F0
:100070000003040700000000000000000102040863
:100080001020408001020408102001020408102002
:10009000040404040404040402020202020203032E
:1000A00003030303000000002300260029000000D2
:1000B0000000250028002B0000000000240027007D
:1000C0002A00E2032B062A0A320611241FBECFEFB4
:1000D000D8E0DEBFCDBF11E0A0E0B1E0E4E4F6E19E
:1000E00002C005900D92A033B107D9F723E0A0E339
:1000F000B1E001C01D92A730B207E1F710E0C8ECF3
:10010000D0E004C02297FE010E94110BC23CD1072F
:10011000C9F70E946E0A0C94150B0C9400002091F4
:1001200072013091730128173907B9F490913001A9
:1001300080913101981789F0E0913001F0E0EE5C98
:10014000FE4F80812091300130E02F5F3F4F2F73B1
:1001500033272093300190E008958FEF9FEF0895AB
:100160001F93CF93DF93DC015C968D919C915D97FB
:10017000009749F481E090E013969C938E93129738
:1001800080E090E03BC05196ED91FC9152975096E3
:100190002C915097322F30951FB75E964C915E97F9
:1001A00041FB772770F941FD6095F89440817723F2
:1001B00011F0422B01C043234083EC012197F1F75A
:1001C00048E0508160FF02C0522B01C0532350838E
:1001D000EC012197F1F76695415099F780817723DB
:1001E00011F0832301C0822B80831FBF5C968D9109
:1001F0009C915D970197F1F781E090E0DF91CF91BD
:100200001F910895209172013091730128173907C9
:1002100081F49091300180913101981751F0E09173
:100220003001F0E0EE5CFE4F8081992787FD9095CC
:1002300008958FEF9FEF089520917201309173011F
:100240002817390771F4809131012091300190E035
:10025000805C9F4F821B910960E470E00E94A60AB7
:10026000089580E090E0089520917201309173012B
:100270002817390739F48FB7F8941092310110928A
:1002800030018FBF0895E0917201F0917301E8177A
:10029000F90769F4A389B4899C918589809589239C
:1002A0008C93109273011092720181E0089580E0A6
:1002B0000895CF93DF93EC018A8D9B8D892BF1F00C
:1002C00080917201909173018C179D07B9F000978E
:1002D00011F00E9443018E8D8E7F8E8F109231011E
:1002E00010923001D0937301C0937201EB89FC89A5
:1002F00080819D89892B808381E001C080E0DF912E
:10030000CF9108951F920F920FB60F9211242F9341
:100310003F934F935F936F937F938F939F93AF938D
:10032000BF93EF93FF93E0917201F09173013097C7
:1003300009F451C0868DA685B785958581FF04C0D7
:100340008C91892329F447C08C91892309F043C0FB
:10035000A389B4899C918589809589238C9386890A
:1003600097890197F1F7208D318DA685B785758521
:1003700058E040E0C9010197F1F7842F90E095958E
:100380008795482F6C91672309F04068515091F789
:10039000868D81FD40958091310190E001968F73AB
:1003A000992720913001281749F0A0913101B0E040
:1003B000AE5CBE4F4C938093310103C0868D81604B
:1003C000868F828D938D0197F1F7A389B4898C91E3
:1003D0009589892B8C93FF91EF91BF91AF919F915C
:1003E0008F917F916F915F914F913F912F910F90DE
:1003F0000FBE0F901F90189524E031E0FC0131836F
:1004000020830C9443011F93CF93DF93EC01162FAD
:100410006E8D6695617081E06827812F0E944D087E
:1004200061E0812F0E941408812F90E0FC01E458C4
:10043000FF4FE491E88BFC01E057FF4FE491F0E0BF
:10044000EE0FFF1FE255FF4F859194919A8B898B98
:10045000DF91CF911F9108951F93CF93DF93EC010C
:10046000162F60E0812F0E9414088E8D81FD04C03C
:1004700061E0812F0E944D081C87812F90E0FC01D4
:10048000E458FF4FE491ED87FC01E057FF4FE49102
:10049000F0E0EE0FFF1FEC55FF4F859194919F8781
:1004A0008E87DF91CF911F910895FF920F931F9335
:1004B000CF93DF93EC01F62E522F1B821A8208EEA7
:1004C00013E020E030E00C831D832E833F8384E023
:1004D00091E0998388831F8A1E8A198E188E1B8E3D
:1004E0001A8E1D8E1C8E8E8D8E7F50FB81F98E8F05
:1004F000642FCE010E9403026F2DCE01DF91CF91B8
:100500001F910F91FF900C942C02CF93DF93EC017D
:100510009A01AB011B8E1A8E198E188E1F8A1E8AA5
:1005200060E079E08DE390E00E94DC0AC9012430AC
:10053000310520F0B9016350710902C061E070E03B
:100540007D8F6C8FEC85E63108F068C0B901769537
:1005500067956431710518F06351710902C061E05B
:1005600070E07F8B6E8B069718F0C901059702C06B
:1005700081E090E0998F888FC901880F991F820FC1
:10058000931F96958795969587958D30910510F0D8
:100590000C9702C081E090E09B8F8A8F20916800C9
:1005A000E83050F091E0EE3008F490E081E001C0D6
:1005B000880F9A95EAF701C084E0822B8093680047
:1005C0002C85283038F02E3040F0263148F48CE667
:1005D00090E008C08DE690E005C08BE690E002C098
:1005E00080E090E09C8B8B8B283030F481E001C060
:1005F000880F2A95EAF70DC0822F90E02E3010F474
:10060000089701C00E9791E001C0990F8A95EAF70B
:10061000892F8D8B8C8D9D8D0197F1F7CE01DF9108
:10062000CF910C9459018091A40190E02091A501F3
:10063000821B910908952091A5018091A40128179A
:1006400050F4E22FF0E0EA55FE4F808190E02F5FFA
:100650002093A50108958FEF9FEF0895E091A501E4
:100660008091A401E81730F4F0E0EA55FE4F808154
:1006700090E008958FEF9FEF08950895CF92DF9255
:10068000EF92FF920F931F93CF93DF937C01CB01E7
:100690008A0120918001222389F0EB016B01C40EB5
:1006A000D51ECC15DD0569F06991D701ED91FC915E
:1006B0000190F081E02DC7010995F3CF642F0E94CE
:1006C0009B04C801DF91CF911F910F91FF90EF9094
:1006D000DF90CF900895CF93DF931F92CDB7DEB711
:1006E0006983209180012223D1F020918101203261
:1006F00040F021E030E0FC013383228380E090E091
:1007000015C080918201E82FF0E0ED57FE4F9981EE
:1007100090838F5F809382018093810105C061E0A7
:10072000CE0101960E949B0481E090E00F90DF9142
:10073000CF910895FC011382128248EE53E060E0ED
:1007400070E0448355836683778384E191E09183ED
:10075000808308951092A5011092A4011092820145
:10076000109281010C94E603862F413208F040E29A
:1007700066EA71E00E9404041092A5018093A4012E
:1007800008950C94B40381E0809380016093A301E9
:10079000109282011092810108950C94C3030F936B
:1007A000062F21E04091810163E871E08091A3016F
:1007B0000E944804109282011092810110928001DF
:1007C0000F91089584E791E00C949A0310923302FC
:1007D00081E0809331021092300261E082E10E9458
:1007E0004D0861E083E10E944D08E9EBF0E0808173
:1007F0008E7F808380818D7F808388E48093B800A2
:1008000085E48093BC000895413208F03FC0909188
:1008100033029111FCCF91E0909333022093310287
:100820002FEF2093C60110920B02240F20930A028F
:100830009093320290913202880F892B809332027A
:1008400080913002813041F4109230028091320266
:100850008093BB0085EC01C085EE8093BC00809145
:1008600033028130E1F380910B02841710F4409140
:100870000B022CE032E0FB01D9018A2F821B841786
:1008800018F48D918193F9CF842F089580E0089515
:100890000F93413208F046C0909133029111FCCF82
:1008A00092E090933302009331029FEF9093C60140
:1008B00010920B0240930A02FB016CE072E0DB0134
:1008C0009A2F961B941718F491919D93F9CF10923B
:1008D000320290913202880F892B809332028091EC
:1008E0003002813041F410923002809132028093C4
:1008F000BB0085EC01C085EE8093BC00222321F073
:10090000809133028230E1F38091C6018F3F61F024
:100910008091C601803251F08091C601803341F44C
:1009200083E007C081E005C080E003C082E001C031
:1009300084E00F910895613298F4209133022430BD
:1009400089F46093E801FC018AEE91E0DC012A2F32
:10095000281B261718F421912D93F9CF80E00895D4
:1009600081E0089582E0089585ED8093BC00809138
:10097000BC0084FDFCCF10923302089585EC809377
:10098000BC001092330208951F920F920FB60F927F
:1009900011242F933F934F935F936F937F938F9384
:1009A0009F93AF93BF93EF93FF938091B900887F9C
:1009B000803609F49CC068F5883209F45BC090F475
:1009C000803109F454C038F4882309F4F5C0883024
:1009D00009F44DC0F5C0883109F44CC0803209F4E7
:1009E0005DC0EEC0803409F468C048F4803309F477
:1009F00055C0883309F0E4C08093C601A8C0803593
:100A000009F44FC0883509F45DC0883409F0D8C0B6
:100A1000D5C0883909F4C6C0A8F4883709F467C07E
:100A200038F4883609F463C0803709F460C0C8C060
:100A3000883809F4B7C0803909F45FC0803809F0FC
:100A4000BFC05BC0803B09F485C038F4803A09F42C
:100A500066C0883A09F47EC0B3C0803C09F4A6C0E1
:100A6000883C09F4A3C0883B09F489C0A9C08091DF
:100A7000320210C090910B0280910A02981770F513
:100A8000E0910B0281E08E0F80930B02F0E0E45FB7
:100A9000FD4F80818093BB0085EC85C08093C601AB
:100AA0008DC0E0910B0281E08E0F80930B0280914C
:100AB000BB00F0E0E45FFD4F808390910B028091DA
:100AC0000A026DC0E0910B0281E08E0F80930B0251
:100AD0008091BB00F0E0E45FFD4F808380913102A4
:100AE00081116CC081E08093300284EA60C083E0B1
:100AF000809333021092C701CFCF8091C70180321B
:100B000008F050C0E091C70181E08E0F8093C701CB
:100B10008091BB00F0E0E853FE4F8083BDCF809111
:100B2000C701803230F4E091C701F0E0E853FE4F96
:100B300010820E94B4046091C70170E0E0912C0221
:100B4000F0912D0288EC91E009951092C7010E9466
:100B5000BE0436C084E0809333021092E901109203
:100B6000E801E0912E02F0912F0209958091E801B1
:100B7000811105C081E08093E8011092EA01E091C3
:100B8000E90181E08E0F8093E901F0E0E651FE4F2C
:100B900080818093BB009091E9018091E8019817D2
:100BA00008F47ACF85E88093BC000AC085EC809376
:100BB000BC001092330204C01092C6010E94B4041B
:100BC000FF91EF91BF91AF919F918F917F916F9125
:100BD0005F914F913F912F910F900FBE0F901F90FB
:100BE0001895DC01ED91FC910190F081E02D0994C4
:100BF000DC01ED91FC910190F081E02D099426E05B
:100C000040E052EC61E070E08AE692E00E94660902
:100C100040E855E260E070E084E392E00E948502E3
:100C200084E791E00E94AA0368E670E084E791E01F
:100C30000E94CD036BE670E084E791E00E94F1052D
:100C400060E070E084E791E00E94F10561E084E7F4
:100C500091E00C94CF0320E04BE06AE084E392E063
:100C60000C94550284E392E00C94FC0184E392E03E
:100C70000E941C01181619064CF484E392E00E94AD
:100C80008F00BC018AE692E00C94F80508958AE68C
:100C900092E00E948308181619064CF48AE692E046
:100CA0000E949C08682F84E392E00C94B0000895A1
:100CB000CF9368E670E084E791E00E94CD036BE398
:100CC00070E084E791E00E94F10560E084E791E044
:100CD0000E94CF0321E030E04EE050E068E670E093
:100CE00084E791E00E94C10384E791E00E941B0326
:100CF000C82F84E791E00E941B0320E030E03C2FE6
:100D0000822B932B909354028093530284E791E0BB
:100D10000E941B03C82F84E791E00E941B0320E080
:100D200030E03C2F822B932B9093560280935502F8
:100D300084E791E00E941B03C82F84E791E00E94A2
:100D40001B0320E030E03C2F822B932B9093580222
:100D50008093570284E791E00E941B03C82F84E729
:100D600091E00E941B0320E030E03C2F822B932B6C
:100D70009093600280935F0284E791E00E941B03DE
:100D8000C82F84E791E00E941B0320E030E03C2F55
:100D9000822B932B90935A028093590284E791E01F
:100DA0000E941B03C82F84E791E00E941B0320E0F0
:100DB00030E03C2F822B932B90935C0280935B025C
:100DC00084E791E00E941B03C82F84E791E00E9412
:100DD0001B0320E030E03C2F822B932B90935E028C
:100DE00080935D020E9436060E94470684E392E0EB
:100DF0000E941C01892B49F084E392E00E948F003D
:100E0000BC018AE692E00E94F8058AE692E00E9420
:100E10008308892B49F08AE692E00E949C08682F9B
:100E200084E392E00E94B00064E670E080E090E02D
:100E3000CF910C9488071F920F920FB60F92112436
:100E40002F933F938F939F93AF93BF9380916202B1
:100E500090916302A0916402B091650230916102A9
:100E600023E0230F2D3720F40196A11DB11D05C0ED
:100E700026E8230F0296A11DB11D209361028093E5
:100E8000620290936302A0936402B0936502809122
:100E9000660290916702A0916802B0916902019682
:100EA000A11DB11D8093660290936702A093680212
:100EB000B0936902BF91AF919F918F913F912F9114
:100EC0000F900FBE0F901F9018953FB7F894809128
:100ED000660290916702A0916802B091690226B5FE
:100EE000A89B05C02F3F19F00196A11DB11D3FBF62
:100EF0006627782F892F9A2F620F711D811D911DF2
:100F000042E0660F771F881F991F4A95D1F7089511
:100F1000CF92DF92EF92FF92CF93DF936B017C0130
:100F20000E946507EB01C114D104E104F10489F0CA
:100F30000E94A50A0E9465076C1B7D0B683E7340EA
:100F400090F381E0C81AD108E108F108C851DC4FDC
:100F5000EACFDF91CF91FF90EF90DF90CF9008958F
:100F6000789484B5826084BD84B5816084BD85B584
:100F7000826085BD85B5816085BDEEE6F0E080814B
:100F800081608083E1E8F0E010828081826080836C
:100F9000808181608083E0E8F0E0808181608083EF
:100FA000E1EBF0E0808184608083E0EBF0E0808121
:100FB00081608083EAE7F0E08081846080838081C3
:100FC000826080838081816080838081806880836B
:100FD0001092C1000895833081F028F4813099F097
:100FE0008230A1F008958730A9F08830B9F08430BC
:100FF000D1F4809180008F7D03C0809180008F7735
:1010000080938000089584B58F7702C084B58F7D6A
:1010100084BD08958091B0008F7703C08091B000A7
:101020008F7D8093B0000895CF93DF9390E0FC0113
:10103000E458FF4F2491FC01E057FF4F849188232F
:1010400049F190E0880F991FFC01E854FF4FA591EA
:10105000B49182559F4FFC01C591D4919FB7611106
:1010600008C0F8948C91209582238C9388818223E8
:101070000AC0623051F4F8948C91322F309583235A
:101080008C938881822B888304C0F8948C91822B66
:101090008C939FBFDF91CF9108950F931F93CF93B0
:1010A000DF931F92CDB7DEB7282F30E0F901E85962
:1010B000FF4F8491F901E458FF4F1491F901E05773
:1010C000FF4F04910023C9F0882321F069830E9417
:1010D000EB076981E02FF0E0EE0FFF1FE255FF4FB5
:1010E000A591B4919FB7F8948C91611103C01095AC
:1010F000812301C0812B8C939FBF0F90DF91CF91F3
:101100001F910F910895FC01818D228D90E0805CEC
:101110009F4F821B91098F7399270895FC01918D30
:10112000828D981731F0828DE80FF11D858D90E04A
:1011300008958FEF9FEF0895FC01918D828D981790
:1011400061F0828DDF01A80FB11D5D968C91928DAB
:101150009F5F9F73928F90E008958FEF9FEF0895A8
:1011600080E29AE0892B49F080E090E0892B29F019
:101170000E94200A81110C9400000895FC01848DC6
:10118000DF01A80FB11DA35ABF4F2C91848D90E0B1
:1011900001968F739927848FA689B7892C93A0898C
:1011A000B1898C9180648C93938D848D981306C043
:1011B0000288F389E02D80818F7D80830895CF930D
:1011C000DF93EC01888D8823C9F0EA89FB8980814F
:1011D00085FD05C0A889B9898C9186FD0FC00FB621
:1011E00007FCF5CF808185FFF2CFA889B9898C9162
:1011F00085FFEDCFCE010E94BE08E7CFDF91CF91F2
:101200000895CF92DF92FF920F931F93CF93DF93B6
:101210001F92CDB7DEB76C0181E0D60158968C9352
:1012200058975B969C915B975C968C915C97981312
:1012300007C05096ED91FC915197808185FD2EC09D
:10124000F601038D10E00F5F1F4F0F731127F02E73
:10125000F601848DF81211C00FB607FCF9CFD60144
:101260005096ED91FC915197808185FFF1CFC60199
:1012700069830E94BE086981EBCF838DE80FF11D61
:10128000E35AFF4F6083D6015B960C935B975296AF
:10129000ED91FC915397808180620CC0D6015696E7
:1012A000ED91FC91579760835096ED91FC91519789
:1012B00080818064808381E090E00F90DF91CF9106
:1012C0001F910F91FF90DF90CF900895BF92CF9222
:1012D000DF92EF92FF92CF93DF93EC016A017B01E3
:1012E000B22EE889F98982E08083411581EE5807A2
:1012F00061057105A1F060E079E08DE390E0A70160
:1013000096010E94BA0A21503109410951095695A6
:10131000479537952795211580E1380798F0E8899A
:10132000F989108260E874E88EE190E0A7019601E7
:101330000E94BA0A21503109410951095695479531
:1013400037952795EC85FD853083EE85FF852083D5
:10135000188EEC89FD89B082EA89FB8980818061E1
:101360008083EA89FB89808188608083EA89FB89A0
:10137000808180688083EA89FB8980818F7D80837A
:10138000DF91CF91FF90EF90DF90CF90BF900895C5
:101390001F920F920FB60F9211242F938F939F934A
:1013A000EF93FF93E0917A02F0917B028081E091CC
:1013B0008002F091810282FD12C0908180918302AF
:1013C0008F5F8F7320918402821751F0E091830226
:1013D000F0E0E659FD4F958F8093830201C0808134
:1013E000FF91EF919F918F912F910F900FBE0F90D2
:1013F0001F9018951F920F920FB60F9211242F93E2
:101400003F934F935F936F937F938F939F93AF938C
:10141000BF93EF93FF938AE692E00E94BE08FF918C
:10142000EF91BF91AF919F918F917F916F915F915C
:101430004F913F912F910F900FBE0F901F901895D5
:101440008AE692E00E94830821E0892B09F420E0DB
:10145000822F089510926D0210926C0288EE93E034
:10146000A0E0B0E080936E0290936F02A0937002B0
:10147000B093710284E291E090936B0280936A02D0
:1014800085EC90E0909377028093760284EC90E074
:10149000909379028093780280EC90E090937B02A5
:1014A00080937A0281EC90E090937D0280937C029D
:1014B00082EC90E090937F0280937E0286EC90E035
:1014C0009093810280938002109283021092840292
:1014D0001092850210928602089508950E94B00726
:1014E0000E946D0A0E94FF05C0EBD8E00E945806DA
:1014F0002097E1F30E94B008F9CFCF92DF92EF92EC
:10150000FF920F931F93CF93DF936C017A01EB014E
:10151000E60EF71E00E010E0CE15DF0561F06991E0
:10152000D601ED91FC910190F081E02DC601099565
:10153000080F191FF1CFC801DF91CF911F910F91B3
:10154000FF90EF90DF90CF900895089597FB072EBE
:1015500016F4009407D077FD09D00E94FB0A07FC1F
:1015600005D03EF4909581959F4F089570956195B3
:101570007F4F0895A1E21A2EAA1BBB1BFD010DC0CF
:10158000AA1FBB1FEE1FFF1FA217B307E407F50733
:1015900020F0A21BB30BE40BF50B661F771F881F0F
:1015A000991F1A9469F760957095809590959B01A5
:1015B000AC01BD01CF010895052E97FB1EF40094E8
:1015C0000E94F30A57FD07D00E94BA0A07FC03D015
:1015D0004EF40C94F30A50954095309521953F4F69
:1015E0004F4F5F4F089590958095709561957F4F0F
:1015F0008F4F9F4F0895AA1BBB1B51E107C0AA1F25
:10160000BB1FA617B70710F0A61BB70B881F991FA3
:101610005A95A9F780959095BC01CD010895EE0FDC
:10162000FF1F0590F491E02D099410E0C8ECD0E084
:1016300004C0FE010E94110B2296CA3CD107C9F7D3
:04164000F894FFCF4C
:1016440000000000B0007D0A1C018F00020134017B
:10165400000000006B033E0313031B032E033D0332
:101664000000000001097D0A83089C088E08DF0839
:00000001FF
