:100000000C9462000C948A000C948A000C948A0070
:100010000C948A000C948A000C948A000C948A0038
:100020000C948A000C948A000C948A000C948A0028
:100030000C948A000C948A000C948A000C948A0018
:100040000C9414010C948A000C94C6020C941803AE
:100050000C948A000C948A000C948A000C948A00F8
:100060000C948A000C948A000000000024002700F1
:100070002A0000000000250028002B0000000000DE
:1000800023002600290004040404040404040202DA
:100090000202020203030303030301020408102007
:1000A0004080010204081020010204081020000012
:1000B0000007000201000003040600000000000029
:1000C0000000870411241FBECFEFD8E0DEBFCDBFF4
:1000D00011E0A0E0B1E0E2E7FBE002C005900D9284
:1000E000A435B107D9F712E0A4E5B1E001C01D9233
:1000F000A730B107E1F710E0C4ECD0E004C02297CC
:10010000FE010E94B305C23CD107C9F70E94DE047C
:100110000C94B7050C940000BF92CF92DF92EF923F
:10012000FF920F931F93CF93DF93EC0100E081E0E8
:10013000C82ED12CE12CF12CB00E20E030E0FE01D5
:10014000E20FF31F8081813061F4B701A601022E16
:1001500004C0440F551F661F771F0A94D2F7142B53
:100160000EC0B701A601022E04C0440F551F661F22
:10017000771F0A94D2F7DB01CA01809518232F5FFD
:100180003F4F28303105D9F688E06AE040E02B2D5A
:100190000E94830289E06BE040E0212F0E948302ED
:1001A00064E170E080E090E00E945C010F5F2896BF
:1001B000083011F6DF91CF911F910F91FF90EF90D2
:1001C000DF90CF90BF90089583E091E00E948C0073
:1001D00008950F931F9305EE11E0C80140E855E222
:1001E00060E070E00E945303C80160E071E00E948B
:1001F000550588E061E00E94F0018AE061E00E941C
:10020000F0018CE061E00E94F00189E061E00E9471
:10021000F0018BE061E00E94F0018DE061E00E945E
:10022000F0011F910F9108951F920F920FB60F9238
:1002300011242F933F938F939F93AF93BF938091FC
:10024000580190915901A0915A01B0915B013091F0
:100250005C010196A11DB11D232F2D5F2D3720F0CC
:100260002D570196A11DB11D20935C01809358016B
:1002700090935901A0935A01B0935B01809154016E
:1002800090915501A0915601B09157010196A11D81
:10029000B11D8093540190935501A0935601B093E2
:1002A0005701BF91AF919F918F913F912F910F90E7
:1002B0000FBE0F901F9018959B01AC017FB7F8946B
:1002C0008091540190915501A0915601B091570130
:1002D00066B5A89B05C06F3F19F00196A11DB11D21
:1002E0007FBFBA2FA92F982F8827860F911DA11D98
:1002F000B11D62E0880F991FAA1FBB1F6A95D1F735
:10030000BC012DC0FFB7F894809154019091550124
:10031000A0915601B0915701E6B5A89B05C0EF3FEB
:1003200019F00196A11DB11DFFBFBA2FA92F982F5B
:1003300088278E0F911DA11DB11DE2E0880F991F26
:10034000AA1FBB1FEA95D1F7861B970B885E9340C7
:10035000C8F2215030404040504068517C4F211538
:1003600031054105510571F60895789484B5826090
:1003700084BD84B5816084BD85B5826085BD85B549
:10038000816085BDEEE6F0E0808181608083E1E8F8
:10039000F0E0108280818260808380818160808330
:1003A000E0E8F0E0808181608083E1EBF0E0808133
:1003B00084608083E0EBF0E0808181608083EAE705
:1003C000F0E080818460808380818260808380818E
:1003D000816080838081806880831092C10008954D
:1003E000CF93DF93482F50E0CA0186569F4FFC0100
:1003F00034914A575F4FFA018491882369F190E064
:10040000880F991FFC01E859FF4FA591B491FC0199
:10041000EE58FF4FC591D491662351F42FB7F8944D
:100420008C91932F909589238C93888189230BC07D
:10043000623061F42FB7F8948C91932F90958923B3
:100440008C938881832B88832FBF06C09FB7F89435
:100450008C91832B8C939FBFDF91CF910895482F70
:1004600050E0CA0182559F4FFC012491CA01865673
:100470009F4FFC0194914A575F4FFA013491332307
:1004800009F440C0222351F1233071F0243028F4C4
:100490002130A1F0223011F514C02630B1F0273000
:1004A000C1F02430D9F404C0809180008F7703C05C
:1004B000809180008F7D8093800010C084B58F77FD
:1004C00002C084B58F7D84BD09C08091B0008F7754
:1004D00003C08091B0008F7D8093B000E32FF0E0E7
:1004E000EE0FFF1FEE58FF4FA591B4912FB7F89470
:1004F000662321F48C919095892302C08C91892BDD
:100500008C932FBF0895BF92CF92DF92EF92FF920C
:100510000F931F93CF93DF93E82EF62EB42EC7E0F0
:10052000D0E0022F10E087E0C82ED12CBB2059F478
:10053000B6016C1B7D0BC80102C0959587956A9525
:10054000E2F7BC0107C0B8010C2E02C07595679593
:100550000A94E2F761708E2D0E942F028F2D61E0C8
:100560000E942F028F2D60E00E942F0221979FEFA3
:10057000CF3FD907D9F6DF91CF911F910F91FF900F
:10058000EF90DF90CF90BF90089508951F920F9243
:100590000FB60F9211242F933F934F938F939F93F6
:1005A000EF93FF938091C00082FD1DC04091C60073
:1005B00020919D0130919E012F5F3F4F2F7330702E
:1005C00080919F019091A0012817390771F0E09167
:1005D0009D01F0919E01E35AFE4F408330939E01AE
:1005E00020939D0102C08091C600FF91EF919F91E1
:1005F0008F914F913F912F910F900FBE0F901F90B1
:100600001895E091F101F091F201E05CFF4F8191CA
:10061000919120813181805C9F4F821B930B60E41C
:1006200070E00E946805892B11F00E94C5020895B0
:100630001F920F920FB60F9211242F933F938F9317
:100640009F93EF93FF932091E1013091E20180911C
:10065000E3019091E4012817390731F48091C1003A
:100660008F7D8093C10014C0E091E301F091E4011B
:10067000EF55FE4F20818091E3019091E4010196B6
:100680008F7390709093E4018093E3012093C600F0
:10069000FF91EF919F918F913F912F910F900FBEFE
:1006A0000F901F901895AF92BF92DF92EF92FF923A
:1006B0000F931F93CF93DF93EC017A018B01DD241D
:1006C000403081EE580780E0680780E0780711F03D
:1006D000DD24D39491E0A92EB12CEC89FD89DD2095
:1006E00069F0C50108A002C0880F991F0A94E2F7BB
:1006F000808360E079E08DE390E005C0108260E8DF
:1007000074E88EE190E0A80197010E947B052150DA
:10071000304040405040569547953795279580E1A9
:100720002030380720F0DD2011F0DD24D6CFE88915
:10073000F9893083EA89FB89208319A2EE89FF8930
:10074000408121E030E0C9010C8C02C0880F991F64
:100750000A94E2F7482B4083EE89FF894081C90162
:100760000D8C02C0880F991F0A94E2F7482B408332
:10077000EE89FF894081C9010E8C02C0880F991F44
:100780000A94E2F7482B4083EE89FF8980810F8C21
:1007900002C0220F331F0A94E2F7209528232083FA
:1007A000DF91CF911F910F91FF90EF90DF90BF905D
:1007B000AF900895DC011C96ED91FC911D97E05CD3
:1007C000FF4F8191919120813181805C9F4F821BED
:1007D000930B60E470E00E9468050895DC011C96AC
:1007E000ED91FC911D97E05CFF4F20813181E05439
:1007F000F040DF01AE5BBF4F8D919C9111972817A0
:10080000390719F42FEF3FEF07C08D919C91E80F46
:10081000F91F8081282F30E0C9010895DC011C9662
:10082000ED91FC911D97E05CFF4F20813181E054F8
:10083000F040DF01AE5BBF4F8D919C91119728175F
:10084000390719F42FEF3FEF10C08D919C9111974C
:10085000E80FF91F20818D919C91119701968F735C
:10086000907011969C938E9330E0C9010895DC013D
:1008700091968C919197882339F05496ED91FC9143
:100880005597808186FFF9CF91961C920895CF935A
:10089000DF93EC01EE85FF85E05CFF4F2081318125
:1008A000E054F0402F5F3F4F2F733070DF01AE5B9D
:1008B000BF4F8D919C91119728173907D1F3E05CB8
:1008C000FF4F80819181E054F040E80FF91F608371
:1008D000EE85FF85E05CFF4F31832083EE89FF8941
:1008E000208181E090E00F8C02C0880F991F0A944C
:1008F000E2F7282B208381E089A3EC89FD898081A0
:100900008064808381E090E0DF91CF910895109220
:10091000E8011092E70188EE93E0A0E0B0E0809358
:10092000E9019093EA01A093EB01B093EC0187E415
:1009300091E09093E6018093E5018DE591E090933D
:10094000F2018093F10181EA91E09093F4018093A8
:10095000F30185EC90E09093F6018093F50184EC2F
:1009600090E09093F8018093F70180EC90E09093F1
:10097000FA018093F90181EC90E09093FC0180935F
:10098000FB0182EC90E09093FE018093FD0186ECE8
:1009900090E0909300028093FF0184E08093010235
:1009A00083E08093020287E08093030285E08093D6
:1009B000040281E08093050208950895CF93DF93A8
:1009C0000E94B5010E94DD040E94E900C1E0D3E06D
:1009D0000E94E4002097E1F30E940103F9CFCF9237
:1009E000DF92EF92FF920F931F93CF93DF937C01DF
:1009F0006B018A01C0E0D0E00FC0D6016D916D019E
:100A0000D701ED91FC910190F081E02DC70109958E
:100A1000C80FD91F015010400115110571F7CE0103
:100A2000DF91CF911F910F91FF90EF90DF90CF90CA
:100A30000895EF92FF920F931F938C01DC01ED91CB
:100A4000FC910190F081E02D6DE009957C01D801C9
:100A5000ED91FC910190F081E02DC8016AE00995CB
:100A60009C012E0D3F1DC9011F910F91FF90EF902A
:100A70000895CF93DF93EC016115710519F420E01F
:100A800030E00FC0DB010D900020E9F71197A61BA5
:100A9000B70BE881F9810280F381E02DAD01099562
:100AA0009C01C901DF91CF910895EF92FF920F93BE
:100AB0001F937C010E9439058C01C7010E94190512
:100AC000080F191FC8011F910F91FF90EF90089513
:100AD00097FB092E07260AD077FD04D02ED006D02A
:100AE00000201AF4709561957F4F0895F6F7909560
:100AF00081959F4F0895A1E21A2EAA1BBB1BFD01F1
:100B00000DC0AA1FBB1FEE1FFF1FA217B307E407EC
:100B1000F50720F0A21BB30BE40BF50B661F771F44
:100B2000881F991F1A9469F7609570958095909524
:100B30009B01AC01BD01CF010895AA1BBB1B51E174
:100B400007C0AA1FBB1FA617B70710F0A61BB70B3D
:100B5000881F991F5A95A9F780959095BC01CD01E2
:100B60000895EE0FFF1F0590F491E02D0994F8947D
:020B7000FFCFB5
:100B72004F4E0000010101000000000100000001D1
:100B8200000000010000000100000001000000015F
:100B9200000000010101010100000001000000014C
:100BA200000000010001000100000001000000013E
:100BB200000000000000004704EF04DA030E04EE18
:040BC20003370400F1
:00000001FF
