:100000000C945E000C9486000C9486000C94860080
:100010000C9486000C9486000C9486000C94860048
:100020000C9486000C9486000C9486000C94860038
:100030000C9486000C9486000C9486000C94860028
:100040000C94CD050C9486000C94D9080C940B09E3
:100050000C9486000C9486000C9486000C94860008
:100060000C9439020C948600000000080002010084
:100070000003040700000000000000000102040863
:100080001020408001020408102001020408102002
:10009000040404040404040402020202020203032E
:1000A0000303030300000000250028002B000000CC
:1000B0000000240027002A0057013B0911241FBE1D
:1000C000CFEFD8E0DEBFCDBF11E0A0E0B1E0E6E9C0
:1000D000FBE102C005900D92AC36B107D9F722E0E2
:1000E000ACE6B1E001C01D92A43EB207E1F710E01A
:1000F000CCEBD0E004C02297FE010E94C50DC83BA6
:10010000D107C9F70E947F090C94C90D0C94000017
:1001100080919C0190E020919D01821B910908959E
:1001200020919D0180919C01281750F4E22FF0E06E
:10013000E256FE4F808190E02F5F20939D0108954D
:100140008FEF9FEF0895E0919D0180919C01E8174A
:1001500030F4F0E0E256FE4F808190E008958FEF9A
:100160009FEF08950895CF92DF92EF92FF920F9341
:100170001F93CF93DF937C01CB018A0120917801FB
:10018000222389F0EB016B01C40ED51ECC15DD05D1
:1001900069F06991D701ED91FC910190F081E02D1A
:1001A000C7010995F3CF642F0E941002C801DF91A7
:1001B000CF911F910F91FF90EF90DF90CF90089516
:1001C000CF93DF931F92CDB7DEB76983209178017B
:1001D0002223D1F020917901203240F021E030E05B
:1001E000FC013383228380E090E015C080917A0186
:1001F000E82FF0E0E558FE4F998190838F5F809360
:100200007A018093790105C061E0CE0101960E94D8
:10021000100281E090E00F90DF91CF910895FC01F2
:100220001382128248EE53E060E070E0448355830D
:100230006683778384E091E09183808308951092B0
:100240009D0110929C0110927A01109279010C94F8
:100250005B01862F413208F040E26EE971E00E94B6
:10026000790110929D0180939C0108950C942901BD
:1002700081E08093780160939B0110927A01109243
:10028000790108950C9438010F93062F21E04091D5
:1002900079016BE771E080919B010E94BD01109292
:1002A0007A0110927901109278010F9108958CE6ED
:1002B00091E00C940F0110922B0281E080932902AF
:1002C0001092280261E082E10E945E0761E083E112
:1002D0000E945E07E9EBF0E080818E7F8083808161
:1002E0008D7F808388E48093B80085E48093BC0090
:1002F0000895413208F03FC090912B029111FCCF3C
:1003000091E090932B02209329022FEF2093BE01BE
:1003100010920302240F2093020290932A029091DC
:100320002A02880F892B80932A028091280281302B
:1003300041F41092280280912A028093BB0085EC40
:1003400001C085EE8093BC0080912B028130E1F3E7
:1003500080910302841710F44091030224E032E0FC
:10036000FB01D9018A2F821B841718F48D91819388
:10037000F9CF842F089580E008950F93413208F05B
:1003800046C090912B029111FCCF92E090932B02EA
:10039000009329029FEF9093BE01109203024093B5
:1003A0000202FB0164E072E0DB019A2F961B9417B6
:1003B00018F491919D93F9CF10922A0290912A02FC
:1003C000880F892B80932A0280912802813041F482
:1003D0001092280280912A028093BB0085EC01C014
:1003E00085EE8093BC00222321F080912B02823085
:1003F000E1F38091BE018F3F61F08091BE018032B8
:1004000051F08091BE01803341F483E007C081E068
:1004100005C080E003C082E001C084E00F91089530
:10042000613298F420912B02243089F46093E0012A
:10043000FC0182EE91E0DC012A2F281B261718F41C
:1004400021912D93F9CF80E0089581E0089582E015
:10045000089585ED8093BC008091BC0084FDFCCFA5
:1004600010922B02089585EC8093BC0010922B0211
:1004700008951F920F920FB60F9211242F933F935E
:100480004F935F936F937F938F939F93AF93BF939C
:10049000EF93FF938091B900887F803609F49CC068
:1004A00068F5883209F45BC090F4803109F454C0D7
:1004B00038F4882309F4F5C0883009F44DC0F5C03C
:1004C000883109F44CC0803209F45DC0EEC080343C
:1004D00009F468C048F4803309F455C0883309F042
:1004E000E4C08093BE01A8C0803509F44FC08835B0
:1004F00009F45DC0883409F0D8C0D5C0883909F442
:10050000C6C0A8F4883709F467C038F4883609F4FF
:1005100063C0803709F460C0C8C0883809F4B7C028
:10052000803909F45FC0803809F0BFC05BC0803BF0
:1005300009F485C038F4803A09F466C0883A09F4B1
:100540007EC0B3C0803C09F4A6C0883C09F4A3C0B7
:10055000883B09F489C0A9C080912A0210C09091FB
:10056000030280910202981770F5E091030281E086
:100570008E0F80930302F0E0EC5FFD4F808180934B
:10058000BB0085EC85C08093BE018DC0E091030265
:1005900081E08E0F809303028091BB00F0E0EC5F5E
:1005A000FD4F808390910302809102026DC0E09123
:1005B000030281E08E0F809303028091BB00F0E084
:1005C000EC5FFD4F80838091290281116CC081E036
:1005D0008093280284EA60C083E080932B0210920B
:1005E000BF01CFCF8091BF01803208F050C0E091B1
:1005F000BF0181E08E0F8093BF018091BB00F0E0CE
:10060000E054FE4F8083BDCF8091BF01803230F433
:10061000E091BF01F0E0E054FE4F10820E942902F9
:100620006091BF0170E0E0912402F091250280EC1E
:1006300091E009951092BF010E94330236C084E018
:1006400080932B021092E1011092E001E0912602CA
:10065000F091270209958091E001811105C081E0A8
:100660008093E0011092E201E091E10181E08E0FC0
:100670008093E101F0E0EE51FE4F80818093BB005A
:100680009091E1018091E001981708F47ACF85E814
:100690008093BC000AC085EC8093BC0010922B02B2
:1006A00004C01092BE010E942902FF91EF91BF91F8
:1006B000AF919F918F917F916F915F914F913F91FA
:1006C0002F910F900FBE0F901F901895DC01ED91A8
:1006D000FC910190F081E02D099461E085E00E9499
:1006E000250761E083E00E94250761E086E00E9423
:1006F000250761E089E00E94250726E040E855E2F1
:1007000060E070E087E492E00E9477088CE691E078
:100710000E941F0168E670E08CE691E00E944201B1
:100720006BE670E08CE691E00E94660360E070E0AA
:100730008CE691E00E94660361E08CE691E00E9405
:10074000440110922E0210922C0210922F0210924D
:100750002D020895CF92DF92EF92FF92CF93DF9315
:10076000CDB7DEB769017A0120E030E44CE955EC01
:10077000C701B6010E94E70B87FF06C086EE809393
:100780002C0280932E0204C010922C0210922E0292
:1007900020E030E44CE955E4C701B6010E94360D73
:1007A000181624F486EE80932D020CC010922D02B0
:1007B00020E030E44CE955E4C701B6010E94360D53
:1007C000181624F486EE80932F0202C010922F0296
:1007D000DF91CF91FF90EF90DF90CF9008951F931E
:1007E000CF93DF9300D0CDB7DEB7162F682F70E020
:1007F00083E02A8349830E949D06612F70E086E092
:100800000E949D064981642F70E089E00E949D0648
:100810002A81622F70E085E00F900F90DF91CF91D9
:100820001F910C949D064F925F926F927F92AF92B0
:10083000BF92CF92DF92EF92FF920F931F93CF93CD
:10084000DF93CDB7DEB728970FB6F894DEBF0FBEA3
:10085000CDBF68E670E08CE691E00E9442016BE358
:1008600070E08CE691E00E94660360E08CE691E027
:100870000E94440121E030E04EE050E068E670E084
:100880008CE691E00E9436018CE691E00E94900097
:10089000D82E8CE691E00E94900020E030E03D2DC3
:1008A000822B932B90933D0280933C028CE691E047
:1008B0000E949000D82E8CE691E00E94900020E0EB
:1008C00030E03D2D822B932B90933B0280933A0294
:1008D0008CE691E00E949000D82E8CE691E00E9478
:1008E000900020E030E03D2D822B932B9093390235
:1008F000809338028CE691E00E949000D82E8CE61E
:1009000091E00E94900020E030E03D2D822B932B5F
:1009100090933702809336028CE691E00E9490001B
:10092000D82E8CE691E00E94900020E030E03D2D32
:10093000822B932B90933502809334028CE691E0C6
:100940000E949000D82E8CE691E00E94900020E05A
:1009500030E03D2D822B932B909333028093320213
:100960008CE691E00E949000D82E8CE691E00E94E7
:10097000900020E030E03D2D822B932B90933102AC
:100980008093300260E171E087E492E00E94CC093C
:1009900060913C0270913D024AE050E087E492E0B1
:1009A0000E947C0A6BE171E087E492E00E94CC092E
:1009B00060913A0270913B024AE050E087E492E095
:1009C0000E947C0A65E271E087E492E00E94CC0913
:1009D00060913802709139024AE050E087E492E079
:1009E0000E947C0A6FE271E087E492E00E94CC09E9
:1009F00060913402709135024AE050E087E492E061
:100A00000E947C0A6BE171E087E492E00E94CC09CD
:100A100060913202709133024AE050E087E492E044
:100A20000E947C0A65E271E087E492E00E94CC09B2
:100A300060913002709131024AE050E087E492E028
:100A40000E947C0A6EE371E087E492E00E94CC0988
:100A50006091360270913702882777FD8095982F34
:100A60000E94860C20E030E04AEA53E40E94EB0B3F
:100A700028EB3EE142E152E40E94830BAB01BC0152
:100A800022E030E087E492E00E946F0B20912E027A
:100A900040912D0260912F0280912C020E94EF0361
:100AA0006091340270913502882777FD8095982FE8
:100AB0000E94860C5B016C016091380270913902D2
:100AC000882777FD8095982F0E94860C69837A830A
:100AD0008B839C8360913A0270913B02882777FD5B
:100AE0008095982F0E94860C9B01AC0160913C027E
:100AF00070913D02882777FD8095982F2D833E8346
:100B00004F8358870E94860C2B013C016091300274
:100B100070913102882777FD8095982F0E94860C6E
:100B20009F938F937F936F93609132027091330202
:100B3000882777FD8095982F0E94860C9F938F932E
:100B40007F936F93E980FA800B811C812D813E8118
:100B50004F815885C301B2010E94AA030FB6F894D1
:100B6000DEBF0FBECDBF61E070E080E090E0289670
:100B70000FB6F894DEBF0FBECDBFDF91CF911F91AE
:100B80000F91FF90EF90DF90CF90BF90AF907F904C
:100B90006F905F904F900C943A061F920F920FB691
:100BA0000F9211242F933F938F939F93AF93BF93F3
:100BB00080913F0290914002A0914102B091420287
:100BC00030913E0223E0230F2D3720F40196A11D22
:100BD000B11D05C026E8230F0296A11DB11D20936B
:100BE0003E0280933F0290934002A0934102B09353
:100BF00042028091430290914402A0914502B0913B
:100C000046020196A11DB11D8093430290934402B8
:100C1000A0934502B0934602BF91AF919F918F91EF
:100C20003F912F910F900FBE0F901F9018953FB7D7
:100C3000F8948091430290914402A0914502B091B2
:100C4000460226B5A89B05C02F3F19F00196A11DAD
:100C5000B11D3FBF6627782F892F9A2F620F711D14
:100C6000811D911D42E0660F771F881F991F4A95CD
:100C7000D1F70895CF92DF92EF92FF92CF93DF9357
:100C80006B017C010E941706EB01C114D104E10441
:100C9000F10489F00E94810B0E9417066C1B7D0BEA
:100CA000683E734090F381E0C81AD108E108F1086A
:100CB000C851DC4FEACFDF91CF91FF90EF90DF90EA
:100CC000CF900895789484B5826084BD84B58160A6
:100CD00084BD85B5826085BD85B5816085BDEEE644
:100CE000F0E0808181608083E1E8F0E01082808123
:100CF00082608083808181608083E0E8F0E0808191
:100D000081608083E1EBF0E0808184608083E0EBB0
:100D1000F0E0808181608083EAE7F0E08081846098
:100D200080838081826080838081816080838081F4
:100D3000806880831092C10008951F93CF93DF9342
:100D4000182FEB0161E00E942507209711F460E065
:100D500004C0CF3FD10539F461E0812FDF91CF91FD
:100D60001F910C945E07E12FF0E0E859FF4FE491EA
:100D7000E330F9F048F4E130B9F0E230A1F584B5A0
:100D8000806284BDC8BD34C0E730E9F0E83019F1B5
:100D9000E43049F580918000806280938000D09398
:100DA0008B00C0938A0024C084B5806884BDC7BD11
:100DB0001FC080918000806880938000D09389005C
:100DC000C093880015C08091B00080688093B00007
:100DD000C093B3000DC08091B00080628093B000DA
:100DE000C093B40005C0C038D1050CF0B5CFAFCF6B
:100DF000DF91CF911F910895833081F028F48130E5
:100E000099F08230A1F008958730A9F08830B9F0C8
:100E10008430D1F4809180008F7D03C08091800068
:100E20008F7780938000089584B58F7702C084B552
:100E30008F7D84BD08958091B0008F7703C080912D
:100E4000B0008F7D8093B0000895CF93DF9390E042
:100E5000FC01E458FF4F2491FC01E057FF4F8491BF
:100E6000882349F190E0880F991FFC01E255FF4F5C
:100E7000A591B4918C559F4FFC01C591D4919FB71A
:100E8000611108C0F8948C91209582238C938881FD
:100E900082230AC0623051F4F8948C91322F30953D
:100EA00083238C938881822B888304C0F8948C914F
:100EB000822B8C939FBFDF91CF9108950F931F9347
:100EC000CF93DF931F92CDB7DEB7282F30E0F90123
:100ED000E859FF4F8491F901E458FF4F1491F9014B
:100EE000E057FF4F04910023C9F0882321F0698364
:100EF0000E94FC066981E02FF0E0EE0FFF1FEC5529
:100F0000FF4FA591B4919FB7F8948C91611103C0E4
:100F10001095812301C0812B8C939FBF0F90DF918F
:100F2000CF911F910F910895FC01818D228D90E04A
:100F3000805C9F4F821B91098F7399270895FC0154
:100F4000918D828D981731F0828DE80FF11D858D7E
:100F500090E008958FEF9FEF0895FC01918D828DB1
:100F6000981761F0828DDF01A80FB11D5D968C91FD
:100F7000928D9F5F9F73928F90E008958FEF9FEF08
:100F8000089581E399E0892B49F080E090E0892B76
:100F900029F00E94310981110C9400000895FC0190
:100FA000848DDF01A80FB11DA35ABF4F2C91848DF2
:100FB00090E001968F739927848FA689B7892C9327
:100FC000A089B1898C9180648C93938D848D9813C2
:100FD00006C00288F389E02D80818F7D808308958B
:100FE000CF93DF93EC01888D8823C9F0EA89FB89D0
:100FF000808185FD05C0A889B9898C9186FD0FC0C7
:101000000FB607FCF5CF808185FFF2CFA889B9899B
:101010008C9185FFEDCFCE010E94CF07E7CFDF9106
:10102000CF910895CF92DF92FF920F931F93CF93AA
:10103000DF931F92CDB7DEB76C0181E0D6015896E1
:101040008C9358975B969C915B975C968C915C9780
:10105000981307C05096ED91FC915197808185FDC2
:101060002EC0F601038D10E00F5F1F4F0F73112785
:10107000F02EF601848DF81211C00FB607FCF9CFDF
:10108000D6015096ED91FC915197808185FFF1CF6B
:10109000C60169830E94CF076981EBCF838DE80F7A
:1010A000F11DE35AFF4F6083D6015B960C935B976B
:1010B0005296ED91FC915397808180620CC0D601CD
:1010C0005696ED91FC91579760835096ED91FC9167
:1010D000519780818064808381E090E00F90DF9160
:1010E000CF911F910F91FF90DF90CF900895BF9205
:1010F000CF92DF92EF92FF92CF93DF93EC016A01E0
:101100007B01B22EE889F98982E08083411581EE66
:10111000580761057105A1F060E079E08DE390E08A
:10112000A70196010E94A10D2150310941095109E1
:101130005695479537952795211580E1380798F002
:10114000E889F989108260E874E88EE190E0A701EF
:1011500096010E94A10D215031094109510956956E
:10116000479537952795EC85FD853083EE85FF857E
:101170002083188EEC89FD89B082EA89FB89808101
:1011800080618083EA89FB89808188608083EA8925
:10119000FB89808180688083EA89FB8980818F7DDB
:1011A0008083DF91CF91FF90EF90DF90CF90BF9041
:1011B00008951F920F920FB60F9211242F938F93C1
:1011C0009F93EF93FF93E0915702F0915802808133
:1011D000E0915D02F0915E0282FD12C090818091EB
:1011E00060028F5F8F7320916102821751F0E0914E
:1011F0006002F0E0E95BFD4F958F8093600201C0D3
:101200008081FF91EF919F918F912F910F900FBE51
:101210000F901F9018951F920F920FB60F921124E6
:101220002F933F934F935F936F937F938F939F93EE
:10123000AF93BF93EF93FF9387E492E00E94CF07B1
:10124000FF91EF91BF91AF919F918F917F916F919E
:101250005F914F913F912F910F900FBE0F901F9074
:10126000189587E492E00E94940721E0892B09F405
:1012700020E0822F089510924A021092490288EECF
:1012800093E0A0E0B0E080934B0290934C02A093D7
:101290004D02B0934E028FE491E090934802809308
:1012A000470285EC90E0909354028093530284ECC3
:1012B00090E0909356028093550280EC90E09093DA
:1012C00058028093570281EC90E090935A028093E9
:1012D000590282EC90E090935C0280935B0286EC72
:1012E00090E090935E0280935D02109260021092F3
:1012F00061021092620210926302089508950E94A2
:1013000062060E947E090E946D03C1ECD7E00E9434
:1013100013042097E1F30E94C107F9CFCF92DF9227
:10132000EF92FF920F931F93CF93DF936C017A019B
:10133000EB01E60EF71E00E010E0CE15DF0561F0D0
:101340006991D601ED91FC910190F081E02DC601EB
:101350000995080F191FF1CFC801DF91CF911F9197
:101360000F91FF90EF90DF90CF9008956115710578
:1013700081F0DB010D900020E9F7AD0141505109EA
:10138000461B570BDC01ED91FC910280F381E02DAF
:10139000099480E090E008950C94B609DC01ED9189
:1013A000FC910190F081E02D09946BE571E00C94C3
:1013B000B6098F929F92AF92BF92CF92DF92EF9237
:1013C000FF920F931F93CF93DF93CDB7DEB7A19713
:1013D0000FB6F894DEBF0FBECDBF7C01C42EE52F43
:1013E000CB01D22E19A221E02D1510F02AE0D22E29
:1013F0008E010F5D1F4F8D2C912CA12CB12C6C2DCB
:101400007E2FA50194010E94A10D8C2DD29E8019E2
:101410001124015011098A3014F4805D01C0895CE7
:10142000F8018083211531054105510521F0C22EB7
:10143000E32FCA01E4CFB801C7010E94B609A19603
:101440000FB6F894DEBF0FBECDBFDF91CF911F91D5
:101450000F91FF90EF90DF90CF90BF90AF909F9053
:101460008F900895CF92DF92EF92FF920F931F9388
:10147000CF93DF93EC016A017B012115310579F4EB
:10148000E881F9810190F081E02D642FDF91CF9107
:101490001F910F91FF90EF90DF90CF9009942A3029
:1014A0003105E9F477FF1AC06DE20E94CE098C0184
:1014B00044275527BA014C195D096E097F092AE0B6
:1014C000CE010E94D909800F911FDF91CF911F910A
:1014D0000F91FF90EF90DF90CF9008952AE0B70131
:1014E000A601CE01DF91CF911F910F91FF90EF9058
:1014F000DF90CF900C94D9099A01AB01662757FD74
:101500006095762F0C94320A4F925F926F927F9281
:101510008F929F92AF92BF92CF92DF92EF92FF9203
:101520000F931F93CF93DF93EC016A017B01B22EDF
:101530009A01AB01C701B6010E949D0D882319F0E5
:101540006EE571E027C026013701E89477F82FEFA8
:101550003FEF4FE75FE7C301B2010E949D0D81118C
:101560000DC02FEF3FEF4FE75FE7C301B2010E94CD
:10157000E70B18161CF462E671E00CC02FEF3FEF8A
:101580004FE75FE4C701B6010E94360D1816ACF4B0
:1015900066E671E0CE01DF91CF911F910F91FF9030
:1015A000EF90DF90CF90BF90AF909F908F907F9003
:1015B0006F905F904F900C94B6092FEF3FEF4FE77D
:1015C0005FECC701B6010E94E70B87FDE1CF20E089
:1015D00030E0A901C701B6010E94E70B87FF0AC0EE
:1015E0006DE2CE010E94CE098C01F7FAF094F7F873
:1015F000F09402C000E010E0A12C60E070E080E018
:101600009FE3AB1441F020E030E040E251E40E945F
:10161000EB0BA394F6CF9B01AC01C701B6010E946E
:10162000830B6B017C010E94580C2B013C010E9432
:10163000840C9B01AC01C701B6010E94820B6B01B7
:101640007C012AE0B301A201CE010E94D909080F52
:10165000191FBB2039F06AE671E0CE010E94B6097D
:10166000080F191F7B2C772041F120E030E040E289
:1016700051E4C701B6010E943A0D6B017C010E9442
:10168000530C4B01AA2497FCA094BA2C2AE030E01A
:10169000B501A401CE010E94320A080F191FC5012D
:1016A000B4010E94860C9B01AC01C701B6010E94E7
:1016B000820B6B017C017A94D6CFC801DF91CF9168
:1016C0001F910F91FF90EF90DF90CF90BF90AF9060
:1016D0009F908F907F906F905F904F9008950F93A1
:1016E0001F93CF93DF93EC010E94840A8C01CE01FB
:1016F0000E94D509800F911FDF91CF911F910F910B
:10170000089508955058BB27AA270ED075C166D1F9
:1017100030F06BD120F031F49F3F11F41EF45BC127
:101720000EF4E095E7FB51C1E92F77D180F3BA17AA
:10173000620773078407950718F071F49EF58FC14F
:101740000EF4E0950B2EBA2FA02D0B01B9019001DC
:101750000C01CA01A0011124FF27591B99F0593F20
:1017600050F4503E68F11A16F040A22F232F342F68
:101770004427585FF3CF469537952795A795F040B6
:101780005395C9F77EF41F16BA0B620B730B840BCB
:10179000BAF09150A1F0FF0FBB1F661F771F881F83
:1017A000C2F70EC0BA0F621F731F841F48F48795DB
:1017B00077956795B795F7959E3F08F0B3CF9395CA
:1017C000880F08F09927EE0F979587950895D9D03F
:1017D00008F481E008950CD00FC107D140F0FED08D
:1017E00030F021F45F3F19F0F0C0511139C1F3C05E
:1017F00014D198F39923C9F35523B1F3951B550BD5
:10180000BB27AA2762177307840738F09F5F5F4FD3
:10181000220F331F441FAA1FA9F333D00E2E3AF014
:10182000E0E830D091505040E695001CCAF729D02E
:10183000FE2F27D0660F771F881FBB1F261737077D
:101840004807AB07B0E809F0BB0B802DBF01FF27AD
:1018500093585F4F2AF09E3F510568F0B6C000C113
:101860005F3FECF3983EDCF3869577956795B795E7
:10187000F7959F5FC9F7880F911D9695879597F902
:101880000895E1E0660F771F881FBB1F621773077B
:101890008407BA0720F0621B730B840BBA0BEE1F90
:1018A00088F7E095089504D06894B111D9C00895DF
:1018B000BCD088F09F5790F0B92F9927B751A0F06E
:1018C000D1F0660F771F881F991F1AF0BA95C9F7D4
:1018D00012C0B13081F0C3D0B1E00895C0C0672F0D
:1018E000782F8827B85F39F0B93FCCF38695779584
:1018F0006795B395D9F73EF490958095709561956D
:101900007F4F8F4F9F4F0895E89409C097FB3EF497
:1019100090958095709561957F4F8F4F9F4F99233C
:10192000A9F0F92F96E9BB279395F69587957795BA
:101930006795B795F111F8CFFAF4BB0F11F460FF7A
:101940001BC06F5F7F4F8F4F9F4F16C0882311F0D2
:1019500096E911C0772321F09EE8872F762F05C0E6
:10196000662371F096E8862F70E060E02AF09A9581
:10197000660F771F881FDAF7880F9695879597F976
:101980000895990F0008550FAA0BE0E8FEEF161610
:101990001706E807F907C0F012161306E407F50763
:1019A00098F0621B730B840B950B39F40A2661F0D7
:1019B000232B242B252B21F408950A2609F4A1407A
:1019C000A6958FEF811D811D089597F99F6780E887
:1019D00070E060E008959FEF80EC089500240A9481
:1019E0001616170618060906089500240A941216FA
:1019F0001306140605060895092E0394000C11F42D
:101A0000882352F0BB0F40F4BF2B11F460FF04C0D9
:101A10006F5F7F4F8F4F9F4F089557FD9058440F32
:101A2000551F59F05F3F71F04795880F97FB991F3D
:101A300061F09F3F79F087950895121613061406FA
:101A4000551FF2CF4695F1DF08C016161706180687
:101A5000991FF1CF86957105610508940895E89462
:101A6000BB2766277727CB0197F908958ADF08F40B
:101A70008FEF08950BD0C0CFB1DF28F0B6DF18F09C
:101A8000952309F0A2CFA7CF1124EACFC6DFA0F398
:101A9000959FD1F3950F50E0551F629FF001729F03
:101AA000BB27F00DB11D639FAA27F00DB11DAA1F22
:101AB000649F6627B00DA11D661F829F2227B00D6F
:101AC000A11D621F739FB00DA11D621F839FA00DFA
:101AD000611D221F749F3327A00D611D231F849F4A
:101AE000600D211D822F762F6A2F11249F575040A1
:101AF0008AF0E1F088234AF0EE0FFF1FBB1F661F3C
:101B0000771F881F91505040A9F79E3F510570F0F4
:101B10005CCFA6CF5F3FECF3983EDCF386957795DC
:101B20006795B795F795E7959F5FC1F7FE2B880FEF
:101B3000911D9695879597F9089523DF880B990B4A
:101B40000895A1E21A2EAA1BBB1BFD010DC0AA1FFE
:101B5000BB1FEE1FFF1FA217B307E407F50720F016
:101B6000A21BB30BE40BF50B661F771F881F991F91
:101B70001A9469F760957095809590959B01AC01DA
:101B8000BD01CF010895EE0FFF1F0590F491E02DE8
:061B90000994F894FFCF58
:101B960000000000E000B30088009000A300B2003F
:101BA6004163656C2E2058203D20002020207C209B
:101BB60059203D20002020207C205A203D20002056
:101BC60020207C204769722E2058203D20002020AE
:101BD600207C2054656D70203D200000000000121E
:101BE600088E099407AD079F07F0070D0A006E617E
:0C1BF6006E00696E66006F7666002E00BF
:00000001FF
