S013000041726475696E6F4E616E6F2E73726563B3
S11300000C945F000C94F4040C9421050C94870068
S11300100C9487000C9487000C9487000C9498042B
S11300200C9487000C9487000C9487000C94870030
S11300300C9487000C9487000C9487000C94870020
S11300400C944E050C9487000C9499020C94D102E4
S11300500C9487000C9487000C9487000C94870000
S11300600C9487000C948700020000000800020131
S11300700000030407000000000000000001020467
S11300800810204080010204081020010204081016
S1130090200404040404040404020202020202030D
S11300A0030303030300000000250028002B0000C5
S11300B0000000240027002A00000103710311241A
S11300C01FBECFEFD8E0DEBFCDBF11E0A0E0B1E0AE
S11300D0E4E6FEE002C005900D92A636B107D9F71A
S11300E022E0A6E6B1E001C01D92AD31B207E1F70E
S11300F010E0CFE5D0E004C02197FE010E942A075A
S1130100CD35D107C9F70E947D030C9430070C94B8
S1130110000026E040E855E260E070E086E691E009
S11301200E94300269E471E086E691E00E94B9031E
S113013061E08DE00E94540661E082E00E94540672
S113014061E083E00E94540661E084E00E9454066A
S113015061E085E00E94540661E086E00E94540656
S113016061E087E00E9454060895CF93DF93D82F6F
S1130170C62F60E084E00E94930660E087E00E945E
S113018093062D2F41E063E082E00E94C4062C2FE9
S113019041E066E085E00E94C40661E084E00E94DC
S11301A0930661E087E00E949306DF91CF91089562
S11301B04F925F926F927F929F92AF92BF92CF9233
S11301C0DF92EF92FF920F931F93CF93DF93CDB7FC
S11301D0DEB728970FB6F894DEBF0FBECDBF88E018
S11301E0E1E4F1E0DE01119601900D928A95E1F7C8
S11301F0CE0101966C010F2EF0E0EF2EF1E0FF2E00
S1130200F02D0F2EF0E4AF2EF1E0BF2EF02D912C47
S113021000E0412C512C32014394F60181916F018D
S1130220F701292D302F4191413061F4B301A2012E
S1130230022E04C0440F551F661F771F0A94D2F77D
S1130240142B0CC0B301A201022E04C0440F551F8D
S1130250661F771F0A94D2F7409514232F5F3F4FF0
S11302602830310501F7612F0E94B500C301B201A6
S11302700E94BE05F8E0EF0EF11CEA14FB0469F6D7
S113028028960FB6F894DEBF0FBECDBFDF91CF9195
S11302901F910F91FF90EF90DF90CF90BF90AF90A0
S11302A09F907F906F905F904F9008950E94D80028
S11302B00895FC01918D228D892F90E0805C9F4FE1
S11302C0821B91098F7399270895FC01918D828D6A
S11302D0981731F0828DE80FF11D858D90E0089517
S11302E08FEF9FEF0895FC01918D828D981761F037
S11302F0828DDF01A80FB11D5D968C91928D9F5F59
S11303009F73928F90E008958FEF9FEF089587EF8A
S113031092E0892B49F080E090E0892B29F00E943B
S1130320F70281110E9400000895FC01848DDF0111
S1130330A80FB11DA35ABF4F8C91248D30E02F5FBD
S11303403F4F2F733078332334F421503109206C1C
S11303503F6F2F5F3F4F248FA689B7898C93A08965
S1130360B1898C9180648C93938D848D981306C08D
S11303700288F389E02D80818F7D80830895CF9357
S1130380DF93EC01888D81110FC018C00FB607FCF4
S11303900DC0908195FF0AC0A889B9898C9185FF09
S11303A005C0CE010E949501EA89FB89908195FDE3
S11303B0EDCFA889B9898C9186FFE8CFDF91CF91E1
S11303C008950F931F93CF93DF93FC0181E0808FF7
S11303D0938D848D981322C0A089B1898C9185FD59
S11303E02FC01CC00FB607FC08C0E889F9898081BA
S11303F085FF03C0CE010E9495019C8D091791F3DE
S11304008B8DFE01E80FF11DE35AFF4F10830B8F14
S1130410EA89FB898081806280831BC0238D30E060
S11304202F5F3F4F2F733078332334F42150310939
S1130430206C3F6F2F5F3F4F162FEF01022FDDCF50
S1130440A689B7896C930088F189E02D8081806446
S1130450808381E090E0DF91CF911F910F91089507
S1130460BF92CF92DF92EF92FF920F931F93CF939D
S1130470DF93EC016A017B01B22EE889F98982E0FD
S113048080834115514E61057105B1F060E079E05A
S11304908DE390E0A70196010E94080789019A0163
S11304A001501109210931093695279517950795AA
S11304B0011580E11807A8F0E889F989108260E83D
S11304C074E88EE190E0A70196010E940807DA0122
S11304D0C9010197A109B109B695A7959795879583
S11304E08C01EC85FD851083EE85FF850083188ED5
S11304F0EC89FD89B082EA89FB89808180618083EF
S1130500EA89FB89808188608083EA89FB8980810C
S113051080688083EA89FB8980818F7D8083DF9175
S1130520CF911F910F91FF90EF90DF90CF90BF90EC
S113053008951F920F920FB60F9211242F938F9349
S11305409F93AF93BF93EF93FF93E0917601F09164
S11305507701808182FD14C0E6E6F1E0A689B789BF
S11305602C91818D8F5F8F73928D891771F0DF01CC
S1130570E18DF0E0EA59FE4F258F59968C9305C022
S1130580E0917C01F0917D018081FF91EF91BF9119
S1130590AF919F918F912F910F900FBE0F901F904D
S11305A018951F920F920FB60F9211242F933F9319
S11305B04F935F936F937F938F939F93AF93BF9367
S11305C0EF93FF9386E691E00E949501FF91EF91EE
S11305D0BF91AF919F918F917F916F915F914F9157
S11305E03F912F910F900FBE0F901F90189586E6A4
S11305F091E00E94590121E0892B09F420E0822F27
S11306000895E6E6F1E01382128288EE93E0A0E01A
S1130610B0E084839583A683B78384E591E09183D6
S1130620808385EC90E09587848784EC90E09787BD
S1130630868780EC90E0918B808B81EC90E0938BAB
S1130640828B82EC90E0958B848B86EC90E0978B88
S1130650868B118E128E138E148E089508958F92A8
S11306609F92AF92BF92CF92DF92EF92FF920F933D
S11306701F93CF93DF935C017B014C0182E0880ED2
S1130680911C6501E5E0CE0ED11C00E010E0F40100
S113069061914F014AE050E0C7010E945904EC0106
S11306A06EE2C7010E94CF038C0F9D1F080F191F14
S11306B08C149D0461F74AE050E0F5016581C7019F
S11306C00E945904800F911FDF91CF911F910F91C8
S11306D0FF90EF90DF90CF90BF90AF909F908F905E
S11306E00895E3E0F2E084E691E09183808312824E
S11306F0138214821582089508950E94EA050E94C7
S11307007C030E948900C7E8D1E00E94560120972B
S1130710E1F30E948701F9CFCF92DF92EF92FF922B
S11307200F931F93CF93DF9341155105B1F08C01C3
S1130730E62EF72EEA01C12CD12CD7016D917D0153
S1130740D801ED91FC910190F081E02DC80109954B
S1130750C80ED91E219789F702C0C12CD12CC6011D
S1130760DF91CF911F910F91FF90EF90DF90CF9089
S113077008956115710581F0FB0101900020E9F7EE
S11307803197AF01461B570BDC01ED91FC910280C0
S1130790F381E02D0995089580E090E00895DC014F
S11307A0ED91FC910190F081E02D099508954F920F
S11307B05F926F927F929F92AF92BF92CF92DF929D
S11307C0EF92FF920F931F93CF93DF93CDB7DEB7D2
S11307D0A1970FB6F894DEBF0FBECDBF5C016A01CE
S11307E07B01922E19A281E0821720F00F2EFAE0ED
S11307F09F2EF02D8E010F5D1F4F492C512C612C23
S1130800712CC701B601A30192010E9408078C2D27
S1130810929E80191124015011098A3010F4805DD0
S113082001C0895CD8018C93C22ED32EE42EF52E00
S1130830C114D104E104F10421F70115110591F06B
S1130840F80101900020E9F73197AF01401B510BEB
S1130850D501ED91FC910280F381E02DB801C50131
S1130860099502C080E090E0A1960FB6F894DEBF2F
S11308700FBECDBFDF91CF911F910F91FF90EF90ED
S1130880DF90CF90BF90AF909F907F906F905F90DC
S11308904F9008952115310549F4DC01ED91FC9147
S11308A00190F081E02D642F099508950E94D703EB
S11308B008959A01462F50E060E070E00E944A04D7
S11308C00895813039F018F0823051F00895109273
S11308D06E000895EFE6F0E080818D7F80830895B7
S11308E0E0E7F0E080818D7F808381E08093B00039
S11308F0E1EBF0E08081887F846080831092B30014
S11309000895CF93C82F809140018C1308C0E8E666
S1130910F0E0E4918E2F9FEF9093400101C08FEFA0
S11309200E94610460E08C2F0E949306CF91089589
S11309301F920F920FB60F9211242F933F934F9350
S11309405F936F937F938F939F93AF93BF93EF9333
S1130950FF9380910C0290910D02A0910E02B09130
S11309600F02892B8A2B8B2B51F180910902E09184
S11309700A02F0910B0290818927808380910C02F6
S113098090910D02A0910E02B0910F021816190653
S11309901A061B06C4F480910C0290910D02A091DA
S11309A00E02B0910F020197A109B10980930C02C4
S11309B090930D02A0930E02B0930F0204C0809195
S11309C040010E948104FF91EF91BF91AF919F91EB
S11309D08F917F916F915F914F913F912F910F90E4
S11309E00FBE0F901F9018951F920F920FB60F9283
S11309F011242F933F934F935F936F937F938F9320
S1130A009F93AF93BF93EF93FF93809110029091C4
S1130A101102892B29F0E0911002F091110209953D
S1130A20FF91EF91BF91AF919F918F917F916F91C2
S1130A305F914F913F912F910F900FBE0F901F9098
S1130A4018951F920F920FB60F9211242F933F9374
S1130A504F935F936F937F938F939F93AF93BF93C2
S1130A60EF93FF938091120290911302892B29F046
S1130A70E0911202F09113020995FF91EF91BF9159
S1130A80AF919F918F917F916F915F914F913F9122
S1130A902F910F900FBE0F901F9018951F920F92D9
S1130AA00FB60F9211242F933F938F939F93AF937D
S1130AB0BF938091150290911602A0911702B091F4
S1130AC018023091140223E0230F2D3720F40196ED
S1130AD0A11DB11D05C026E8230F0296A11DB11D5D
S1130AE0209314028093150290931602A093170288
S1130AF0B09318028091190290911A02A0911B02DE
S1130B00B0911C020196A11DB11D8093190290930E
S1130B101A02A0931B02B0931C02BF91AF919F9144
S1130B208F913F912F910F900FBE0F901F901895AA
S1130B303FB7F8948091190290911A02A0911B0278
S1130B40B0911C0226B5A89B05C02F3F19F0019651
S1130B50A11DB11D3FBFBA2FA92F982F8827820F3F
S1130B60911DA11DB11DBC01CD01660F771F881F0A
S1130B70991F660F771F881F991F0895CF92DF92E0
S1130B80EF92FF92CF93DF936B017C010E94980553
S1130B90EB01C114D104E104F104A9F00E942E0375
S1130BA00E9498056C1B7D0B683E734038F081E011
S1130BB0C81AD108E108F108C851DC4FC114D104A6
S1130BC0E104F10459F7DF91CF91FF90EF90DF90AA
S1130BD0CF900895789484B5826084BD84B5816093
S1130BE084BD85B5826085BD85B5816085BDEEE631
S1130BF0F0E0808181608083E1E8F0E01082808110
S1130C0082608083808181608083E0E8F0E080817D
S1130C1081608083E1EBF0E0808184608083E0EB9D
S1130C20F0E0808181608083EAE7F0E08081846085
S1130C3080838081826080838081816080838081E1
S1130C40806880831092C1000895833069F028F48D
S1130C508130B1F08230C1F008958730C9F0883016
S1130C60E9F0843001F506C0E0E8F0E080818F7798
S1130C7080830895E0E8F0E080818F7D808308958B
S1130C8084B58F7784BD089584B58F7D84BD089520
S1130C90E0EBF0E080818F7780830895E0EBF0E073
S1130CA080818F7D80830895CF93DF9390E0FC0152
S1130CB0E358FF4F2491FC01EF56FF4F84918823A2
S1130CC079F190E0880F991FFC01E155FF4FA59140
S1130CD0B491FC01EB55FF4FC591D49161110CC047
S1130CE09FB7F8948C91E22FE0958E238C93288102
S1130CF0E223E8839FBF14C0623061F49FB7F89485
S1130D003C91822F809583238C93E881E22BE883A6
S1130D109FBF06C08FB7F894EC91E22BEC938FBF82
S1130D20DF91CF9108951F93CF93DF93282F30E065
S1130D30F901E759FF4F8491F901E358FF4F1491EA
S1130D40F901EF56FF4FC491CC23D1F0D62F811176
S1130D500E942506EC2FF0E0EE0FFF1FEB55FF4F2E
S1130D60A591B4918FB7F894D11106C09C91E12F4D
S1130D70E095E923EC9303C0EC91E12BEC938FBF56
S1130D80DF91CF911F910895BF92CF92DF92EF929E
S1130D90FF920F931F93CF93DF93B82E162F042F38
S1130DA0C7E0D0E0E22EF12C0F2EF7E0CF2ED12CAD
S1130DB0F02D01110EC0C6018C1B9D0BB70102C0A2
S1130DC0759567958A95E2F761708B2D0E9493065D
S1130DD00BC0B7010C2E02C0759567950A94E2F713
S1130DE061708B2D0E94930661E0812F0E9493060F
S1130DF060E0812F0E9493062197D8F6DF91CF916E
S1130E001F910F91FF90EF90DF90CF90BF900895C6
S1130E10A1E21A2EAA1BBB1BFD010DC0AA1FBB1FFA
S1130E20EE1FFF1FA217B307E407F50720F0A21B6C
S1130E30B30BE40BF50B661F771F881F991F1A94D9
S1130E4069F760957095809590959B01AC01BD0103
S1130E50CF010895EE0FFF1F0590F491E02D099442
S1070E60F894FFCF30
S1130E640001010100000000010000000100000075
S1130E740100000001000000010000000100000066
S1130E840101010101000000010000000100000053
S1130E940100000001000000010000000100000046
S1130EA4FF7FBFDFEFF7FBFDFE496E6963696F00E7
S1130EB400000000E1018C03590173016501BF01C5
S1090EC4000000002F03F2
S9030000FC
