:1000000007C1000033C1000031C100002FC1000052
:100010002DC100002BC1000029C1000027C1000034
:1000200025C1000023C1000021C100001FC1000044
:100030001DC100001BC1000019C1000017C1000054
:1000400015C1000013C1000011C100000FC1000064
:100050000DC100000BC1000009C10000C9C30000B0
:1000600005C100008FC3000064C30000FFC0000092
:10007000FDC00000FBC00000F9C00000F7C0000098
:10008000F5C00000F3C00000F1C00000EFC00000A8
:10009000EDC00000EBC00000E9C00000E7C00000B8
:1000A000E5C00000E3C00000E1C00000DFC00000C8
:1000B000DDC00000DBC00000D9C00000D7C00000D8
:1000C000D5C00000D3C00000D1C00000CFC00000E8
:1000D000CDC00000CBC00000C9C00000C7C00000F8
:1000E000C5C0000062016501540158015C019C011A
:1000F00069016D01730177017B018101850189012E
:100100009C018F019301970100002100240027002A
:100110002A002D0030003300010100000401070116
:100120000A0100002200250028002B002E003100CB
:10013000340002010000050108010B010505050559
:10014000070508080808020202020A0A080804044F
:10015000040401010101010101010303030303037D
:100160000303040707070C0C0C0C0C0C0C0C02020C
:10017000020206060606060606060B0B0B0B0B0B09
:100180000B0B010210202008081020401020408096
:10019000020102010804020101020408102040804B
:1001A00080402010080402018004020180402010D9
:1001B0000804020108040201010204081020408022
:1001C000010204081020408000000A0B02090C0DF7
:1001D0000E080703040100000000000000000000FA
:1001E000000000000000000000000000000000000F
:1001F00000000000121110000000000000000000CC
:1002000000000000000000000000000000004204A8
:1002100011241FBECFEFD1E2DEBFCDBF00E00CBF87
:1002200012E0A0E0B2E0ECE7FDE000E00BBF02C0AE
:1002300007900D92A633B107D9F723E0A6E3B2E009
:1002400001C01D92AC32B207E1F711E0C8E0D1E085
:1002500000E005C021970109802FFE015FD5C7305E
:10026000D10780E00807B1F74CD386C5C9CECF933C
:10027000C82FE5EDF1E04491EFE8F1E02491E9E4E5
:10028000F1E09491992309F46AC0442309F454C01D
:1002900050E0FA013197E231F10508F04DC08827AE
:1002A000EE58FF4F8F4F3AC5809180008F7707C07F
:1002B000809180008F7D03C080918000877F809334
:1002C00080003AC084B58F7702C084B58F7D84BD2D
:1002D00033C08091B0008F7703C08091B0008F7DD4
:1002E0008093B00029C0809190008F7707C08091E3
:1002F00090008F7D03C080919000877F8093900055
:100300001BC08091A0008F7707C08091A0008F7DD7
:1003100003C08091A000877F8093A0000DC0309122
:1003200020013F7707C0309120013F7D03C030910D
:100330002001377F30932001E92FF0E0EE0FFF1FFF
:10034000EE5DFE4FA591B4918FB7F894EC91C11179
:1003500003C020952E2301C02E2B2C938FBFCF914D
:100360000895CF92DF92EF92FF920F931F93CF9356
:10037000DF936C017A018B01C0E0D0E0CE15DF0580
:1003800089F0D8016D918D01D601ED91FC9101901C
:10039000F081E02DC6011995892B11F47E0102C070
:1003A0002196ECCFC701DF91CF911F910F91FF9064
:1003B000EF90DF90CF900895FC01918D828D98177A
:1003C00061F0828DDF01A80FB11D5D968C91928D39
:1003D0009F5F9F73928F90E008958FEF9FEF089536
:1003E000FC01918D828D981731F0828DE80FF11DFF
:1003F000858D90E008958FEF9FEF0895FC01918D1A
:10040000228D892F90E0805C9F4F821B91098F7312
:100410009927089587E492E0F1DF21E0892B09F420
:1004200020E0822F0895FC01848DDF01A80FB11D0B
:10043000A35ABF4F2C91848D90E001968F7399271A
:10044000848FA689B7892C93A089B1898C91806407
:100450008C93938D848D981306C00288F389E02DC8
:1004600080818F7D80830895EF92FF920F931F9379
:10047000CF93DF93EC0181E0888F9B8D8C8D981357
:1004800005C0E889F989808185FD23C0F62E0B8D92
:1004900010E00F5F1F4F0F731127E02E8C8DE812B5
:1004A0000BC00FB607FCFACFE889F989808185FF78
:1004B000F5CFCE01B8DFF2CF8B8DFE01E80FF11D35
:1004C000E35AFF4FF0820B8FEA89FB8980818062BB
:1004D00007C0EE89FF896083E889F989808180649B
:1004E000808381E090E0DF91CF911F910F91FF9089
:1004F000EF900895CF93DF93EC01888D8823C1F0AE
:10050000EA89FB89808185FD05C0A889B9898C911C
:1005100086FD0EC00FB607FCF5CF808185FFF2CFB8
:10052000A889B9898C9185FFEDCFCE017CDFE8CF1A
:10053000DF91CF91089580E090E0892B19F06ADF78
:10054000811125C080E090E0892B41F080E090E0AF
:10055000892B21F00E94000081111CC080E090E0F6
:10056000892B41F080E090E0892B21F00E9400006F
:10057000811113C080E090E0892BA1F080E090E031
:10058000892B81F00E94000081110AC008950E9409
:100590000000D8CF0E940000E1CF0E940000EACF07
:1005A0000C94000008953FB7F89480913B0290911D
:1005B0003C02A0913D02B0913E0226B5A89B05C029
:1005C0002F3F19F00196A11DB11D3FBFBA2FA92FD2
:1005D000982F8827820F911DA11DB11DBC01CD014F
:1005E00042E0660F771F881F991F4A95D1F708953B
:1005F0008F929F92AF92BF92CF92DF92EF92FF9233
:100600006B017C01D0DF4B015C01C114D104E1041A
:10061000F104E9F0C8DFDC01CB0188199909AA09C6
:10062000BB09883E9340A105B10578F321E0C21AC9
:10063000D108E108F10888EE880E83E0981EA11C1D
:10064000B11CC114D104E104F10421F7DECFFF9005
:10065000EF90DF90CF90BF90AF909F908F900895D4
:100660002FB7F89460913702709138028091390267
:1006700090913A022FBF089559D36115710579F011
:10068000FB0101900020E9F73197AF01461B570BA2
:10069000DC01ED91FC910280F381E02D199480E062
:1006A00090E008954F925F926F927F92EF92FF9247
:1006B0000F931F93CF93DF93CDB7DEB7A1970FB6FC
:1006C000F894DEBF0FBECDBF7C01FA01CB0119A2A9
:1006D000223008F42AE08E010F5D1F4F422E512C6C
:1006E000612C712CBF01A301920124D3F901CA012D
:1006F000015011096A3014F4605D01C0695CD801D1
:100700006C93232B242B252B69F7B801C701B5DF88
:10071000A1960FB6F894DEBF0FBECDBFDF91CF918B
:100720001F910F91FF90EF907F906F905F904F908F
:1007300008951F920F920FB60F9211240BB60F92CD
:100740002F933F934F935F936F937F938F939F93D9
:10075000AF93BF93EF93FF9387E492E064DEFF9142
:10076000EF91BF91AF919F918F917F916F915F9129
:100770004F913F912F910F900BBE0F900FBE0F9096
:100780001F9018951F920F920FB60F9211240BB65F
:100790000F922F938F939F93EF93FF93E0915702C4
:1007A000F09158028081E0915D02F0915E0282FD3D
:1007B00012C09081809160028F5F8F7320916102DF
:1007C000821751F0E0916002F0E0E95BFD4F958FF8
:1007D0008093600201C08081FF91EF919F918F9182
:1007E0002F910F900BBE0F900FBE0F901F9018957A
:1007F0001F920F920FB60F9211242F933F938F9356
:100800009F93AF93BF938091370290913802A0914C
:100810003902B0913A023091360223E0230F2D378E
:1008200020F40196A11DB11D05C026E8230F0296F4
:10083000A11DB11D20933602809337029093380298
:10084000A0933902B0933A0280913B0290913C020E
:10085000A0913D02B0913E020196A11DB11D809371
:100860003B0290933C02A0933D02B0933E02BF91A5
:10087000AF919F918F913F912F910F900FBE0F904D
:100880001F901895E7E4F2E01382128288EE93E05D
:10089000A0E0B0E084839583A683B78384E092E0F0
:1008A0009183808385EC90E09587848784EC90E049
:1008B0009787868780EC90E0918B808B81EC90E02D
:1008C000938B828B82EC90E0958B848B86EC90E00E
:1008D000978B868B118E128E138E148EE4EEF2E0BF
:1008E0001682178210861186128613861486158644
:1008F00016861786108A118A128A138A148A158A14
:100900000895789484B5826084BD84B5816084BD87
:1009100085B5826085BD85B5816085BD80916E009D
:10092000816080936E0010928100809181008260CE
:10093000809381008091810081608093810080910B
:1009400080008160809380008091B10084608093FA
:10095000B1008091B00081608093B00080919100DF
:1009600082608093910080919100816080939100DA
:10097000809190008160809390008091A1008260BE
:100980008093A1008091A10081608093A10080915B
:10099000A00081608093A0008091210182608093FB
:1009A00021018091210181608093210180912001AA
:1009B00081608093200180917A00846080937A0026
:1009C00080917A00826080937A0080917A008160C1
:1009D00080937A0080917A00806880937A001092E8
:1009E000C100109228031092290310922A0310923A
:1009F0002B031092E6021092E7021092E802109286
:100A0000E90268EB7BE080E090E0F2DD87E492E0D1
:100A10009093270380932603E0915702F0915802A8
:100A200082E08083E0915302F09154021082E091C1
:100A30005502F091560280E1808310925F02E091AE
:100A40005B02F0915C0286E08083E0915902F091B4
:100A50005A02808180618083E0915902F0915A02AC
:100A6000808188608083E0915902F0915A028081F0
:100A700080688083E0915902F0915A0280818F7DD5
:100A80008083EEDD6093E6027093E7028093E802D4
:100A90009093E90260E172E0809126039091270330
:100AA000ECDD6AE070E080E090E0A2DD81E0809320
:100AB000FA02EFE8F1E02491E9E4F1E0849188237F
:100AC00099F090E0880F991FFC01E85FFE4FA59117
:100AD000B491FC01EE5DFE4F859194918FB7F8942F
:100AE000EC91E22BEC938FBF84EF882E99249394A2
:100AF000A12CB12CB5DD672B682B692B39F4B0DD47
:100B0000623071058105910508F4F8C0A9DD609394
:100B10004302709344028093450290934602C09032
:100B20003F02D0904002E0904102F09042026C15EA
:100B30007D058E059F0540F460933F02709340024F
:100B40008093410290934202C0903F02D0904002B5
:100B5000E0904102F09042029B01AC012C193D094A
:100B60004E095F0969017A013AEFC316D104E10425
:100B7000F10408F4C3C060933F0270934002809375
:100B80004102909342028092F2029092F302A0926C
:100B9000F402B092F5021092F6021092F70210924F
:100BA000F8021092F9028091EA029091EB02A09172
:100BB000EC02B091ED028093EE029093EF02A093CD
:100BC000F002B093F1024CDD6093EA027093EB0205
:100BD0008093EC029093ED0243DD6093E602709304
:100BE000E7028093E8029093E9023ADD6B017C0111
:100BF00062E272E080912603909127033EDD2AE0B5
:100C000041E050E060E070E080912603909127037E
:100C100049DD69E272E080912603909127032DDD82
:100C20002AE0B701A60180912603909127033ADDBF
:100C30006BE272E080912603909127031EDD809184
:100C4000EA029091EB02A091EC02B091ED02B701A3
:100C5000A601481B590B6A0B7B0B2AE080912603E7
:100C6000909127031FDD6BE272E080912603909143
:100C7000270303DD4091EA025091EB026091EC0200
:100C80007091ED028091EE029091EF02A091F0023E
:100C9000B091F102481B590B6A0B7B0B2AE0809143
:100CA000260390912703FEDC6DE272E0809126031B
:100CB00090912703E2DCD4DCAB01BC012AE08091F7
:100CC000260390912703EEDCE0902603F0902703A3
:100CD0006FE272E0C701D1DC6FE172E0C701CDDCE9
:100CE00065E070E080E090E083DCBADC6093EA02CB
:100CF0007093EB028093EC029093ED0281E0B7DAFF
:100D000068EE73E080E090E073DC80E0B0DA68EEDB
:100D100073E080E090E06CDC0EDCECCEEE0FFF1FA9
:100D2000881F8BBF0790F691E02D199481E090E029
:100D3000F89422C0A1E21A2EAA1BBB1BFD010DC014
:100D4000AA1FBB1FEE1FFF1FA217B307E407F5077B
:100D500020F0A21BB30BE40BF50B661F771F881F57
:100D6000991F1A9469F760957095809590959B01ED
:0C0D7000AC01BD01CF010895F894FFCF45
:100D7C00000000003402B101FE01DC01F0017A0236
:100D8C00564D4450565F317C315F564D4450560D94
:100D9C000A00564D4450455F003A323A007C005FE1
:060DAC00564D44504500C5
:00000001FF
