S01200006D617472697A4C6564322E7372656334
S11300000CC10000FAC700000C942E080C945F0881
S11300100C9490080C94C1080C94F2080C942309D5
S11300200C9454092AC1000028C1000026C1000014
S113003024C1000083C7000020C100001EC10000CD
S11300401CC100001AC1000018C1000016C1000044
S113005014C1000012C1000010C100000C948509F5
S11300600CC100006CC30000A6C3000006C1000060
S113007004C1000002C1000000C10000FEC0000075
S1130080FCC00000FAC00000F8C00000F6C0000088
S1130090F1C300002BC40000F0C00000EEC000005B
S11300A0ECC00000EAC00000E8C00000E6C00000A8
S11300B0E4C00000E2C00000E0C00000DEC00000B8
S11300C0DCC00000DAC00000D8C000006EC400002C
S11300D0A8C40000D2C0000003C500003DC5000054
S11300E0CCC000009E0AA20A8C0A920A980AE70A67
S11300F0A60AAC0AB20AB80ABE0AC40ACA0AD00AD4
S1130100E70AD60ADC0AE20A0200000A0B02090C1A
S11301100D0E0807030401000000000000000000A9
S113012000000000000000000000000000000000CB
S11301300000000000121110000000000000000088
S113014000000000000000000000000000000001AA
S113015002102020080810204010204080020102D4
S1130160010804020101020408102040808040209C
S113017010080402018004020180402010080402D7
S11301800108040201010204081020408001020455
S11301900810204080050505050705080808080221
S11301A00202020A0A08080404040401010101010C
S11301B00101010303030303030303040707070CFB
S11301C00C0C0C0C0C0C0C020202020606060606B1
S11301D00606060B0B0B0B0B0B0B0B00002200256A
S11301E00028002B002E003100340002010000051D
S11301F00108010B0100002100240027002A002D22
S1130200003000330001010000040107010A01006D
S11302100D04A8044305DE054B0611241FBECFEFD1
S1130220D1E2DEBFCDBF00E00CBF12E0A0E0B2E03F
S1130230E4EDF7E100E00BBF02C007900D92A03B94
S1130240B107D9F726E0A0EBB2E001C01D92AE35AC
S1130250B207E1F711E0CDE0D1E000E006C021975C
S11302600109802FFE010E94CC0BC830D10780E029
S11302700807A9F71CD50C94E80BC2CE26E040E889
S113028055E260E070E084EC93E0F0D161E872E064
S113029084EC93E06DD561E088E00E94E80A61E0B7
S11302A08AE00E94E80A61E08CE00E94E80A61E0CA
S11302B089E00E94E80A61E08BE00E94E80A61E0BC
S11302C08DE00C94E80A0895CF93DF93D82FC62FBE
S11302D060E08CE00E94270B60E08DE00E94270B19
S11302E02D2F41E06AE088E00E94570B2C2F41E05B
S11302F06BE089E00E94570B61E08CE00E94270BC1
S113030061E08DE00E94270BDF91CF9108959F92C9
S1130310AF92BF92CF92DF92EF92FF920F931F930F
S1130320CF93DF93D0E004EB12E0912CA12CC12CED
S1130330D12C7601C394BD0EF801292D3A2D80816C
S11303409181019761F4D701C601022E04C0880F80
S1130350991FAA1FBB1F0A94D2F7C82B0CC0D70140
S1130360C601022E04C0880F991FAA1FBB1F0A943E
S1130370D2F78095C8232F5F3F4FB49628303105BC
S1130380F1F66C2F8B2DA0DFC701B6010E94F50991
S1130390DF5FD83081F6DF91CF911F910F91FF90ED
S11303A0EF90DF90CF90BF90AF909F900895CF9340
S11303B0DF93C091B002D091B102209709F048C0F8
S11303C0FC0144EC52E0BC0160587F4F0DC08191A8
S11303D091918D939D93E217F307C9F74E5D5F4F9B
S11303E0F90162177307A1F19F01205F3F4FDA0102
S11303F0EECF8281938181939193E217F307C9F73A
S11304004E5D5F4F4617570729F09A01205E3F4F14
S1130410FA01EFCF2196D093B102C093B00280913C
S1130420B0029091B102409744F01092B30210923E
S1130430B2021092B1021092B00269DF8091B2024E
S11304409091B30201969093B3028093B2020FC0CD
S11304508091B2029091B30269E170E00E94970B1F
S1130460892BE9F644EB52E064EC73E0CECFDF91E4
S1130470CF91089580E092E09ACF0895FC01918D88
S1130480228D892F90E0805C9F4F821B91098F738E
S113049099270895FC01918D828D981731F0828DF2
S11304A0E80FF11D858D90E008958FEF9FEF08957B
S11304B0FC01918D828D981761F0828DDF01A80F68
S11304C0B11D5D968C91928D9F5F9F73928F90E08A
S11304D008958FEF9FEF089584E094E0892B41F015
S11304E080E090E0892B21F08FD181110E940000DF
S11304F08FE994E0892B41F080E090E0892B21F092
S11305001ED281110E9400008AE395E0892B41F0FC
S113051080E090E0892B21F0ADD281110E9400008F
S113052085ED95E0892B41F080E090E0892B21F066
S11305303CD381110E9400000895FC01848DDF01E9
S1130540A80FB11DA35ABF4F8C91248D30E02F5FAB
S11305503F4F2F733078332334F421503109206C0A
S11305603F6F2F5F3F4F248FA689B7898C93A08953
S1130570B1898C9180648C93938D848D981306C07B
S11305800288F389E02D80818F7D80830895CF9345
S1130590DF93EC01888D81110EC017C00FB607FCE4
S11305A00CC0908195FF09C0A889B9898C9185FFF9
S11305B004C0CE01C2DFEA89FB89908195FDEECFAC
S11305C0A889B9898C9186FFE9CFDF91CF910895ED
S11305D00F931F93CF93DF93FC0181E0808F938D62
S11305E0848D981321C0A089B1898C9185FD2EC07A
S11305F01BC00FB607FC07C0E889F989808185FF15
S113060002C0CE019ADF9C8D091799F38B8DFE01F0
S1130610E80FF11DE35AFF4F10830B8FEA89FB8922
S11306208081806280831BC0238D30E02F5F3F4F29
S11306302F733078332334F421503109206C3F6F09
S11306402F5F3F4F162FEF01022FDDCFA689B78909
S11306506C930088F189E02D80818064808381E03F
S113066090E0DF91CF911F910F910895BF92CF92A7
S1130670DF92EF92FF920F931F93CF93DF93EC01DE
S11306806A017B01B22EE889F98982E080834115F1
S1130690514E61057105B1F060E079E08DE390E0C1
S11306A0A70196010E94AA0B89019A010150110920
S11306B0210931093695279517950795011580E18C
S11306C01807A8F0E889F989108260E874E88EE1D7
S11306D090E0A70196010E94AA0BDA01C9010197D3
S11306E0A109B109B695A795979587958C01EC85D5
S11306F0FD851083EE85FF850083188EEC89FD89C6
S1130700B082EA89FB89808180618083EA89FB89E0
S1130710808188608083EA89FB8980818068808306
S1130720EA89FB8980818F7D8083DF91CF911F913E
S11307300F91FF90EF90DF90CF90BF9008951F929C
S11307400F920FB60F9211240BB60F922F938F9323
S11307509F93AF93BF93EF93FF93E091D403F091F2
S1130760D503808182FD14C0E4ECF3E0A689B78947
S11307702C91818D8F5F8F73928D891771F0DF01BA
S1130780E18DF0E0EC53FC4F258F59968C9305C016
S1130790E091DA03F091DB038081FF91EF91BF9147
S11307A0AF919F918F912F910F900BBE0F900FBE21
S11307B00F901F9018951F920F920FB60F9211244D
S11307C00BB60F922F933F934F935F936F937F9347
S11307D08F939F93AF93BF93EF93FF9384EC93E036
S11307E0ACDEFF91EF91BF91AF919F918F917F917B
S11307F06F915F914F913F912F910F900BBE0F908E
S11308000FBE0F901F90189584EC93E037DE21E023
S1130810892B09F420E0822F0895E4ECF3E013829D
S1130820128288EE93E0A0E0B0E084839583A683EF
S1130830B7838CE892E09183808385EC90E0958780
S1130840848784EC90E09787868780EC90E0918B96
S1130850808B81EC90E0938B828B82EC90E0958B83
S1130860848B86EC90E0978B868B118E128E138E80
S1130870148E08951F920F920FB60F9211240BB687
S11308800F922F938F939F93AF93BF93EF93FF9305
S1130890E0917104F0917204808182FD14C0E1E65C
S11308A0F4E0A689B7892C91818D8F5F8F73928D27
S11308B0891771F0DF01E18DF0E0EF59FB4F258FCF
S11308C059968C9305C0E0917704F0917804808167
S11308D0FF91EF91BF91AF919F918F912F910F90C5
S11308E00BBE0F900FBE0F901F9018951F920F9282
S11308F00FB60F9211240BB60F922F933F934F9381
S11309005F936F937F938F939F93AF93BF93EF9373
S1130910FF9381E694E011DEFF91EF91BF91AF91D7
S11309209F918F917F916F915F914F913F912F9103
S11309300F900BBE0F900FBE0F901F90189581E67D
S113094094E09CDD21E0892B09F420E0822F0895B6
S1130950E1E6F4E01382128288EE93E0A0E0B0E0D6
S113096084839583A683B7838CE892E09183808304
S11309708DEC90E0958784878CEC90E09787868750
S113098088EC90E0918B808B89EC90E0938B828B48
S11309908AEC90E0958B848B8EEC90E0978B868B21
S11309A0118E128E138E148E08951F920F920FB60D
S11309B00F9211240BB60F922F938F939F93AF93A3
S11309C0BF93EF93FF93E0910E05F0910F058081A3
S11309D082FD14C0EEEFF4E0A689B7892C91818DD5
S11309E08F5F8F73928D891771F0DF01E18DF0E0D5
S11309F0E250FB4F258F59968C9305C0E091140566
S1130A00F09115058081FF91EF91BF91AF919F9176
S1130A108F912F910F900BBE0F900FBE0F901F90D0
S1130A2018951F920F920FB60F9211240BB60F92C6
S1130A302F933F934F935F936F937F938F939F93E2
S1130A40AF93BF93EF93FF938EEF94E076DDFF9126
S1130A50EF91BF91AF919F918F917F916F915F9132
S1130A604F913F912F910F900BBE0F900FBE0F909F
S1130A701F9018958EEF94E001DD21E0892B09F495
S1130A8020E0822F0895EEEFF4E01382128288EEC4
S1130A9093E0A0E0B0E084839583A683B7838CE8D9
S1130AA092E09183808385ED90E09587848784ED3F
S1130AB090E09787868780ED90E0918B808B81ED25
S1130AC090E0938B828B82ED90E0958B848B86ED06
S1130AD090E0978B868B118E128E138E148E089550
S1130AE01F920F920FB60F9211240BB60F922F93F1
S1130AF08F939F93AF93BF93EF93FF93E091AB05D5
S1130B00F091AC05808182FD14C0EBE9F5E0A68983
S1130B10B7892C91818D8F5F8F73928D891771F0B6
S1130B20DF01E18DF0E0E556FA4F258F59968C935D
S1130B3005C0E091B105F091B2058081FF91EF917C
S1130B40BF91AF919F918F912F910F900BBE0F90FA
S1130B500FBE0F901F9018951F920F920FB60F9211
S1130B6011240BB60F922F933F934F935F936F9380
S1130B707F938F939F93AF93BF93EF93FF938BE9EF
S1130B8095E0DBDCFF91EF91BF91AF919F918F9145
S1130B907F916F915F914F913F912F910F900BBE79
S1130BA00F900FBE0F901F9018958BE995E066DCAF
S1130BB021E0892B09F420E0822F0895EBE9F5E088
S1130BC01382128288EE93E0A0E0B0E084839583E0
S1130BD0A683B7838CE892E09183808385E391E0D8
S1130BE09587848784E391E09787868780E391E003
S1130BF0918B808B81E391E0938B828B82E391E0F4
S1130C00958B848B86E391E0978B868B118E128E65
S1130C10138E148E089508958F929F92AF92BF926F
S1130C20CF92DF92EF92FF920F931F93CF93DF93B4
S1130C305C017B014C0182E0880E911C6501E5E0BA
S1130C40CE0ED11C00E010E0F40161914F014AE0A6
S1130C5050E0C7011DD1EC016EE2C70175D08C0FC5
S1130C609D1F080F191F8C149D0471F74AE050E072
S1130C70F5016581C7010CD1800F911FDF91CF91E0
S1130C801F910F91FF90EF90DF90CF90BF90AF90A6
S1130C909F908F900895E8E3F6E08CE992E09183C9
S1130CA08083128213821482158208950895C6D314
S1130CB0FDDFE4DACCE6D2E0DDDB2097E9F30CDCFF
S1130CC0FBCFCF92DF92EF92FF920F931F93CF93BC
S1130CD0DF9341155105B1F08C01E62EF72EEA01A0
S1130CE0C12CD12CD7016D917D01D801ED91FC91DE
S1130CF00190F081E02DC8011995C80ED91E2197E5
S1130D0089F702C0C12CD12CC601DF91CF911F916C
S1130D100F91FF90EF90DF90CF90089561157105CA
S1130D2081F0FB0101900020E9F73197AF01461BE8
S1130D30570BDC01ED91FC910280F381E02D1995B4
S1130D40089580E090E00895DC01ED91FC9101901C
S1130D50F081E02D19950895DC01ED91FC9102805C
S1130D60F381E02D42E050E06EE972E019950895B8
S1130D700F931F93CF93DF93EC01D0DF8C01CE014F
S1130D80EBDF800F911FDF91CF911F910F91089599
S1130D904F925F926F927F929F92AF92BF92CF9247
S1130DA0DF92EF92FF920F931F93CF93DF93CDB710
S1130DB0DEB7A1970FB6F894DEBF0FBECDBF5C01BE
S1130DC06A017B01922E19A281E0821720F00F2E76
S1130DD0FAE09F2EF02D8E010F5D1F4F492C512CF0
S1130DE0612C712CC701B601A3019201B3D48C2DDF
S1130DF0929E80191124015011098A3010F4805DEB
S1130E0001C0895CD8018C93C22ED32EE42EF52E1A
S1130E10C114D104E104F10429F70115110591F07D
S1130E20F80101900020E9F73197AF01401B510B05
S1130E30D501ED91FC910280F381E02DB801C5014B
S1130E40199502C080E090E0A1960FB6F894DEBF39
S1130E500FBECDBFDF91CF911F910F91FF90EF9007
S1130E60DF90CF90BF90AF909F907F906F905F90F6
S1130E704F9008952115310549F4DC01ED91FC9161
S1130E800190F081E02D642F1995089581CF089584
S1130E909A01462F50E060E070E0ECCF0895823074
S1130EA0A9F028F4882349F0813051F00895843062
S1130EB021F1E8F0853039F1089510926E0008951B
S1130EC0EFE6F0E080818D7F80830895E0E7F0E035
S1130ED080818D7F808381E08093B000E1EBF0E03E
S1130EE08081887F846080831092B3000895E1E755
S1130EF0F0E080818D7F80830895E2E7F0E08081D7
S1130F008D7F80830895E3E7F0E080818D7F808387
S1130F100895CF93C82F809180028C1308C0E8E015
S1130F20F1E0E4918E2F9FEF9093800201C08FEF48
S1130F30B6DF60E08C2F8BD3CF9108951F920F9270
S1130F400FB60F9211240BB60F922F933F934F932A
S1130F505F936F937F938F939F93AF93BF93EF931D
S1130F60FF938091410690914206A0914306B0916F
S1130F704406892B8A2B8B2B51F180913E06E091FC
S1130F803F06F09140069081892780838091410635
S1130F9090914206A0914306B09144061816190692
S1130FA01A061B06BCF48091410690914206A0915A
S1130FB04306B09144060197A109B1098093410603
S1130FC090934206A0934306B093440603C08091D5
S1130FD080029FDFFF91EF91BF91AF919F918F911D
S1130FE07F916F915F914F913F912F910F900BBE25
S1130FF00F900FBE0F901F9018951F920F920FB66F
S11310000F9211240BB60F922F933F934F935F933C
S11310106F937F938F939F93AF93BF93EF93FF93BC
S11310208091490690914A06892B29F0E09149065E
S1131030F0914A061995FF91EF91BF91AF919F915D
S11310408F917F916F915F914F913F912F910F906D
S11310500BBE0F900FBE0F901F9018951F920F920A
S11310600FB60F9211240BB60F922F933F934F9309
S11310705F936F937F938F939F93AF93BF93EF93FC
S1131080FF9380914B0690914C06892B29F0E091B7
S11310904B06F0914C061995FF91EF91BF91AF91DA
S11310A09F918F917F916F915F914F913F912F917C
S11310B00F900BBE0F900FBE0F901F9018951F92AC
S11310C00F920FB60F9211240BB60F922F933F93EA
S11310D04F935F936F937F938F939F93AF93BF933C
S11310E0EF93FF9380914D0690914E06892B29F042
S11310F0E0914D06F0914E061995FF91EF91BF9145
S1131100AF919F918F917F916F915F914F913F919B
S11311102F910F900BBE0F900FBE0F901F9018953C
S11311201F920F920FB60F9211240BB60F922F93AA
S11311303F934F935F936F937F938F939F93AF935B
S1131140BF93EF93FF9380914F0690915006892BA4
S113115029F0E0914F06F09150061995FF91EF9117
S1131160BF91AF919F918F917F916F915F914F91BB
S11311703F912F910F900BBE0F900FBE0F901F90B9
S113118018951F920F920FB60F9211240BB60F925F
S11311902F933F934F935F936F937F938F939F937B
S11311A0AF93BF93EF93FF938091450690914606CA
S11311B0892B29F0E0914506F09146061995FF9197
S11311C0EF91BF91AF919F918F917F916F915F91BB
S11311D04F913F912F910F900BBE0F900FBE0F9028
S11311E01F9018951F920F920FB60F9211240BB6F1
S11311F00F922F933F934F935F936F937F938F93AC
S11312009F93AF93BF93EF93FF9380914706909181
S11312104806892B29F0E0914706F0914806199574
S1131220FF91EF91BF91AF919F918F917F916F91BA
S11312305F914F913F912F910F900BBE0F900FBE76
S11312400F901F9018951F920F920FB60F921124B2
S11312500BB60F922F933F934F935F936F937F93AC
S11312608F939F93AF93BF93EF93FF938091510616
S113127090915206892B29F0E0915106F091520683
S11312801995FF91EF91BF91AF919F918F917F91AC
S11312906F915F914F913F912F910F900BBE0F90E3
S11312A00FBE0F901F9018951F920F920FB60F92BA
S11312B011240BB60F922F933F934F935F936F9329
S11312C07F938F939F93AF93BF93EF93FF938091FB
S11312D0530690915406892B29F0E0915306F0911E
S11312E054061995FF91EF91BF91AF919F918F9102
S11312F07F916F915F914F913F912F910F900BBE12
S11313000F900FBE0F901F9018951F920F920FB65B
S11313100F9211242F933F938F939F93AF93BF9377
S11313208091560690915706A0915806B09159069F
S11313303091550623E0230F2D3720F40196A11D8B
S1131340B11D05C026E8230F0296A11DB11D2093EF
S113135055068093560690935706A0935806B0936B
S1131360590680915A0690915B06A0915C06B09153
S11313705D060196A11DB11D80935A0690935B06EC
S1131380A0935C06B0935D06BF91AF919F918F913E
S11313903F912F910F900FBE0F901F9018953FB75C
S11313A0F89480915A0690915B06A0915C06B091E6
S11313B05D0626B5A89B05C02F3F19F00196A11D17
S11313C0B11D3FBFBA2FA92F982F8827820F911DD7
S11313D0A11DB11DBC01CD01660F771F881F991F88
S11313E0660F771F881F991F0895CF92DF92EF929F
S11313F0FF92CF93DF936B017C01D1DFEB01C1142A
S1131400D104E104F10499F006DCC9DF6C1B7D0B07
S1131410683E734038F081E0C81AD108E108F10849
S1131420C851DC4FC114D104E104F10469F7DF9120
S1131430CF91FF90EF90DF90CF900895789484B58A
S1131440826084BD84B5816084BD85B5826085BDBC
S113145085B5816085BDEEE6F0E0808181608083A2
S1131460E1E8F0E010828081826080838081816085
S11314708083E0E8F0E0808181608083E1EBF0E04C
S1131480808184608083E0EBF0E0808181608083F0
S1131490E1E9F0E0808182608083808181608083E3
S11314A0E0E9F0E0808181608083E1EAF0E080811E
S11314B082608083808181608083E0EAF0E08081C3
S11314C081608083E1E2F1E08081826080838081B9
S11314D081608083E0E2F1E0808181608083EAE7DB
S11314E0F0E0808184608083808182608083808159
S11314F0816080838081806880831092C100089518
S113150090E0FC013197E231F10508F060C08827D2
S1131510EE58FF4F8F4F40C1E0E8F0E080818F77B5
S113152080830895E0E8F0E080818F7D80830895D2
S1131530E0E8F0E08081877F8083089584B58F7729
S113154084BD089584B58F7D84BD0895E0EBF0E0FB
S113155080818F7780830895E0EBF0E080818F7D38
S113156080830895E0E9F0E080818F778083089597
S1131570E0E9F0E080818F7D80830895E0E9F0E088
S11315808081877F80830895E0EAF0E080818F770F
S113159080830895E0EAF0E080818F7D8083089560
S11315A0E0EAF0E08081877F80830895E0E2F1E063
S11315B080818F7780830895E0E2F1E080818F7DE0
S11315C080830895E0E2F1E08081877F808308953D
S11315D0CF93DF9390E0FC01E15BFE4F2491FC018B
S11315E0EB56FE4F8491882379F190E0880F991F80
S11315F0FC01EB50FE4FA591B491FC01E552FE4F66
S1131600C591D49161110CC09FB7F8948C91E22FCD
S1131610E0958E238C932881E223E8839FBF14C036
S1131620623061F49FB7F8943C91822F80958323B4
S11316308C93E881E22BE8839FBF06C08FB7F894B0
S1131640EC91E22BEC938FBFDF91CF9108951F9320
S1131650CF93DF93282F30E0F901E75FFE4F8491A9
S1131660F901E15BFE4F1491F901EB56FE4FC49171
S1131670CC23C9F0D62F811143DFEC2FF0E0EE0F1D
S1131680FF1FE552FE4FA591B4918FB7F894D11185
S113169006C09C91E12FE095E923EC9303C0EC9103
S11316A0E12BEC938FBFDF91CF911F910895BF92EF
S11316B0CF92DF92EF92FF920F931F93CF93DF931A
S11316C0B82E162F042FC7E0D0E0E22EF12C0F2EF7
S11316D0F7E0CF2ED12CF02D01110DC0C6018C1BCB
S11316E09D0BB70102C0759567958A95E2F7617005
S11316F08B2DADDF0AC0B7010C2E02C0759567951E
S11317000A94E2F761708B2DA2DF61E0812F9FDFE5
S113171060E0812F9CDF2197F8F6DF91CF911F9134
S11317200F91FF90EF90DF90CF90BF90089597FBBB
S1131730072E16F4009406D077FD08D035D007FCA8
S113174005D03EF4909581959F4F089570956195CD
S11317507F4F0895A1E21A2EAA1BBB1BFD010DC0E9
S1131760AA1FBB1FEE1FFF1FA217B307E407F5074D
S113177020F0A21BB30BE40BF50B661F771F881F29
S1131780991F1A9469F760957095809590959B01BF
S1131790AC01BD01CF010895EE0FFF1F881F8BBF61
S11317A00790F691E02D1994AA1BBB1B51E107C0C9
S11317B0AA1FBB1FA617B70710F0A61BB70B881FDD
S11317C0991F5A95A9F780959095BC01CD0108956C
S10717D0F894FFCFB7
S11317D40000000000000000000000000000000001
S11317E400000000000000000000000000000100F0
S11317F400000000000000000000000000000000E1
S113180400000000000000000000000000000000D0
S113181400000000010000000000000000000000BF
S113182400000000000000000000000000000000B0
S1131834000000000000000000000100000000009F
S11318440000000000000000000000000000000090
S1131854FF496E6963696F0000000000E8026106D5
S11318643E0258024A02C702000000000C060D0A98
S1131874006E616E00696E66006F7666002E00006D
S9030000FC
