:100000000C9472000C949A000C949A000C949A0030
:100010000C949A000C949A000C949A000C949A00F8
:100020000C949A000C949A000C949A000C949A00E8
:100030000C949A000C949A000C949A000C949A00D8
:100040000C942F080C949A000C94C4090C94120A76
:100050000C949A000C949A000C949A000C949A00B8
:100060000C949A000C949A0005A84CCDB2D44EB9C9
:100070003836A9020C50B9918688083CA6AAAA2A4B
:10008000BE000000803F00000000240027002A007E
:1000900000000000250028002B00000000002300C5
:1000A00026002900040404040404040402020202D9
:1000B000020203030303030301020408102040802B
:1000C00001020408102001020408102000000007AB
:1000D0000002010000030406000000000000000010
:1000E000CD00E40B11241FBECFEFD8E0DEBFCDBFA3
:1000F00011E0A0E0B1E0EAEBFEE102C005900D9254
:10010000A236B107D9F714E0A2E6B1E001C01D9212
:10011000A437B107E1F710E0C4EED0E004C02297A5
:10012000FE010E94430FC03ED107C9F70E943A0C5E
:100130000C945B0F0C940000FB019F01E89442308B
:10014000C4F04532B4F44A3029F497FB1EF490957C
:1001500081959F4F642F77270E94470F805D8A33D8
:100160000CF0895D8193CB010097A1F716F45DE255
:1001700051931082C9010C94BD00DC01FC01672F72
:1001800071917723E1F7329704C07C916D9370836E
:100190006291AE17BF07C8F3089582E691E00E940E
:1001A0002C0808950F931F9302E611E0C8010E94E6
:1001B0001008C8010E94E5058EE060E00E94300949
:1001C0001092800083E0809381001F910F91089529
:1001D000EF92FF920F931F93CF93DF93CAE0D0E08B
:1001E00082E691E0BE0149E150E09E0107ED10E09A
:1001F000FAE8EF2EF2E5FF2E0E946D05EC9681E005
:10020000C237D80769F7C9E1D0E082E691E06AE039
:1002100070E0AE0126E331E08E01EAE8EE2EE2E581
:10022000FE2E0E946D05A696CD3FD10571F7DF9198
:10023000CF911F910F91FF90EF9008958F929F9211
:10024000AF92BF92CF92EF92FF920F931F93F2E67D
:10025000AF2EF1E0BF2EC5016AE070E049E150E049
:1002600026E331E007ED10E0EE24FF24CC24C39414
:100270000E94F3060E94E800C50162E070E042E0DF
:1002800050E02FE331E00EE110E0E12CE8EFFE2E2C
:10029000B3E0CB2EAA24A394A0E08A2EA1E09A2E4C
:1002A0000E9401061F910F91FF90EF90CF90BF9099
:1002B000AF909F908F900895EF92FF920F931F93AE
:1002C0008EE00E940E09AA2797FDA095BA2FBC01C7
:1002D000CD010E947A0D24EA30E74DE450E40E94FB
:1002E000700E20E030EC4FE754E40E94DF0C609386
:1002F000BB037093BC038093BD039093BE0320E0C7
:1003000030E048E152E40E94700E7B018C0120E055
:1003100030E04EE353E40E946C0E18161CF469E1C1
:1003200070E00AC060E070E087E593E4A8019701FF
:100330000E94730C0E944C0DCB011F910F91FF90F6
:10034000EF900895E3E6F1E087ED90E081939193DB
:1003500023E0EB3BF207D1F70E945C01909364012C
:100360008093630108952F923F924F925F926F9214
:100370007F928F929F92AF92BF92CF92DF92EF9235
:10038000FF920F931F93DF93CF9300D000D0CDB790
:10039000DEB782E691E062E070E042E050E02FE3F9
:1003A00031E00FEE10E0E12CB8EFFB2EA3E0CA2EF7
:1003B000AA24A394F1E28F2EF1E09F2E0E94010661
:1003C00082E691E064E170E04CEC50E02FE331E034
:1003D000E8E38E2EE1E09E2E0E94010685E090E08B
:1003E0009C838B83E2E3F0E0FA83E983B6C0AB80C1
:1003F000BC80AA0CBB1C8B819C81A80EB91EA3E0FB
:10040000AA0CBB1CAA95E1F7B501882777FD80955A
:10041000982F0E947A0D23EC35EF48E450E40E94B7
:10042000700E20E030E044E353E40E94DF0C7B01D7
:100430008C01C8010E94D30E1B012C01B701C80119
:100440000E94DC0C3B014C01C201B10120E030E014
:1004500040E252E40E94700E0E94470D7B018C0125
:10046000E0EAF0E0EE0EFF1EC401B30120E030E050
:1004700040E252E40E94700E0E94470D48E750E0AF
:10048000461B570B82E691E0B70122E030E00FE116
:1004900010E0EE24E3940E94950688E89FEFA80EF2
:1004A000B91ECC24B7FCC094DC2CC601B5010E9457
:1004B0007A0D23EC35EF48E450E40E94700E20E002
:1004C00030E044E353E40E94DF0C7B018C01C8015F
:1004D0000E94D30E3B014C01B701C8010E94DC0C05
:1004E0005B016C01C401B30120E030E040E252E462
:1004F0000E94700E0E94470D7B018C01E0EAF0E043
:10050000EE0EFF1EC601B50120E030E040E252E4ED
:100510000E94700E0E94470D48E750E0461B570BA3
:1005200082E691E0B70123E030E000E010E0EE2445
:10053000E3940E9495068B819C810E971CF01C828F
:100540001B8205C0EB81FC813196FC83EB8364E662
:1005500070E080E090E00E94770889819A8101979D
:100560009A8389838F5F9F4F09F041CF82E691E0A4
:100570000E94D5050F900F900F900F90CF91DF91B3
:100580001F910F91FF90EF90DF90CF90BF90AF90B1
:100590009F908F907F906F905F904F903F902F90A3
:1005A00008952F923F924F925F926F927F928F9217
:1005B0009F92AF92BF92CF92DF92EF92FF920F93F2
:1005C0001F93DF93CF93CDB7DEB72D970FB6F89477
:1005D000DEBF0FBECDBF9E838D833A014B013887AE
:1005E0002F831A870987EB86CB01BA0120E030E020
:1005F00040E050E00E94D80C88232CF420E030E04A
:1006000040E05FEB04C020E030E040E05FE300E06A
:1006100010E00CC0CA01B90120E030E040E251E432
:100620000E94DF0C9B01AC010F5F1F4F8F819885EB
:10063000081719077CF3C401B3010E94740C5B0115
:100640006C01C401B30120E030E040E050E00E94C2
:10065000D80C882324F4D7FAD094D7F8D0940F2E4E
:10066000FDEC2F2EFCEC3F2EFCEC4F2EFDE35F2E1D
:10067000F02D1C821B8207C0AB81BC811196BC830C
:10068000AB8317012801C201B10120E030E040E254
:1006900051E40E94700E7B018C01A60195010E941D
:1006A000D80C18164CF7EB81FC81EF2B19F402E003
:1006B00010E004C00B811C810F5F1F4FC401B30108
:1006C00020E030E040E050E00E94D80C882314F491
:1006D0000F5F1F4F2F8138852F5F3F4FC901800F5C
:1006E000911F2150304038872F8309851A850F5F6D
:1006F0001F4F801791072CF01D861C861A821982C5
:100700001EC0A801481B590B5A83498314161506AD
:10071000A4F45B85552389F080E090E020E2ED8130
:10072000FE81E80FF91F20830196A981BA818A17FB
:100730009B07ACF3BD87AC8702C01D861C86C40135
:10074000B30120E030E040E050E00E94D80C882364
:1007500064F4ED81FE812C853D85E20FF31F8DE26F
:1007600080832F5F3F4F3D872C874B815C81452BDA
:1007700069F4ED81FE818C859D85E80FF91F80E38A
:100780008083AC85BD851196BD87AC876D807E80EA
:10079000EC85FD856E0E7F1E882499243AC0C60123
:1007A000B501A20191010E94DF0C0E94470DDC01FE
:1007B000CB017C012C853D852F5F3F4F3D872C87EA
:1007C000B3014AE050E00E949C000027F7FC00952E
:1007D000102FC801B7010E947A0DA20191010E9459
:1007E000700E9B01AC01C601B5010E94730C5B0148
:1007F0006C01C201B10120E030E040E251E40E940E
:10080000DF0C1B012C010894811C911C0894611CB5
:10081000711C4B815C81841695060CF28F81988542
:10082000181619065CF4ED81FE81AC85BD85EA0FD2
:10083000FB1F8EE280831196BD87AC876D807E8022
:10084000EC85FD856E0E7F1E8824992430C0C6017C
:10085000B50120E030E040E251E40E94700E5B01FF
:100860006C010E94470DDC01CB017C012C853D858C
:100870002F5F3F4F3D872C87B3014AE050E00E9435
:100880009C000027F7FC0095102FC801B7010E94BB
:100890007A0D9B01AC01C601B5010E94730C5B018E
:1008A0006C010894811C911C0894611C711C4F817F
:1008B0005885841695065CF289819A811816190666
:1008C000CCF49B859923B1F4ED81FE81AC85BD8587
:1008D000EA0FFB1F80E090E020E22193019649811E
:1008E0005A8184179507CCF38C859D85840F951FBD
:1008F0009D878C87AC85BD85ED81FE81AE0FBF1FC6
:100900001C928D819E812D960FB6F894DEBF0FBE8E
:10091000CDBFCF91DF911F910F91FF90EF90DF90AE
:10092000CF90BF90AF909F908F907F906F905F908F
:100930004F903F902F9008958F929F92AF92CF92B9
:10094000EF92FF920F931F93DF93CF93CDB7DEB754
:1009500069970FB6F894DEBF0FBECDBF0091BF03FD
:100960001091C0030F5F1F4F0E945C01000F111F09
:100970000D591E4FF801918380836091BF037091E0
:10098000C003FB01EE0FFF1FED59FE4F4081518167
:100990009B01255F3F4FFB01EE0FFF1FEB59FE4F01
:1009A0000081118182E691E0665F7F4FE0EEEE2EDE
:1009B000EFEFFE2E0E946D058091BF039091C00362
:1009C00001969093C0038093BF038A52914034F004
:1009D0000E94E8001092C0031092BF036091BF0311
:1009E0007091C003FB01EE0FFF1FEB59FE4F4081DA
:1009F00051819B01245F3F4FFB01EE0FFF1FE9591F
:100A0000FE4F0081118182E691E0655F7F4FEE2409
:100A1000FF240E946D0582E691E064E170E04BEDF9
:100A200050E02FE331E00FEE10E0E12CB8EFFB2EA9
:100A3000A3E0CA2EAA24A394F5E48F2EF1E09F2E02
:100A40000E9401064091BB035091BC036091BD031D
:100A50007091BE034E010894811C911CC40125E0D5
:100A600030E000E010E0EE240E94D10282E691E046
:100A700064E670E04BED50E02FE331E00FEE10E064
:100A8000E12CE8EFFE2E0E94010669960FB6F8945D
:100A9000DEBF0FBECDBFCF91DF911F910F91FF90B1
:100AA000EF90CF90AF909F908F90089582E691E065
:100AB00040E052EC61E070E00E9462070E94B301E6
:100AC0000E941E010E94A20161E070E080E090E0BF
:100AD0000E9477080E949C04F7CF8F929F92AF925A
:100AE000BF92CF92DF92EF92FF920F931F936B0111
:100AF0005A01490182E594E06CE40E94A40B6D2D3B
:100B0000772767FD7A9582E594E00E94A40B82E541
:100B100094E06C2D0E94A40B6B2D772767FD7A95CE
:100B200082E594E00E94A40B82E594E06A2D0E9485
:100B3000A40B692D772767FD7A9582E594E00E94E2
:100B4000A40B82E594E0682D0E94A40B612F772707
:100B500067FD7A9582E594E00E94A40B82E594E01B
:100B6000602F0E94A40B6F2D772767FD7A9582E591
:100B700094E00E94A40B82E594E06E2D0E94A40BE9
:100B800082E594E00E943A0B892BD1F382E594E050
:100B90000E946B0B1F910F91FF90EF90DF90CF9011
:100BA000BF90AF909F908F90089582E594E065E4A8
:100BB0000E94A40B82E594E00E943A0B892BD1F3AA
:100BC00082E594E00E946B0B089564EF71E080E091
:100BD00090E00E94770882E594E065E50E94A40B0E
:100BE00082E594E00E943A0B892BD1F360ED77E027
:100BF00080E090E00E94770882E594E00E946B0B11
:100C000008952F923F924F925F926F927F928F92B0
:100C10009F92AF92CF92EF92FF920F931F93DF9329
:100C2000CF93CDB7DEB73B012A01190182E594E0ED
:100C300063E50E94A40B82E594E06EE40E94A40B9D
:100C4000672D772767FD7A9582E594E00E94A40BD3
:100C500082E594E0662D0E94A40B652D772767FD41
:100C60007A9582E594E00E94A40B82E594E0642DDD
:100C70000E94A40B632D772767FD7A9582E594E0A7
:100C80000E94A40B82E594E0622D0E94A40B612FC8
:100C9000772767FD7A9582E594E00E94A40B82E5B0
:100CA00094E0602F0E94A40B6F2D772767FD7A9543
:100CB00082E594E00E94A40B82E594E06E2D0E94F0
:100CC000A40B82E594E06C2D0E94A40B82E594E0D5
:100CD0006A2D0E94A40B8401F8016081772767FDCB
:100CE000709582E594E00E94A40BF80181918F0138
:100CF000882391F782E594E00E943A0B892BD1F387
:100D000082E594E00E946B0BCF91DF911F910F91D0
:100D1000FF90EF90CF90AF909F908F907F906F90CB
:100D20005F904F903F902F9008958F929F92AF9237
:100D3000BF92CF92DF92EF920F931F936B015A01F4
:100D4000490182E594E063E40E94A40B6D2D7727AE
:100D500067FD7A9582E594E00E94A40B82E594E019
:100D60006C2D0E94A40B6B2D772767FD7A9582E589
:100D700094E00E94A40B82E594E06A2D0E94A40BEB
:100D8000692D772767FD7A9582E594E00E94A40B90
:100D900082E594E0682D0E94A40B612F772767FD00
:100DA0007A9582E594E00E94A40B82E594E0602F9E
:100DB0000E94A40B82E594E06E2D0E94A40B82E5B4
:100DC00094E00E943A0B892BD1F382E594E00E94D3
:100DD0006B0B1F910F91EF90DF90CF90BF90AF9072
:100DE0009F908F9008956F927F928F929F92AF9273
:100DF000BF92CF92EF92FF920F931F935B014A0134
:100E0000390182E594E062E50E94A40B6B2D7727FF
:100E100067FD7A9582E594E00E94A40B82E594E058
:100E20006A2D0E94A40B692D772767FD7A9582E5CC
:100E300094E00E94A40B82E594E0682D0E94A40B2C
:100E4000672D772767FD7A9582E594E00E94A40BD1
:100E500082E594E0662D0E94A40B612F772767FD41
:100E60007A9582E594E00E94A40B82E594E0602FDD
:100E70000E94A40B6F2D772767FD7A9582E594E099
:100E80000E94A40B82E594E06E2D0E94A40B82E5E3
:100E900094E06C2D0E94A40B82E594E00E943A0B32
:100EA000892BD1F382E594E00E946B0B1F910F9187
:100EB000FF90EF90CF90BF90AF909F908F907F90DA
:100EC0006F900895DF92EF92FF920F931F937A0134
:100ED0008B01403082EC580781E0680780E078079A
:100EE00009F454C0413082EC580781E0680780E083
:100EF0007807C8F440308BE4580780E0680780E04A
:100F00007807E1F1403081EE580780E0680780E023
:100F10007807C9F1403885E2580780E0680780E02B
:100F2000780751F52EC0403281EA580787E06807FC
:100F300080E0780789F1413281EA580787E0680745
:100F400080E0780748F4403088EE580783E068076F
:100F500080E0780789F41DC0403482E458078FE0B0
:100F6000680780E07807D9F0403884E858078EE1B8
:100F7000680780E07807B1F086E44CC0DD24D394A4
:100F800013C0DD2411C0F2E0DF2E0EC0E3E0DE2E40
:100F90000BC074E0D72E08C065E0D62E05C056E021
:100FA000D52E02C047E0D42E82E594E068E50E9489
:100FB000A40B82E594E06D2D0E94A40B82E594E0E1
:100FC0000E943A0B892BD1F382E594E00E946B0BCF
:100FD0008F3401F582E594E00E94D40A66E970E05E
:100FE00080E090E00E94770882E594E0B801A701D4
:100FF0000E944D0A68EC70E080E090E00E94770863
:1010000082E594E00E943A0B892BD1F382E594E0CB
:101010000E946B0B1F910F91FF90EF90DF9008954E
:1010200080E00E940B0982E594E040E855E260E030
:1010300070E00E944D0A80E061E00E94300981E08A
:1010400060E00E9430098DE061E00E9430098DE08F
:1010500061E00E946F0908950E94100808951F9290
:101060000F920FB60F9211242F933F938F939F935C
:10107000AF93BF938091C5039091C603A091C7031E
:10108000B091C8033091C9030196A11DB11D232F52
:101090002D5F2D3720F02D570196A11DB11D2093F6
:1010A000C9038093C5039093C603A093C703B0936D
:1010B000C8038091C1039091C203A091C303B09172
:1010C000C4030196A11DB11D8093C1039093C20377
:1010D000A093C303B093C403BF91AF919F918F912D
:1010E0003F912F910F900FBE0F901F9018959B016D
:1010F000AC017FB7F8948091C1039091C203A09195
:10110000C303B091C40366B5A89B05C06F3F19F037
:101110000196A11DB11D7FBFBA2FA92F982F882737
:10112000860F911DA11DB11D62E0880F991FAA1F96
:10113000BB1F6A95D1F7BC012DC0FFB7F894809111
:10114000C1039091C203A091C303B091C403E6B55B
:10115000A89B05C0EF3F19F00196A11DB11DFFBF6F
:10116000BA2FA92F982F88278E0F911DA11DB11D71
:10117000E2E0880F991FAA1FBB1FEA95D1F7861BD3
:10118000970B885E9340C8F2215030404040504059
:1011900068517C4F211531054105510571F60895BF
:1011A000789484B5826084BD84B5816084BD85B542
:1011B000826085BD85B5816085BDEEE6F0E0808109
:1011C00081608083E1E8F0E010828081826080832A
:1011D000808181608083E0E8F0E0808181608083AD
:1011E000E1EBF0E0808184608083E0EBF0E08081DF
:1011F00081608083EAE7F0E0808184608083808181
:101200008260808380818160808380818068808328
:101210001092C1000895809350010895982F8E3048
:1012200008F09E509770809150018295880F880F2A
:10123000807C892B80937C0080917A0080648093ED
:101240007A0080917A0086FDFCCF20917800409151
:101250007900942F80E030E0282B392BC9010895C4
:10126000CF93DF93482F50E0CA0188549F4FFC0171
:1012700034914C555F4FFA018491882369F190E0D5
:10128000880F991FFC01EA57FF4FA591B491FC010B
:10129000E057FF4FC591D491662351F42FB7F894CE
:1012A0008C91932F909589238C93888189230BC0EF
:1012B000623061F42FB7F8948C91932F9095892325
:1012C0008C938881832B88832FBF06C09FB7F894A7
:1012D0008C91832B8C939FBFDF91CF910895482FE2
:1012E00050E0CA0184539F4FFC012491CA018854E5
:1012F0009F4FFC0194914C555F4FFA013491332379
:1013000009F440C0222351F1233071F0243028F435
:101310002130A1F0223011F514C02630B1F0273071
:10132000C1F02430D9F404C0809180008F7703C0CD
:10133000809180008F7D8093800010C084B58F776E
:1013400002C084B58F7D84BD09C08091B0008F77C5
:1013500003C08091B0008F7D8093B000E32FF0E058
:10136000EE0FFF1FE057FF4FA591B4912FB7F894F0
:10137000662321F48C919095892302C08C91892B4E
:101380008C932FBF089508951F920F920FB60F925E
:1013900011242F933F934F938F939F93EF93FF933A
:1013A0008091C00082FD1DC04091C60020910A04BA
:1013B00030910B042F5F3F4F2F73307080910C04DE
:1013C00090910D042817390771F0E0910A04F0910B
:1013D0000B04E653FC4F408330930B0420930A0424
:1013E00002C08091C600FF91EF919F918F914F9124
:1013F0003F912F910F900FBE0F901F901895E09185
:101400005E04F0915F04E05CFF4F81919191208137
:101410003181821B930B8F739070892B11F00E9486
:10142000C30908951F920F920FB60F9211242F93A4
:101430003F938F939F93EF93FF9320914E043091AE
:101440004F0480915004909151042817390731F4CA
:101450008091C1008F7D8093C10014C0E091500441
:10146000F0915104E25FFB4F2081809150049091F4
:10147000510401968F73907090935104809350049F
:101480002093C600FF91EF919F918F913F912F91F3
:101490000F900FBE0F901F901895AF92BF92DF92E2
:1014A000EF92FF920F931F93CF93DF93EC017A019A
:1014B0008B01DD24403081EE580780E0680780E032
:1014C000780711F0DD24D39491E0A92EB12CEC899A
:1014D000FD89DD2069F0C50108A002C0880F991FB1
:1014E0000A94E2F7808360E079E08DE390E005C044
:1014F000108260E874E88EE190E0A80197010E94F4
:101500001F0F215030404040504056954795379529
:10151000279580E12030380720F0DD2011F0DD2410
:10152000D6CFE889F9893083EA89FB89208319A21B
:10153000EE89FF89408121E030E0C9010C8C02C0B6
:10154000880F991F0A94E2F7482B4083EE89FF89A0
:101550004081C9010D8C02C0880F991F0A94E2F7DF
:10156000482B4083EE89FF894081C9010E8C02C05F
:10157000880F991F0A94E2F7482B4083EE89FF8970
:1015800080810F8C02C0220F331F0A94E2F720954E
:1015900028232083DF91CF911F910F91FF90EF902F
:1015A000DF90BF90AF900895CF93DF93DC011E963C
:1015B0008D919C911F97EC01C05CDF4FFC01EE5BAD
:1015C000FF4F288139818081918128173907C9F718
:1015D0005696ED91FC915797408121E030E0C9018A
:1015E0005C960C905C9702C0880F991F0A94E2F7F2
:1015F0008095842380835696ED91FC915797408186
:10160000C9015D960C905D9702C0880F991F0A94DE
:10161000E2F78095842380835696ED91FC9157974D
:101620004081C9015E960C905E9702C0880F991F99
:101630000A94E2F78095842380835696ED91FC917D
:10164000579780815F960C905F9702C0220F331FDF
:101650000A94E2F72095282320831C96ED91FC91B3
:101660001D97EE5BFF4F8081918192938293DF9172
:10167000CF910895DC011C96ED91FC911D97E05CE3
:10168000FF4F2191319180819181281B390B2F735C
:101690003070C9010895DC011C96ED91FC911D97F5
:1016A000E05CFF4F20813181E054F040DF01AE5B10
:1016B000BF4F8D919C9111972817390719F42FEF7F
:1016C0003FEF07C08D919C91E80FF91F8081282F73
:1016D00030E0C9010895DC011C96ED91FC911D9745
:1016E000E05CFF4F20813181E054F040DF01AE5BD0
:1016F000BF4F8D919C9111972817390719F42FEF3F
:101700003FEF10C08D919C911197E80FF91F208138
:101710008D919C91119701968F73907011969C9367
:101720008E9330E0C9010895DC0191968C919197D8
:10173000882339F05496ED91FC915597808186FF6E
:10174000F9CF91961C920895CF93DF93EC01EE852B
:10175000FF85E05CFF4F20813181E054F0402F5F36
:101760003F4F2F733070DF01AE5BBF4F8D919C9167
:10177000119728173907D1F3E05CFF4F80819181E1
:10178000E054F040E80FF91F6083EE85FF85E05CD0
:10179000FF4F31832083EE89FF89208181E090E033
:1017A0000F8C02C0880F991F0A94E2F7282B208320
:1017B00081E089A3EC89FD8980818064808381E058
:1017C00090E0DF91CF910895109255041092540447
:1017D00088EE93E0A0E0B0E0809356049093570425
:1017E000A0935804B093590485E591E09093530475
:1017F000809352048AEC93E090935F0480935E049C
:101800008EE094E0909361048093600485EC90E016
:10181000909363048093620484EC90E09093650459
:101820008093640480EC90E0909367048093660456
:1018300081EC90E0909369048093680482EC90E0DE
:1018400090936B0480936A0486EC90E090936D040F
:1018500080936C0484E080936E0483E080936F0433
:1018600087E08093700485E08093710481E0809329
:1018700072040895CF93DF930E94D0080E94D20093
:10188000CFEFD9E00E9456052097E1F30E94FF09AF
:10189000F9CFCF92DF92EF92FF920F931F93CF93E6
:1018A000DF937C016B018A01C0E0D0E00FC0D6015C
:1018B0006D916D01D701ED91FC910190F081E02DCA
:1018C000C7010995C80FD91F015010400115110516
:1018D00071F7CE01DF91CF911F910F91FF90EF90A3
:1018E000DF90CF9008955058BB27AA270ED0A9C1EA
:1018F00069D130F06ED120F031F49F3F11F41EF425
:101900005EC10EF4E095E7FB54C1E92FBCD180F332
:10191000BA17620773078407950718F071F49EF5EC
:10192000D4C10EF4E0950B2EBA2FA02D0B01B901F6
:1019300090010C01CA01A0011124FF27591B99F045
:10194000593F50F4503E68F11A16F040A22F232F51
:10195000342F4427585FF3CF469537952795A795A1
:10196000F0405395C9F77EF41F16BA0B620B730B48
:10197000840BBAF09150A1F0FF0FBB1F661F771FB9
:10198000881FC2F70EC0BA0F621F731F841F48F46E
:10199000879577956795B795F7959E3F08F0B3CFF4
:1019A0009395880F08F09927EE0F979587950895DE
:1019B000DCD008F481E0089514D1E39553C10CD034
:1019C00040C107D140F0FED030F021F45F3F19F064
:1019D000F0C051117BC1F3C056D198F39923C9F3DC
:1019E0005523B1F3951B550BBB27AA276217730725
:1019F000840738F09F5F5F4F220F331F441FAA1FD9
:101A0000A9F333D00E2E3AF0E0E830D09150504098
:101A1000E695001CCAF729D0FE2F27D0660F771F46
:101A2000881FBB1F261737074807AB07B0E809F028
:101A3000BB0B802DBF01FF2793585F4F2AF09E3FBD
:101A4000510568F0B6C042C15F3FECF3983EDCF34D
:101A5000869577956795B795F7959F5FC9F7880F36
:101A6000911D9695879597F90895E1E0660F771F88
:101A7000881FBB1F621773078407BA0720F0621B19
:101A8000730B840BBA0BEE1F88F7E095089504D012
:101A90006894B1111BC10895FED088F09F5790F053
:101AA000B92F9927B751A0F0D1F0660F771F881F83
:101AB000991F1AF0BA95C9F712C0B13081F005D15B
:101AC000B1E0089502C1672F782F8827B85F39F0F9
:101AD000B93FCCF3869577956795B395D9F73EF4E2
:101AE00090958095709561957F4F8F4F9F4F08958A
:101AF000E89409C097FB3EF49095809570956195A8
:101B00007F4F8F4F9F4F9923A9F0F92F96E9BB275D
:101B10009395F695879577956795B795F111F8CFD9
:101B2000FAF4BB0F11F460FF1BC06F5F7F4F8F4F44
:101B30009F4F16C0882311F096E911C0772321F03A
:101B40009EE8872F762F05C0662371F096E8862FD2
:101B500070E060E02AF09A95660F771F881FDAF729
:101B6000880F9695879597F90895990F0008550F56
:101B7000AA0BE0E8FEEF16161706E807F907C0F013
:101B800012161306E407F50798F0621B730B840B1B
:101B9000950B39F40A2661F0232B242B252B21F4F5
:101BA00008950A2609F4A140A6958FEF811D811D95
:101BB000089597F99F6780E870E060E008959FEFCF
:101BC00080EC089500240A941616170618060906D4
:101BD000089500240A9412161306140605060895A3
:101BE000EECF59D0E8F3E894EFEFBB273FE048ECA5
:101BF0005FE76B3D73078407950708F1FF279F5741
:101C0000B25A6A4D7F40894CF04032F4BE5565426D
:101C1000704F8643FF4F0894EE1F915030F0BB0F7A
:101C2000661F771F881FFF1FEBCF9EE7882332F0C8
:101C3000BB0F661F771F881F9A95C1F79395E09594
:101C4000B8C0092E0394000C11F4882352F0BB0F86
:101C500040F4BF2B11F460FF04C06F5F7F4F8F4FC4
:101C60009F4F0895EF93E0FF06C0A2EA2AED3FE000
:101C700049EC5FEB4ADEE5DF0F90039401FC9058DE
:101C8000E8E6F0E0A6C057FD9058440F551F59F004
:101C90005F3F71F04795880F97FB991F61F09F3F59
:101CA00079F087950895121613061406551FF2CF82
:101CB0004695F1DF08C0161617061806991FF1CFD2
:101CC00086957105610508940895E894BB276627F9
:101CD0007727CB0197F9089548DF08F48FEF08952F
:101CE0000BD0AFCF6FDF28F074DF18F0952309F029
:101CF00060CF65CF1124EACFC6DFA0F3959FD1F363
:101D0000950F50E0551F629FF001729FBB27F00DA9
:101D1000B11D639FAA27F00DB11DAA1F649F6627FE
:101D2000B00DA11D661F829F2227B00DA11D621F4D
:101D3000739FB00DA11D621F839FA00D611D221F07
:101D4000749F3327A00D611D231F849F600D211DEB
:101D5000822F762F6A2F11249F5750408AF0E1F08E
:101D600088234AF0EE0FFF1FBB1F661F771F881FD7
:101D700091505040A9F79E3F510570F01ACFA6CF61
:101D80005F3FECF3983EDCF3869577956795B795C2
:101D9000F795E7959F5FC1F7FE2B880F911D9695EC
:101DA000879597F908959F931CDF0F9007FCEE5FCE
:101DB00059CF9F3F49F0915028F4869577956795C4
:101DC000B7959F5F80389F4F880F9695879597F9B5
:101DD00008959F938F937F936F93FF93EF939B014E
:101DE000AC017EDFEF91FF9105D02F913F914F9194
:101DF0005F9176CFDF93CF931F930F93FF92EF9274
:101E0000DF927B018C01689405C0DA2EEF0174DF4C
:101E1000FE01E894A5912591359145915591AEF338
:101E2000EF0173DDFE019701A801DA9479F7DF90E5
:101E3000EF90FF900F911F91CF91DF910895A1E254
:101E40001A2EAA1BBB1BFD010DC0AA1FBB1FEE1F34
:101E5000FF1FA217B307E407F50720F0A21BB30B7F
:101E6000E40BF50B661F771F881F991F1A9469F7FB
:101E700060957095809590959B01AC01BD01CF0157
:101E80000895EE0FFF1F0590F491E02D0994AA1B11
:101E9000BB1B51E107C0AA1FBB1FA617B70710F055
:101EA000A61BB70B881F991F5A95A9F78095909587
:0A1EB000BC01CD010895F894FFCFA6
:101EBA00536D6172744750552032202D2053696D3D
:101ECA00706C65204F7363696C6C6F73636F7065B8
:101EDA0000536D6172744750553A204F7363696CB1
:101EEA006F73636F70696F005061756C6F20536F09
:101EFA006172657300566F6C74732F4469763A0089
:101F0A000100000000A40B490C3A0B6B0B4B0B941D
:021F1A000B00BA
:00000001FF
