S01F000041726475696E6F5472616E736973746F725465737465722E7372656383
S11300000C9458040C946A040C946A040C946A04C6
S11300100C946A040C946A040C946A040C94792277
S11300200C946A040C946A040C946A040C946A0494
S11300300C946A040C946A040C946A040C946A0484
S11300400C946A040C946A040C946A040C946A0474
S11300500C946A040C946A040C946A040C946A0464
S11300600C946A040C946A04FD21182218221822A4
S113007018221822182218221822122215221822B5
S113008018221822182218221822182218220022B4
S11300900322062209220F220C22033607360B36CE
S11300A00F36133616363A363A362E363A36313657
S11300B034363736050A0605060A050A0609060A0D
S11300C0050A0609060A050A0609060A050A0609B2
S11300D0060A050A06050A060000000080601010E2
S11300E008C8C40404048448281F10608000000069
S11300F00808083EC908080808FFFF14224180C008
S113010000000000C13E00000000000000030404E1
S113011008091110101111090A7C040300000000E1
S1130120000000008060101008C8C40404C484489F
S1130130281F1060800000000808083EC90808084D
S113014008FFFF142241810100000000C13E0000AD
S11301500000000000030404080911101010100925
S11301600A7C0403000000000000000080601010FE
S1130170C808E44444444448487F106080000000B8
S11301800000003EC1000000FF009C08081C3E085F
S113019008F80000C13E000001010101010305054A
S11301A00908131111111109097F0C030000000043
S11301B040404040C0605050C808E444444444486F
S11301C0487F1060800000000000003EC100000075
S11301D0FF009C08083E1C0808F80000C13E00000F
S11301E0000000000003040409081311111111098F
S11301F0097F04030000000000000000806010106C
S1130200C808E44444444448487F10608000000027
S11302100000003EC1000000FF00FF08081C3E086B
S113022008F80000C13E00000101010101030505B9
S11302300908131111111109097F0C0300000000B2
S113024040404040C0605050C808E44444444448DE
S1130250487F1060800000000000003EC1000000E4
S1130260FF00FF08083E1C0808F80000C13E00001B
S113027000000000000304040908131111111109FE
S1130280097F0403000000000000000080601010DB
S1130290080804E48484848888FF106080000000D7
S11302A0808080BEC1808080E0C080FF80808080AC
S11302B080800000C13E0000000000000003040430
S11302C00B09101310101008087F0403000000002D
S11302D08080808080E09090C8E884E4848484886E
S11302E088FF1060800000000000003EC100000094
S11302F0010300FF8080808080800000C13E0000F8
S11303000000000000030404080810131010100873
S1130310087F04030000000000000000806010104B
S11303208808C40404048448281F10608000000066
S11303300808083EC9080808FF00FF14224180C0CD
S113034000000000C13E000000000000000304049F
S113035008081110101111090A7C040300000000A0
S113036000000000806010108808C40404C484489D
S1130370281F1060800000000808083EC90808080B
S1130380FF00FF142241810100000000C13E000073
S113039000000000000304040808111010101009E4
S11303A00A7C04030000000000000000000000209C
S11303B0E0E0E0E0FEE0E0E0E0200000000000001B
S11303C0000000000000008080838FBFFFBF8F8388
S11303D080800000000000000008080808080808E1
S11303E0080402017F00000000000000000000007B
S11303F0000000808080808080808080FE808080FB
S1130400808080808080000000000080E0F8FEFF93
S1130410FEF8E0800001071F7FFF7F1F0701000037
S1130420101010111109050301010101FF0101015F
S11304300101010101010000FF0102030405060797
S1130440FFFFFFFFFFFFFFFFFFFFFFFFFFFFFFFFB8
S1130450FFFFFFFFFFFFFFFF101112131415161704
S113046018191A1B1C1D1E1F202122232425262790
S113047028292A2B2C2D2E2F303132333435363780
S113048038393A3B3C3D3E3F404142434445464770
S113049048494A4B4C4D4E4F505152535455565760
S11304A058595A5B5C5D5E5F606162636465666750
S11304B068696A6B6C6D6EFFFFFFFFFFFFFFFFFF54
S11304C0FFFFFFFFFFFFFFFFFFFFFFFFFFFFFFFF38
S11304D0FFFFFFFFFFFFFFFFFFFFFFFFFFFFFFFF28
S11304E0FFFFFFFFFFFFFFFFFFFFFFFFFF05FFFF12
S11304F0FFFFFFFFFFFFFFFFFFFFFFFF08FFFFFFFF
S1130500FFFFFFFFFFFFFFFFFFFFFFFFFFFF09FFED
S1130510FFFFFFFF0AFFFF0BFFFFFFFF0CFFFFFFC3
S1130520FFFFFFFFFFFFFFFFFFFFFFFFFFFF0DFFC9
S1130530FFFFFFFF0EFFFFFF0000000000000000B0
S1130540087F3E1C087F7F08087F7F081C3E7F08C9
S1130550087F7F00007F7F084C5E7202725E4C0051
S1130560C07E3E201E3E2000087F41414141414162
S11305704141414141417F087D7E1311137E7D003D
S11305801D3E6341633E1D003F7F4140417F3F006C
S1130590FFFF4949497F3600317A4A4A7E3D40008F
S11305A0183D6642663D18003E7E4140217E7E0035
S11305B00000000000000000000000000000000037
S11305C000066F6F06000000000B0700000B070019
S11305D0367F7F367F7F3600042E2A6B2A3A10003E
S11305E06373381C0E676300367F49793B6A4800A1
S11305F00000070B0000000000001C3E63410000E7
S1130600000041633E1C000000150A1F1F0A15006C
S11306100018187E7E1818000000B070000000005A
S113062008080808080808000000606000000000CE
S11306306070381C0E0703001C3E6341633E1C00BF
S113064000427F7F4000000062735159494F4600C9
S11306502263414949773600181C16137F7F100026
S113066027674545457D38003C7E4B494979300034
S1130670030371790D070300367F4949497F36002A
S1130680064F4949693F1E000000006666000000ED
S1130690000000A66600000000081C36630000008D
S11306A03636363636363600004163361C080000CE
S11306B00203696D070600003E635D555D6B2E0005
S11306C07C7E1311137E7C007F7F4949497F36006D
S11306D01C3E6341416322007F7F4141633E1C0015
S11306E07F7F4949494941007F7F09090909010080
S11306F01C3E6341497979007F7F0808087F7F00A9
S11307000000417F7F41000030704040407F3F0047
S11307107F7F183C366341007F7F4040404040006B
S11307207F7F0E1C0E7F7F007F7F0E1C387F7F0033
S11307301C3E6341633E1C007F7F1111111F0E009C
S11307403E7F4151713F5E007F7F0919396F46003A
S1130750266F4949497B32000001017F7F01010076
S11307603F7F4040407F3F000F1F3870381F0F000D
S11307703F7F4038407F3F0063773E1C3E776300F5
S113078000070F78780F07006171795D4F474300C8
S1130790007F7F414100000003070E1C3870600099
S11307A00041417F7F000000080C0603060C08008E
S11307B080808080808080000000070B00000000A3
S11307C0307A4A4A7E3C40007F7F4442627E3C004D
S11307D0183C6642426624003C7E4242447F7F00CD
S11307E03C7E4A4A4A6E2C0000087E7F090A0000BB
S11307F01C3EA2A292FE7C007F7F0402027E7C004B
S11308000000487B7B4000000040C088FB7B000068
S1130810007F7F08346642000000017F7F000000F3
S11308207E7E027E047E7C007E7E0402067C78004E
S1130830183C6642663C1800FEFE2242427E3C00A2
S1130840003C7E424222FEFE7E7E0402020E0C002A
S1130850246E4A4A4A7A300004043F7F44642000EC
S11308603E7E4040207E7E000E1E3060301E0E0014
S11308703E7E4030407E3E0062761C081C7662005C
S11308801E3EA0A090FE7E004262725A4E460000B8
S1130890083E7741410000000000007F7F00000017
S11308A000004141773E08001C1C1C7F3E1C0800D0
S11308B011241FBECFEFD8E0DEBFCDBF21E0A0E002
S11308C0B1E001C01D92A83BB207E1F70E94962057
S11308D00C9444370C9400006F927F929F92AF92D5
S11308E0BF92CF92DF92EF92FF920F931F93CF9319
S11308F0DF9380640F2EFCE7EF2EF12CF02D0F2EEA
S1130900FBEA6F2EF1E07F2EF02DEAE7F0E0912C68
S1130910A12CB12CC12CD12C08E710E0D7018C9369
S1130920282F2078E3019B81921771F0AFE8B1E0A2
S11309301197F1F700C0000090819064908390813A
S113094096FDFDCFE3012B83D3011196CC91CC23EB
S113095039F1492D5A2D6B2D7C2D3D2D90819064BC
S11309609083908196FDFDCFD801CD91DC914C0F01
S11309705D1F611D711D343061F44115B4E05B07E6
S113098040F4882334F0E3019A81913011F48068B3
S1130990C5CF3F5FD3011196CC913C17F8F203C049
S11309A040E050E0BA0188232CF4A091AF01B0914B
S11309B0B00104C0A091B101B091B2019A01AB01A0
S11309C00E94E336052E5AE09695879577956795AC
S11309D05A95D1F7502D2C2F30E040E050E00E9482
S11309E08636C901DF91CF911F910F91FF90EF904F
S11309F0DF90CF90BF90AF909F907F906F900895BD
S1130A00EFE1FEE43197F1F700C000000E946C04AE
S1130A1008952FEF39EF90E0215030409040E1F7F6
S1130A2000C000000E946C040895EBE9F1E088EC3A
S1130A3090E0918380838CED90E09383828384E1C2
S1130A4090E0958384838BE2868317828FE080878E
S1130A5086E18187089580919B019AE09150F1F796
S1130A60880F982F990F990F890F09F481E0089541
S1130A70FF920F931F93CF93DF93F82E623019F0F8
S1130A8008ED12E002C00DEC12E00E942B058093E9
S1130A90A501CBE9D1E082E0F81205C06881C80164
S1130AA00E94263704C0C8010E9418378883219603
S1130AB00F5F1F4F81E0C63AD80769F782E0F81646
S1130AC0C1F00E942B059091A501992391F08917FB
S1130AD081F00E94463087E491E00E94F60F81E4A1
S1130AE092E00E941D1080ED97E00E9486220E94F1
S1130AF01505DF91CF911F910F91FF9008950F93EA
S1130B001F93CF93DF9381E00E941A100E94463016
S1130B1087E791E00E941510CBE9D1E068817981E3
S1130B2080E090E024E04FEF0E946B3283E791E095
S1130B300E9428106A817B8180E090E024E04FEFDE
S1130B400E946B328DE591E00E9428106E8170E066
S1130B5080E090E026E444EF0E946B328AE591E065
S1130B600E9428106C817D8180E090E024E04EEFAB
S1130B700E946B3283E891E00E9428100BEA11E096
S1130B80F8016481758180E090E026E54DEF0E94D4
S1130B906B3286E591E00E942810F8016681778126
S1130BA080E090E026E54DEF0E946B3280E591E015
S1130BB00E9428106885062E000C770B880B990B71
S1130BC026E54DEF0E9434330E94CA33DF91CF9162
S1130BD01F910F9108952F923F924F925F926F92BF
S1130BE07F928F929F92AF92BF92CF92DF92EF92B9
S1130BF0FF920F931F93CF93DF93CDB7DEB72C975C
S1130C000FB6F894DEBF0FBECDBF81E00E94D03393
S1130C10882309F4BDC1412C512C1A821C821B82E9
S1130C201982212C312CB12C1A8619861886C12CD4
S1130C30D12CE12CF12C612C712CAA24A39401E079
S1130C406894882482F8102F6894992491F824E6F3
S1130C502F835E824D824B2C592C7BC10E944630DF
S1130C6081E40E949B30892D0E949B300E941110C8
S1130C703C85333009F44FC030F4313061F0323008
S1130C8009F442C01BC18C85843009F471C08530DD
S1130C9009F4AAC013C18AE591E00E94151080E608
S1130CA091E00E94F60F40E060E0812F0E9404234F
S1130CB080E00E9492253C0194E66916710418F4C0
S1130CC0260C371C439440E060E0852D0E940423E9
S1130CD080E00E9492257C018436910518F4280E48
S1130CE0391E439440E0612F852D0E94042380E047
S1130CF00E9492256C018436910508F0E1C0280E0B
S1130D00391E4394812FE1C080E00E94D03380E0FB
S1130D102F812B87DAC087E791E00E94F60F18B87D
S1130D2007B905B904B980E00E9400053C0132E02E
S1130D3037B985B884B8812F0E9400057C0153011E
S1130D40A80EB91E8B819C81A80EB91E87B890E1AC
S1130D5095B994B9852D0E9400056C01F501E80F41
S1130D60F91FFC83EB83F981FD5FF983812FADC00B
S1130D7083E791E00E94F60F15B808B907B904B9E2
S1130D806090B1017090B20180E00E940005681A81
S1130D90790A22E028B927B984B8E090B101F0902B
S1130DA0B201812F0E940005E81AF90A5301AE0C22
S1130DB0BF1C8D819E81A80EB91E88B887B890E1AA
S1130DC094B9C090B101D090B201852D0E94000564
S1130DD0C81AD90AF501EC0DFD1DFE83ED83FA81D5
S1130DE0FD5FFA83812F71C08DE591E00E9415109B
S1130DF080E691E00E94F60F40E060E0812F0E94BF
S1130E00DD0E8091420190914301A0914401B09183
S1130E1045013C0120913D01243F71F48536910543
S1130E20A105B10548F429853A85280F391F3A8769
S1130E30298738853F5F3887412F60E0852D0E94E0
S1130E40DD0E80914D0190914E01A0914F01B09122
S1130E5050017C0120914801243F71F485369105AD
S1130E60A105B10548F4E985FA85E80FF91FFA8769
S1130E70E987F885FF5FF887452D612F852D0E944E
S1130E80DD0E8091580190915901A0915A01B091C1
S1130E905B016C0120915301243FA1F48536910537
S1130EA0A105B10588F429853A85280F391F3A87A9
S1130EB0298738853F5F3887812F07C0812F05C078
S1130EC0812F03C0812F01C0812F17B818B814B81F
S1130ED015B8882309F10E94D10FC301A0E0B0E046
S1130EE020E040E0BC01CD010E946B320E94111051
S1130EF0C701A0E0B0E020E040E0BC01CD010E94C9
S1130F006B320E941110C601A0E0B0E020E040E086
S1130F10BC01CD010E946B328B85843678F460E08D
S1130F2088EE93E00E945833882341F0AC848230E9
S1130F3061F40F2EF4E6AF2EF02D07C09B859F5F62
S1130F409B87963008F48ACEAC84A394E5E0EA1536
S1130F5040F00F2EF0E39F2EF02D9A0CAC860B87F9
S1130F607DCEB42C4D805E80F885FF30E1F4298578
S1130F703A85A9E8B8E80E94CD3696958795969566
S1130F808795969587958093A101AA24A3940CC074
S1130F90412C512C1A821C821B821982212C312C47
S1130FA0B12CA12C01C0A12C2FE0B21210C09101D0
S1130FB0A9E8B8E80E94CD369695879596958795C9
S1130FC0969587959093A00180939F01A39439816E
S1130FD03F3009F069C08A818F3009F065C02B81E8
S1130FE03C81ADECBCEC0E94CD36AC0156954795E6
S1130FF05695479592010E94CD368C01169507951A
S1131000169507952091B1013091B2016901CC0C7C
S1131010DD1CC20ED31EC41AD50AC01AD10AE12C93
S1131020F12CDA0120EA39E041E050E00E94E33695
S1131030A70196010E948636CA01B9016B5F7F4FF2
S11310408F4F9F4F2AE030E040E050E00E94863608
S11310502A3F31054105510528F430939C01209322
S11310609B01A394D80120EA39E041E050E00E94BA
S1131070E336A70196010E948636CA01B9016B5F67
S11310807F4F8F4F9F4F2AE030E040E050E00E94B6
S11310908636283191E039074105510528F430930B
S11310A09E0120939D01A3940E947F0581E0E4E0CA
S11310B0AE1280E02C960FB6F894DEBF0FBECDBF03
S11310C0DF91CF911F910F91FF90EF90DF90CF9020
S11310D0BF90AF909F908F907F906F905F904F9054
S11310E03F902F9008952F923F924F925F926F926C
S11310F07F928F929F92AF92BF92CF92DF92EF92A4
S1131100FF920F931F93CF93DF9300D01F92CDB71D
S1131110DEB781E00E94D033882309F451C100E096
S113112010E0212C312C812C912CFF24F394689411
S1131130772471F80F2EFBEA4F2EF1E05F2EF02D8D
S11311406894662463F8B72C84E6898322C10E94DC
S1131150463084E50E949B308D2D0E949B300E9476
S11311601110EA81E33009F471C028F4E13069F028
S1131170E23001F1CEC0FA81F53009F49EC008F4E2
S113118096C0F63009F4AEC0C4C08EE00E946C0470
S11311908EE00E946C047C0183E891E00E94F60FCB
S11311A00E94D10FB70180E090E026E54DEF0E9448
S11311B06B3200C18EE691E00E94151080E691E04A
S11311C00E94F60F81E085B985E084B98B2D0E94D9
S11311D009054C01F20126813781A0E7B3E00E94A2
S11311E0CD3624EF36E040E050E00E94A836821A63
S11311F0930AF1E1F4B981E00E9409051C01F201AE
S113120026813781A0E7B3E00E94CD3624EF36E093
S113121040E050E00E94A836221A330AF4E0F5B9FF
S113122084E184B981E00E9409058C01F2012681E0
S11312303781A0E7B3E00E94CD3624EF36E040E0EA
S113124050E00E94A836021B130BB7C089E691E058
S11312500E94151080E691E00E94F60F75B8FAE03E
S1131260F4B98B2D0E940905F20126813781369548
S113127027954C01821A930AF2E2F4B981E00E94A4
S11312800905F20126813781369527951C01221A1A
S1131290330A65B8A4B880E00E940905F2012681EA
S11312A03781369527958C01021B130B86C080E08D
S11312B00E94D033F981FB837DC08FE791E00E94C7
S11312C0F60F15B874B880E00E9409054C0164B8A3
S11312D081E00E9409051C01C4B88B2D0E940905F8
S11312E08C016BC08BE791E00E94F60F74B875B85F
S11312F080E00E9409054C0164B865B881E00E9451
S113130009051C01C4B8C5B88B2D0E9409058C01C0
S113131054C014B815B80E94D10F20E040E0B401C5
S1131320092C000C880B990B0E9434330E94111075
S113133020E040E0B101032C000C880B990B0E94C3
S113134034330E94111020E040E0B801012E000C5B
S1131350880B990B0E9434338B81843678F460E0D7
S113136088EE93E00E945833882341F0FA8082305B
S113137061F40F2EF4E6FF2EF02D07C0EB81EF5F32
S1131380EB83E63008F4E3CEFA80F394F6E0FF153D
S1131390B8F0EE24E3940F2EF0E3DF2EF02DDF0CF3
S11313A00F2EF8E2AF2EF02D6894CC24C5F8FA8203
S11313B0EB82CDCE14B815B8CFCF14B815B8ABCFD7
S11313C081E00F900F900F90DF91CF911F910F91BB
S11313D0FF90EF90DF90CF90BF90AF909F908F9051
S11313E07F906F905F904F903F902F90089516BC20
S11313F081E085BDA99BFECF15BC82E085BB089525
S11314002F923F924F925F926F927F928F929F9210
S1131410AF92BF92CF92DF92EF92FF920F931F93FE
S1131420CF93DF93CDB7DEB728970FB6F894DEBF1E
S11314300FBECDBF009709F449C16C01FC01638163
S11314407481858196810F2EF7EFEF2EF02D04EB3A
S113145010E020E030E042810E94AC3188230CF49B
S113146038C10E94A32380910901813009F434C159
S1131470F6011081018140E0602F812F0E94042336
S1131480106C1983006C0A8315BC82E084BD85ED61
S113149087BD18B8F981F0937C008FE39CE901972C
S11314A0F1F700C00000EFE8F1E0828587B983819D
S11314B085B984B90E94F70915B814B822242A946E
S11314C0812C912C54018394412C512C320143944E
S11314D00FE811E00F2EFCE7EF2EF12CF02D0F2E6C
S11314E0F7ED3F2EF02D0F2EF8E7CF2ED12CF02D57
S11314F0F801818587B9838185B984B92981F70188
S11315002083A895EAE7F0E03082EAE7F0E0808102
S113151086FDFBCF3082EAE7F0E0808186FDFBCFD9
S1131520F6010190F081E02DFC83EB832A81F70121
S11315302083EAE7F0E03082EAE7F0E0808186FD8C
S1131540FBCF3082FAE1FA95F1F700C0F80185810A
S113155085B984B90E94F7090E94F70915B814B82F
S1131560EAE7F0E0808186FDFBCFF6010190F0818F
S1131570E02DFE83ED83F801828587B9858185B9E5
S113158084B92A81F7012083A895EAE7F0E0308244
S1131590EAE7F0E0808186FDFBCF3082EAE7F0E005
S11315A0808186FDFBCFF6010190F081E02DF88764
S11315B0EF832981F7012083EAE7F0E03082EAE74C
S11315C0F0E0808186FDFBCF3082FAE1FA95F1F7F5
S11315D000C0F801838185B984B90E94F7090E948B
S11315E0F70915B814B8EAE7F0E0808186FDFBCF6F
S11315F0F601208131818F8198854B815C81840F34
S1131600951F480E591E611C711C8D819E81820F8D
S1131610931F880E991EA11CB11C2536310550F468
S1131620F801238125B924B9FAE0FA95F1F700C04D
S113163014B815B88536910580F4F801818587B909
S1131640858185B984B9FAE0FA95F1F700C00E9462
S1131650F7090E94F70914B815B82A94211048CF45
S1131660481459046A047B0438F4A501940124192C
S113167035094609570903C020E030E0A9010BE908
S113168011E0F80180819181DC01AA0FBB1F880F52
S1131690991F880F991F880F991FA80FB91F0E94BF
S11316A0E336A30192010E948636F8018481958174
S11316B08217930728F4B901681B790BCB0102C088
S11316C080E090E020E82093AE0108C080E090E044
S11316D005C080E090E002C080E090E028960FB65C
S11316E0F894DEBF0FBECDBFDF91CF911F910F9154
S11316F0FF90EF90DF90CF90BF90AF909F908F902E
S11317007F906F905F904F903F902F9008952F920D
S11317103F924F925F926F927F928F929F92AF927D
S1131720BF92CF92DF92EF92FF920F931F93CF93CA
S1131730DF9300D000D01F92CDB7DEB79B838A839E
S11317400F2EF1E1CF2EF02D23E029830F2EF8E0A8
S11317508F2EF1E09F2EF02D0F2EFFE8EF2EF1E0FB
S1131760FF2EF02D212C312C44244394712C522C27
S1131770632C0E94A323D40111968C91813009F427
S1131780E8C018B8F701828587B915B814B8808104
S11317900E946C045C01022D132DD42C0F5F1F4F8B
S11317A06C2DD70113968C910E946B24F7018081D4
S11317B00E946C04A816B90608F0CFC09C012A192F
S11317C03B093D832C830E37110531F42B3431054D
S11317D008F0CAC0D72CC8C04C815D814C3251403E
S11317E020F0D72C02C05C826D82043F81E0180790
S11317F019F4D72C01C0D72CA895D110CFCF2C81A8
S11318003D81C8012C32A1E03A0708F449828130B5
S1131810910571F42531354008F4ADC08C2D8071EB
S11318200F2EF9E0CF2EF02D8111A3CF82E0E6C078
S1131830C801E981E33009F0A4C0892B11F418C070
S11318408C0178010F2EFFE88F2EF1E09F2EF02DF2
S1131850F1E0EF1AF108D4018C910E946C04A89570
S1131860E114F104A9F78A199B092C813D8104C074
S11318702C813D8180E090E08217930788F4F90180
S1131880E81BF90BCF01E536F10508F079C00AC071
S1131890F981F33009F05FC08C0180E090E002C070
S11318A080E090E062E02C813D81820F931F0E94D2
S11318B090249801DC010E94CD364B015C018C2DF3
S11318C0807109F46EC0880C991CAA1CBB1CD5013C
S11318D0C401880F991FAA1FBB1F880F991FAA1F35
S11318E0BB1FA5019401280F391F4A1F5B1F490123
S11318F05A01283369E8360761E44607510508F0C0
S113190059C041C02DE630E040E050E00E948636E8
S113191006C028E630E040E050E00E948636EFE85A
S1131920F1E08181AA81BB818C93808111968C9393
S1131930119712961C931297FD0187829086A186B7
S1131940B28613962D933D934D935C93169783E043
S113195055C080E053C0898151C00E37110509F08C
S113196042CF5C826D82D72CEC81FD81EC32F14058
S113197008F041CF3ACF3981333009F461CF88CFB1
S1131980198289813BC0A4E6B0E00E94E33617EFD8
S1131990B9CFA4E6B0E0A50194010E94E33617EFA5
S11319A0B8CF48E3841649E8940641E4A406B10498
S11319B098F4EFCFCA01B90128EE33E040E050E0DB
S11319C00E948636822E932EA42EB52EA4E6B0E075
S11319D00E94E3361AEF96CFC501B40128EE33E036
S11319E040E050E00E948636822E932EA42EB52E1F
S11319F0A4E6B0E00E94E3361AEF8BCF0F900F906D
S1131A000F900F900F90DF91CF911F910F91FF9046
S1131A10EF90DF90CF90BF90AF909F908F907F908A
S1131A206F905F904F903F902F9008958F929F9268
S1131A30AF92BF92CF92DF92EF92FF920F931F93D8
S1131A40CF93DF934C010E94A3238091090181303D
S1131A5009F428C115B897E097B918B8EFE8F1E090
S1131A60848184B980E480937B0084E480BF808196
S1131A70806480937C0090937A008FE193E00197D7
S1131A80F1F700C0000010928000109281001092C3
S1131A9085001092840087E286BB848185B9809199
S1131AA00901863161F481E090E000908F0102C069
S1131AB0880F991F0A94E2F78095877002C080917D
S1131AC0990191E09093810087B9E12CF12C81E098
S1131AD096B395FD0DC090FFFBCF86BBA8959FEFF5
S1131AE0E91AF90AA0E8EA16ACE0FA0689F7E2C0B6
S1131AF01092810080E286BBC0908600D09087005F
S1131B0014B82091840030918500C216D30638F4AD
S1131B1090FF05C081E086BBBFEFEB1AFB0A87E9A3
S1131B2080937A00CFE8D1E088810E946C048C0114
S1131B3015B88C8184B9C0E8EC16CCE0FC0608F436
S1131B40CBC0B2C0D2E0CD1AD108E108F108E8E375
S1131B50CE16E9E8DE06E1E4EE06F10408F4D3C0AB
S1131B60C701B60128EE33E040E050E00E9486361B
S1131B7069017A012091A3018091AF019091B00194
S1131B8061E0820F911D27FD9A950E949024DC014B
S1131B90A70196010E94E33620E436E040E050E0DD
S1131BA00E948636EFE8F1E08181D4018C93808134
S1131BB011968C93119787EF12968C93E4012F83DF
S1131BC0388749875A872B833C834D835E83213230
S1131BD03E444105510510F183E0E2C069017A01F8
S1131BE0C81AD90AEA0AFB0AEFE8F1E06181E401C4
S1131BF068836081698364EF6A832F8338874987A8
S1131C005A87CB82DC82ED82FE82D0EACD16D6E8FA
S1131C10DD06D1E0ED06F10408F448C0CFE8D1E0D8
S1131C2088810E946C04853D9340D0F714B80F2E30
S1131C30FBEACF2EF1E0DF2EF02DD60112961C9296
S1131C40CFE8D1E088810E946C047C0181E0F60138
S1131C50828388810E946C04AC018C8184B9D70191
S1131C60A41BB50BCD010496099768F02091AF0130
S1131C703091B0010E94DC369A0140E050E00E94AD
S1131C80A8362093A2018091AF019091B001081B66
S1131C90190BC801C1968336910550F40093A30132
S1131CA083E07EC080E07CC081E07AC083E078C0BD
S1131CB083E076C01092810080E286BBC0908600EB
S1131CC0D090870014B88091840090918500C81644
S1131CD0D90608F41FCF58C0C601A0E0B0E0A701A0
S1131CE060E070E0BA01552744276A017B01C82AE5
S1131CF0D92AEA2AFB2AF3E0CF16D104E104F1043D
S1131D0008F020CF24CF0F2EFBE9AF2EF1E0BF2E39
S1131D10F02DD50118962C918091AF019091B001CE
S1131D2061E0820F911D27FD9A950E949024DC01A9
S1131D30A70196010E94E33620E436E040E050E03B
S1131D400E948636E5018E8190E0A0E0B0E028177D
S1131D5039074A075B0708F041CFEFE8F1E08181DA
S1131D60D4018C93808111968C93119784EF1296F1
S1131D708C93E4012F83388749875A871B821C82FE
S1131D801D821E8283E00CC087E980937A00CFE82D
S1131D90D1E088810E946C0415B88C8184B981E0FB
S1131DA0DF91CF911F910F91FF90EF90DF90CF9033
S1131DB0BF90AF909F908F9008955F926F927F92A3
S1131DC08F929F92AF92BF92CF92DF92EF92FF9247
S1131DD00F931F93CF93DF93C42ED12C9BE0499F85
S1131DE0F0011124E55CFE4F1082118294EF92837E
S1131DF01782108611861286138214821582168227
S1131E0090910901913009F4BCC0C62FD82F9A30A3
S1131E1009F04CC080910B01882309F4B2C00F2E45
S1131E20F2E1AF2EF1E0BF2EF02D0F2EF3E18F2E55
S1131E30F1E09F2EF02DF12C0F2EF3E65F2EF02D06
S1131E400F2EF8E06F2EF1E07F2EF02DD501F50175
S1131E50319780818D1304C0F50190819C1729F07E
S1131E608C1315C08C918D1312C012966D917D91B7
S1131E708D919C911597E12C0AE010E020E030E070
S1131E80D4014C910E94AC318F3F09F4F52CF394AA
S1131E90B7E0AB0EB11CE7E08E0E911CD301139694
S1131EA08C91F81698F2B4E6FB126BC030910C01D9
S1131EB03323B9F0EDE5F1E090E020812C130DC05F
S1131EC0AF0141505109DA018C918D1306C0418153
S1131ED052814C3D554008F454C09F5F369693138D
S1131EE0ECCF8BE08C9D80018D9D100D1124055C41
S1131EF01E4F40E06C2F8D2F0E940423C8010E94C6
S1131F00870B823019F4C8010E94160D80910C01D0
S1131F10811131C0809109018A3079F48BE08C9D64
S1131F20F0018D9DF00D1124E55CFE4F82818A3F06
S1131F3014F18BE0809309011EC08BE08C9DF001AD
S1131F408D9DF00D1124E55CFE4F8281853F84F464
S1131F508BE08C9DF0018D9DF00D1124E55CFE4F0E
S1131F6083819481A581B6810597A105B10518F0F7
S1131F708BE0809309010E94A32317B818B814B802
S1131F8015B8DF91CF911F910F91FF90EF90DF90E3
S1131F90CF90BF90AF909F908F907F906F905F9005
S1131FA00895CF93E6E2F1E0C181638185818613D0
S1131FB017C0C0FD0E94CA33C1FF0FC0C0912B01DE
S1131FC0C23030F08C2F0E942530C150C130D1F77F
S1131FD062E081E00E94083007C00E94463004C0DD
S1131FE06F5F81E00E940830CF910895CF93DF9313
S1131FF0EC01CE010E941837882321F00E949B3007
S11320002196F7CFDF91CF9108958F5C0E949B308A
S1132010089582E00E94253062E081E00E94083049
S1132020089580E20E949B3008950E94F60F0E945A
S113203011100895809327010895CF93DF93EC0145
S11320400E94D10FCE010E94F60FDF91CF91089527
S1132050CF93DF93EC010E94D10FCE010E94F60FC3
S11320600E941110DF91CF9108950F931F93CF9386
S1132070DF938C010E940910D0E08CE391E00E9470
S11320801510C8010E94F60F60E08CEB92E00E94EC
S11320905833C82F0E940910C1110AC060E08CE2B5
S11320A091E00E945833811103C0DF5FD33028F3DD
S11320B08AEF90E00E948622DF91CF911F910F91C9
S11320C008954F925F926F927F928F929F92AF92F8
S11320D0BF92CF92DF92EF92FF920F931F93CF9311
S11320E0DF936C0180E00E94D0330E94463080E38D
S11320F091E00E941510E12CF12C28E440E0C70186
S1132100B6010E946B328AE70E949B3088E291E01C
S11321100E94351018B885E087B984E084B915B8F1
S113212060E072E18AE790E0A70196010E9486369A
S113213029013A01213884E838078EE1480751051E
S113214030F0432E542E652E772424E013C021381A
S1132150EEE33E074105510560F029013A01689418
S113216015F876946794579447941694D1F723E01E
S113217001C021E0C2019695879501971092AB01A9
S1132180E1E8F0E0108233E23093800030E1308304
S11321901092850010928400A2014150510950937D
S11321A089004093880090938B0080938A00822F4B
S11321B080618083C2E353014201AA24BB240F2E11
S11321C0F4E6CF2ED12CE12CF12CF02D0AE810E00E
S11321D00E9409108C2F90E0A0E0B0E025E240E0DE
S11321E0BC01CD010E946B3284EF91E00E948622F3
S11321F060E080E090E00E945833D82F813079F479
S113220082E390E00E94862260E088EC90E00E94E5
S11322105833811131C0C036F8F4CB5F1DC0C530CE
S113222008F0C550AC2FB0E0A50194010E94E3363C
S1132230A70196010E94863621503109F8013183A5
S11322402083D111C5CF109281001092800014B860
S113225086E08093AB0125C0AC2FB0E0A5019401CA
S11322600E94E336A70196010E9486362150310967
S1132270F80131832083ACCFA30192014427552771
S1132280AC2FB0E00E94E33624E630E040E050E0BA
S11322900E9486362150310930938B0020938A00A6
S11322A0D2CFDF91CF911F910F91FF90EF90DF90EC
S11322B0CF90BF90AF909F908F907F906F905F90E2
S11322C04F9008950F931F93CF93DF9310920C01B7
S11322D00E94463088E391E00E94F60F84E391E087
S11322E00E9435108DE20E949B30C8E0D1E00BE3E0
S11322F011E060E080E090E00E945833813059F4AE
S113230082E390E00E94862260E088EC90E00E94E4
S11323105833811130C00E94091082EC92E00E946F
S1132320F60F40E060E081E00E94DD0E0E9409109B
S113233099819B30E1F4F8016381748185819681F0
S113234026E442810E946B320E941110C8010E944F
S1132350000A009741F0BC0180E090E024E04EEFD9
S11323600E946B32C6CF8DE20E949B30C2CF8DE2B9
S11323700E949B30BECFDF91CF911F910F910895A2
S11323800F931F93CF93DF938C01EFE8F1E09581D6
S11323908381892B85B984B918B8838587B98FEC73
S11323A097E00197F1F700C0000026B191859223D0
S11323B011F0C2E001C0C0E080919901822309F0CC
S11323C0C16014B817B8F8012081922F969596959C
S11323D0392F337096959695333009F441C02370A4
S11323E0C21709F440C08C2F822780FF8695813064
S11323F0E9F5220F4DE850E002C0559547952A951E
S1132400E2F743704C1711F0D2E001C0D1E0D313CE
S113241030C09F5F943081F50E940910D13051F48F
S1132420E1E8F1E0AFE8B1E08C91808311968C9102
S113243081830AC0E1E8F1E0AFE8B1E011968C9144
S1132440119780838C918183809191018093830182
S113245043E462E481E40E94071B8D2F90E00DC0E9
S1132460D0E080E00AC0D32F80E007C0D3E080E052
S113247004C091E080E001C080E0DD0FDD0F9295A3
S1132480907F9D2B9C2BF8019083DF91CF911F911E
S11324900F9108951F93CF93DF9300D01F92CDB770
S11324A0DEB70E9446308AE192E00E94F60F8CE08B
S11324B089838A838B8385E015E0A895853031F480
S11324C00E9409108EE092E00E94F60F42E061E063
S11324D080E00E940423CE0101960E94C011811164
S11324E015C041E062E00E940423CE0102960E94DE
S11324F0C01181110BC040E062E081E00E9404231E
S1132500CE0103960E94C011882339F06BE088EB5A
S11325109BE00E945833812FD0CF4F99CECF84E6D1
S113252090E00E9486220F900F900F90DF91CF9140
S11325301F9108951F93CF93DF93009709F4BDC0B3
S1132540162FEC010E94A32380910901813009F424
S1132550B6C015B818B810FF07C0EFE8F1E08581E0
S113256084B9818587B907C014B8EFE8F1E0928592
S11325708185892B87B980E480937B0084E480BFC4
S113258080919001806480937C0087E080937A003E
S11325908FE193E00197F1F700C0000010928000F2
S11325A010928100109285001092840087E286BB0D
S11325B0F12FF47012FF0DC08091980188B990E159
S11325C000009150E9F7A1E8B0E08C9181608C9310
S11325D008C0A1E8B0E08C9181608C93809198014F
S11325E088B920E030E081E096B395FD0AC090FF01
S11325F0FBCF86BBA8952F5F3F4F20343105A1F751
S113260060C01092810080E286BB409186005091A8
S11326108700AFE8B1E013966C91139715968C91EF
S1132620862B84B917B86091840070918500461791
S1132630570750F490FF0AC0E3E001C0E0E081E0F6
S113264086BB2F5F3F4F03C0E3E001C0E3E087E9AF
S113265080937A0060E070E0C901A0E0B0E0DC01A2
S113266099278827842B952BA62BB72BF11145C0CE
S11326704BC0BC01CD0164507109810991096115F8
S113268071058105910569F0AEE3B0E09B01AC01F1
S11326900E94E336653671058105910540F4E2E058
S11326A006C0E2E004C060E070E0CB01E2E06883D1
S11326B079838A839B838E2F2DC080E02BC080E09A
S11326C029C01092810080E286BB4091860050911F
S11326D08700AFE8B1E013969C91139715968C91FF
S11326E0892B84B917B8809184009091850048178C
S11326F0590708F4A3CFE0E0AACFBC01CD01645C84
S11327007F4F8F4F9F4FBBCF84309105A105B105FB
S113271050F2AFCFDF91CF911F9108954F925F9206
S11327206F927F928F929F92AF92BF92CF92DF92DD
S1132730EF92FF920F931F93CF93DF93CDB7DEB742
S113274028970FB6F894DEBF0FBECDBFE6EAF1E0DE
S113275010821182128213821482009709F4F5C048
S11327606C01FC016381748185819681E12C00ED0B
S113277017E020E030E042810E94AC3188230CF065
S1132780E6C040E0F601618180810E94042361E09B
S1132790CE0101960E949A128230B1F4F60163814F
S11327A074818581968108E210E020E030E0428166
S11327B00E94AC3188230CF0CEC062E0CE010196B9
S11327C00E949A1212E01CC0833009F0C4C065E074
S11327D0CE0105960E949A124D815E816F817885A3
S11327E089809A80AB80BC80481559056A057B05B1
S11327F030F449835A836B837C8315E001C015E070
S1132800833009F0A6C0F6016381748185819681C5
S11328102FEF42810E942C32ABE9B1E0ED91FC91A3
S1132820119712968D909C9013978E0E9F1E680D93
S1132830791D10FF04C06057754EE057F54E809126
S1132840A301A091AF01B091B001A80FB11D87FD04
S1132850BA954B01A12CB12CA50194010E94E33639
S11328609F0140E050E00E948636CA01B90125E08C
S113287030E040E050E00E94863663E0C9010E94E7
S113288090247C0129813A814B815C81213AF6E8CC
S11328903F07F1E04F075105D8F017EF0F2EFAE08C
S11328A04F2E512C612C712CF02DCA01B9016B5F94
S11328B07F4F8F4F9F4FA30192010E9486361F5F67
S11328C0213A86E8380781E04807510570F701C0CE
S11328D017EFD7010E94E3369B01AC01613A7648B9
S11328E081409105C8F00F2EFAE0CF2ED12CE12CB7
S11328F0F12CF02DCA01B9016B5F7F4F8F4F9F4FB1
S1132900A70196010E9486361F5F213AF6E83F0729
S1132910F1E04F07510570F7C501B4010E944E362E
S11329200F2EF6EAEF2EF1E0FF2EF02DF7011083C3
S113293020E137E240E050E00E948636F70121832F
S113294032834383548381E007C080E005C080E084
S113295003C080E001C080E028960FB6F894DEBF83
S11329600FBECDBFDF91CF911F910F91FF90EF90DC
S1132970DF90CF90BF90AF909F908F907F906F909B
S11329805F904F9008958A3010F4805D01C0895C97
S11329900E949B300895CF93C82F82958F700E9418
S11329A0C3148C2F8F700E94C314CF9108956B3081
S11329B058F49091000190FF02C093E001C091E0AF
S11329C0691718F4962F01C093E0262F291B82174C
S11329D030F0690F91E0681718F490E001C090E0BE
S11329E0892F08952F923F924F925F926F927F9218
S11329F08F929F92AF92BF92CF92DF92EF92FF920B
S1132A000F931F93CF93DF938C01E62E622E42FB2C
S1132A10882480F8662309F47EC0222E220CC2E0AA
S1132A20412CD0E00F2EF2E0AF2EF1E0BF2EF02DBE
S1132A30C12C9924939455245394712C4270342EB0
S1132A4002C0EC2ECF5FFF24FA94FC0EF801D08074
S1132A50662D8D2D0E94D714811109C0622D8D2DF4
S1132A600E94D714811105C0852D972C03C0852D94
S1132A7001C082E0F0FC12C0F2E08F120AC0852C83
S1132A80813009F4872CDF5FCC0C311013C0852D05
S1132A9015C0813009F458C0972C25C091E08912E3
S1132AA004C0813009F056C059C0813009F44EC0C9
S1132AB0972C19C0EC2DE160CE2E05C0823019F49C
S1132AC0FC2DF160CF2ED83071F4F501C08243940F
S1132AD0F5E0F41530F08FEFA81AB80AD72DC72CFB
S1132AE002C0D72DC72CFE100BC092E0891207C07C
S1132AF0F80160829110A5CF0150110903C0EF2C99
S1132B00911001C0E72C0F5F1F4FEC1608F09ACF0D
S1132B10992079F009C0412CD0E00F2EF2E0AF2EBD
S1132B20F1E0BF2EF02DC12C942C990C990C990C2A
S1132B309D0EDD23D1F0D83020F4CC0CDF5FD830EB
S1132B40E1F7F501C08211C0852CCDCF68948824AB
S1132B5081F8C9CF6894882481F801C0872CDF5F8D
S1132B60CC0C3110B0CF82E0A9CF892DDF91CF9169
S1132B701F910F91FF90EF90DF90CF90BF90AF9097
S1132B809F908F907F906F905F904F903F902F9089
S1132B9008955F926F927F928F929F92AF92BF92AD
S1132BA0CF92DF92EF92FF920F931F93CF93DF9315
S1132BB0662309F446C0502E822E942EC62EE82E8B
S1132BC0F92E612CD0E00F2EF2E0AF2EF1E0BF2EF3
S1132BD0F02D10E0C1E001E0712CF701D1907F01EC
S1132BE0C0FD1FC0DF5F110F682D8D2D0E94D7140B
S1132BF0811109C0652D8D2D0E94D714882311F0F1
S1132C00116001C0072DD830B1F4F501108363942D
S1132C10F5E0F61570F08FEFA81AB80AD72D172D26
S1132C200AC0692D8D2D0E94D714811104C0072D6F
S1132C3002C0D72D172DCF5FCC1678F6002379F07C
S1132C4009C0612CD0E00F2EF2E0AF2EF1E0BF2ED0
S1132C50F02D10E0062D000F000F000F0D0FDD23E7
S1132C6041F0D83020F4110FDF5FD830E1F7F501DF
S1132C701083802FDF91CF911F910F91FF90EF90E0
S1132C80DF90CF90BF90AF909F908F907F906F9088
S1132C905F9008957F928F929F92AF92BF92CF924E
S1132CA0DF92EF92FF920F931F93CF93DF93EC0188
S1132CB0E42EB22E902E822E800E6623A9F1722E5F
S1132CC0770CCC24CA94C60ED12C8FEFC81AD80A1C
S1132CD0CC0EDD1E00E010E0A12CF880E11658F0C7
S1132CE06B2D8F2D0E94D714882311F01F5F01C014
S1132CF01E5FE116A0F4692D8F2D0E94D71488233E
S1132D0019F0B882A39408C0682D8F2D0E94D7149F
S1132D10882311F07882A3940F5F023031F021965A
S1132D20CC15DD05D1F601C0A12C8A2DDF91CF9100
S1132D301F910F91FF90EF90DF90CF90BF90AF90D5
S1132D409F908F907F9008958150582F577086954B
S1132D5086958695E82FF0E0EE5FFE4F908155232F
S1132D6021F0252F990F2150E9F738E0351B662310
S1132D70C1F021E080E0880F99230CF48160990F61
S1132D80231302C0918131962F5F6217A0F70BC005
S1132D90982F80E0880F90FD816096956150D1F75F
S1132DA0089580E00895413099F30895BF92CF9239
S1132DB0DF92EF92FF920F931F93CF93DF937C01E7
S1132DC0D62F623008F46DC390910101911102C0B5
S1132DD00E94D10FF7011081D18064EB812F0E94F2
S1132DE0D714882309F44DC06AE58D2D0E94D714A9
S1132DF0882361F183E091E00E94151001E22BE049
S1132E004BE06EEF6D0FC70102960E94C915803228
S1132E1009F0E7C241E068E081E00E94A416C82EF0
S1132E2041E068E089E00E94A416C82F41E068E010
S1132E3081E10E94A416B82EDC2FD095CD1609F49A
S1132E4006C38C2F0E94CB14C3E081C26DE28D2D8A
S1132E500E94D714882309F4C6C2D33009F0C5C22E
S1132E606BE0F70182810E94D714882309F4BFC262
S1132E7083E091E00E94151082E50E949B30C2E03D
S1132E8066C260EA812F0E94D7148823E1F160E5CD
S1132E908D2D0E94D714882309F4ABC28EEF90E0E5
S1132EA00E9415108EEF8D0F833108F4A4C20EE139
S1132EB02BE04BE060E1C70102960E94C9158830FF
S1132EC009F09BC241E068E081E00E94A416C82E8C
S1132ED060E5F70183890E94D714882309F48FC21F
S1132EE02BE04BE06CEE6D0FC70144960E94C915B0
S1132EF0883009F086C241E068E081E00E94A416AF
S1132F00B82EC3E024C268EA812F0E94D714882314
S1132F1029F164E58D2D0E94D714882309F473C226
S1132F2084E191E00E94151000E22BE04BE06EEF8B
S1132F306D0FC70102960E94C915803109F065C260
S1132F4041E068E081E00E94A416C82E41E068E0F8
S1132F5089E00E94A416B82EC3E0F9C166E4812F6B
S1132F600E94D714882309F475C066E48D2D0E944D
S1132F70D7148823F1F08BE091E00E94151004E34C
S1132F8021E141E16EEF6D0FC70102960E94C91560
S1132F90883109F03CC241E066E081E00E94A41659
S1132FA0C82E41E066E087E00E94A416B82EC3E074
S1132FB0CEC162E28D2D0E94D714882309F429C260
S1132FC080E191E00E94151081E0809300010AE104
S1132FD028E048E06EEF6D0FC70102960E94C91504
S1132FE010920001803309F016C241E068E081E0EC
S1132FF00E94A416F82E41E068E089E00E94A4161D
S1133000C82F8F2D0E94CB148C2F0E94CB148AE3DF
S11330100E949B3041E064E085E10E94A416C82E22
S113302041E068E089E10E94A416C82F41E068E00D
S113303081E20E94A416B82E8C2D0E94C3148C2FFA
S11330400E94CB148AE30E949B308B2D0E94CB14E8
S1133050C2E07DC16BE0812F0E94D714882309F45C
S113306050C064E38D2D0E94D714882309F4D5C180
S11330702BE042E06EEF6D0FC70102960E94F2143E
S11330808A30A1F541E068E082E00E94A416B82EDF
S113309041E061E08AE00E94A416C82FFFEFBF124E
S11330A010C0813071F480910101811105C081E06B
S11330B080930101C4E04BC1823009F0CAC1C2E06F
S11330C046C180910101823011F40E94D10F87E042
S11330D091E00E9415108C2F0E94C3148B2D0E9426
S11330E0CB1482E080930101C4E031C180910101DD
S11330F0823008F094C187E091E00E941510C1E08D
S113310023C169E5812F0E94D714882329F169E539
S11331108D2D0E94D714882309F483C18FEE90E08B
S11331200E94151002E22BE04BE06EEF6D0FC70119
S113313002960E94C915803209F075C141E068E029
S113314081E00E94A416C82E41E068E081E10E945B
S1133150A416B82EC3E0FBC060E3812F0E94D714ED
S1133160882309F44CC06CE08D2D0E94D714882369
S113317009F45BC184EE90E00E94F60F6FEF6D0FCF
S113318008E12CE04CE0C70101960E94C915C82F44
S11331908C3009F462C18F3009F461C1843109F0C3
S11331A00FC141E068E08DE00E94A416D82F41E0F1
S11331B067E081E00E94A416B82E41E065E088E053
S11331C00E94A416C82E6C2F70E080E090E020E0EE
S11331D040E00E946B320E9411108C2D0E94CB148F
S11331E08AE30E949B308B2D0E94CB148AE30E94B9
S11331F09B308D2F0E94CB14D5E0C2E0A8C066E0BE
S1133200812F0E94D7148823C9F16EE08D2D0E946E
S1133210D714811107C063E28D2D0E94D71488232F
S113322009F405C103E22EE046E06D2FC7010E94B8
S1133230C9158F3009F0FDC08091010181110BC1C6
S113324041E065E081E00E94A416C82E41E068E0F8
S113325086E00E94A416B82E89EE90E00E94151014
S11332608C2D0E94CB148AE30E949B308B2D0E94EC
S1133270CB1481E080930101C4E069C061E1812F36
S11332800E94D714882311F161E18D2D0E94D71477
S1133290882309F4D0C089EF90E00E94151021E141
S11332A045E06D2FC7010E94F2148E3009F0C5C0AD
S11332B042E065E084E00E94A416C82E42E066E085
S11332C089E00E94A416B82EC3E041C065E3812FB3
S11332D00E94D714882309F4B2C061E18D2D0E94A5
S11332E0D714882309F4ADC084EF90E00E94151030
S11332F082E0E80EF11CCEEFCD0F01E128E048E0BA
S11333006C2FC7010E944A16D82F823009F09BC047
S113331081E08093000128E042E06C2FC7010E9405
S1133320F21410920001853109F08FC042E068E088
S113333086E00E94A416C82E42E068E08EE00E9457
S1133340A416B82EC3E003C08FE30E949B30C111C2
S113335021C00E9411106D2F70E080E090E020E009
S113336040E00E946B328AE30E949B30612F70E040
S113337080E090E020E040E00E946B328DE20E9409
S11333809B306D2D70E080E090E020E040E00E94F2
S11333906B320FC0C33051F48C2D0E94CB148AE3DE
S11333A00E949B308B2D0E94CB1403C0C43008F0C4
S11333B078C01092010188EC90E00E94862271C0CE
S11333C041E067E081E00E94A416B82E41E065E088
S11333D088E00E94A416C82E0E941110D5E0C1E016
S11333E0B3CFC1E0B1CFC0E0AFCFC0E0ADCFC0E05C
S11333F0ABCFC0E0A9CFC1E0A7CFC1E0A5CFC1E06A
S1133400A3CFC1E0A1CFC0E09FCFC1E09DCFC1E079
S11334109BCFC0E099CFC1E097CFC0E095CFC1E08A
S113342093CFC0E091CFC1E08FCFC0E08DCFC0E09B
S11334308BCFC1E089CFC0E087CFC1E085CFC0E0AA
S113344083CFC0E081CFC1E07FCFC1E07DCFC3E0B7
S11334507ECFC4E07CCFC2E07ACFD5E001C0D8E013
S113346041E067E081E00E94A416B82E41E06D2F90
S113347088E00E94A416C82E6C2F70E080E090E0D3
S113348020E040E00E946B320E9411108C2D0E94BB
S1133490CB148AE30E949B308B2D0E94CB14C2E094
S11334A056CFDF91CF911F910F91FF90EF90DF9056
S11334B0CF90BF9008958F929F92AF92BF92CF9278
S11334C0DF92EF92FF920F931F93CF93DF93CDB7C9
S11334D0DEB7C456D1090FB6F894DEBF0FBECDBF18
S11334E080E00E94D0330E94463089EF91E00E9430
S11334F0F60F82E00E941A1088E191E00E941D10EC
S113350018B881E087B984E284B984E085B901E020
S113351011E00CC060E084E690E00E945833811111
S113352003C0111103C004C000E002C0329BF2CFFB
S11335300E94091061E081E00E940830002309F430
S113354052C0C12CD12CB12CE12CF12CA12C8824FB
S113355083946894992491F816B11470013019F485
S11335601123A9F03CC01F1107C0B39480EF8B1541
S113357058F4112399F11DC093E69E15D0F0E394FD
S1133580F601B1926F01BA2C023089F405C0CE0164
S113359001966C01BA2CEA2C95ED9A95F1F700008E
S11335A082E200008150E9F7F12E092D13C00330A7
S11335B081F46E2DCE0101960E94D616F12E082DAF
S11335C009C082E390E00E9486224F9BFACF0A2D25
S11335D001C0F12EA8950111BFCF05C0F12E4F9B5C
S11335E0F0CF082DF7CFCC59DF4F0FB6F894DEBFDC
S11335F00FBECDBFDF91CF911F910F91FF90EF9040
S1133600DF90CF90BF90AF909F908F9008958F924E
S11336109F92AF92BF92DF92EF92FF920F931F930C
S1133620CF93DF9300D000D000D0CDB7DEB7E1E870
S1133630F1E09081998391819A8392819B838C8319
S11336406D834E8380E00E94051081E00E94051086
S113365082E00E9405108DE30E949B30D12C4E0124
S113366084E0880E911C540113C0F80181918F01EC
S11336708D1104C0F70180810E949B30FFEFEF1A87
S1133680FF0A0A151B0589F7D39483E0D81629F09D
S11336908E010F5F1F4F7401E8CF26960FB6F89482
S11336A0DEBF0FBECDBFDF91CF911F910F91FF9071
S11336B0EF90DF90BF90AF909F908F9008958CEA29
S11336C092E00E94F60F85EA92E00E941D1080911C
S11336D08E018F5F80938E01109280010895CF93A5
S11336E0DF9380910A018130C1F488E492E00E9462
S11336F0F60F0E94D10FC8E0D1E08D810E94051021
S11337008AE30E949B300E9411106E817F8180E0C9
S113371090E026E54DEF0E946B32DF91CF91089542
S1133720CF93C62F0E949B3083ED90E00E94F60F4A
S11337308C2F0E949B300E941110E1E1F1E0638123
S113374074818581968124E042810E946B32CF91FD
S11337500895CF92DF92EF92FF920F931F93CF932E
S1133760DF9380910B01813039F4F0901101C0E0B6
S1133770D0E001E111E057C0833009F047C0E1E136
S1133780F1E0038114812581368162857385848506
S11337909585E28041850E94AC31813039F40F2E49
S11337A0F8E1CF2EF1E0DF2EF02D06C00F2EF1E16F
S11337B0CF2EF1E0DF2EF02DD60113960D911D9141
S11337C02D913C911697E1E1F1E061897289838939
S11337D094891296EC9040890E94AC31813009F4AE
S11337E07BC0B1E1CB16B1E0DB0619F001E111E0D9
S11337F002C008E111E0E8012796CC16DD0651F479
S113380002C008E111E0E8012E9604C0C8E1D1E04D
S113381001E111E0F8018081F8808F1559F0F980F9
S11338208F1541F0F180D8018C918F1519F00E9409
S1133830051004C0F80181810E94051083ED90E019
S11338400E94F60F8F2D0E9405102097A1F183EDA1
S113385090E00E94F60F88818F1519F00E940510E0
S113386011C089810E9405100DC00E941110E6EA62
S1133870F1E0618172818381948128E440810E9416
S11338806B3233C00E94D10FD80113966D917D9194
S11338908D919C91169724E012964C910E946B3264
S11338A00E9411106B817C818D819E8124E04A816C
S11338B00E946B321AC00E94D10FF8016381748197
S11338C08581968124E042810E946B32C8010E9466
S11338D08E13813051F4C9CF8FE191E0F1E0813151
S11338E09F0709F48ECF6C0181CFDF91CF911F9197
S11338F00F91FF90EF90DF90CF900895EF920F9388
S11339001F93CF93DF93EBE3F1E0038114812581CF
S113391036816685778580899189E28045850E9414
S1133920AC31813019F4C6E4D1E002C0CBE3D1E07C
S11339300B811C812D813E81EBE3F1E0618D728D61
S1133940838D948DEA80408D0E94AC31813011F4D6
S1133950C1E5D1E088810E94051080EE90E00E94CC
S1133960F60F89810E9405100E94D10F6B817C8122
S11339708D819E8126E44A810E946B32CE010E9491
S1133980000AEC01892B49F00E941110BE0180E06D
S113399090E024E04EEF0E946B32DF91CF911F91B3
S11339A00F91EF900895009781F0FC0140E0608151
S11339B081810E94DD0EEBE3F1E0638174818581F6
S11339C0968126E442810E946B320895BF92CF9281
S11339D0DF92EF92FF920F931F93CF93DF93809127
S11339E00C018130A1F400915D010F2EF5E0BF2E92
S11339F0F02D0F2EF5E0DF2EF02D15E0C0E0D0E025
S1133A000F2EFCE5EF2EF1E0FF2EF02D67C1823082
S1133A1031F5ECE5F1E01081B6801B1106C0D180D0
S1133A20B78005E0CC24C39486C0ECE5F1E0818145
S1133A300781801709F435C110133EC1B81609F483
S1133A4070C00F2EF5E0BF2EF02D0F2EF5E0DF2E07
S1133A50F02D05E015E0C2E6D1E07F013FC18330DF
S1133A6009F053C020E0CCE5D1E0F12C50E0622F06
S1133A7070E0FE018F2D952FDB01AA0FBB1FA60F4F
S1133A80B71FAA0FBB1FA35ABE4F8C01281729F0DA
S1133A904C913081431302C00AC0282F01963696F8
S1133AA08330910591F72F5F233008F301C026E09E
S1133AB07B01EE0CFF1CE60EF71EC701880F991F51
S1133AC0AC01445A5E4F7A01E801CC0FDD1FC00FF0
S1133AD0D11FCC0FDD1FC45ADE4F253010F4C0E0D7
S1133AE0D0E0FB01EE0FFF1FE60FF71FEE0FFF1FE5
S1133AF0E45AFE4F01810F2EF5E0BF2EF02D0F2E5C
S1133B00F5E0DF2EF02D13E0E9C08CED90E00E948B
S1133B10F60F0E94111080910C01805D0E949B3071
S1133B2036C1012F0F2EF5E0BF2EF02D0F2EF5E03C
S1133B30DF2EF02DC12C1330A0F480915D010E9482
S1133B40051088ED90E00E94F60F812F0E94051069
S1133B50C2E6D1E00F2EFCE5EF2EF1E0FF2EF02DB2
S1133B6013C0C2E6D1E00F2EFCE5EF2EF1E0FF2EEC
S1133B70F02DF70180810E9405108CED90E00E94E9
S1133B80F60F802F0E940510209709F4CEC0143040
S1133B9038F48CED90E00E94F60F10130BC006C0B1
S1133BA088ED90E00E94F60F101308C088810E94EF
S1133BB00510A7C089810E940510A3C088810E94B6
S1133BC005109FC00E941110133028F482EB91E07D
S1133BD00E94F60F04C086EB91E00E94F60F8FE37B
S1133BE00E949B300E94D10F61E36B0D81E38D0D28
S1133BF00E94901B8AE991E00E942810F7016281DB
S1133C00738180E090E026E54DEF0E946B320E94C4
S1133C101110209769F5C12CF701848195818A3FA1
S1133C20910578F488E20E949B30F70164817581E4
S1133C3080E090E020E040E00E946B3289E20E9444
S1133C409B3040E0F701608181810E9404230E943F
S1133C50122B8C01892BA9F080E991E00E94281095
S1133C60B80180E090E021E44AEF0E946B3209C081
S1133C70C12C6A817B8180E090E026E54DEF0E94B3
S1133C806B32F1E0CF1283C088E991E00E942810E2
S1133C90C7010E94D31C0E941110CE010E94D31CA4
S1133CA076C0D12E15E0C2E6D1E00F2EFCE5EF2E52
S1133CB0F1E0FF2EF02D12C00F2EF5E0BF2EF02DF7
S1133CC00F2EF5E0DF2EF02D05E015E0C2E6D1E081
S1133CD00F2EFCE5EF2EF1E0FF2EF02DCC24C39443
S1133CE048CF8AE991E00E942810F701628173812C
S1133CF080E090E026E54DEF0E946B320E941110A7
S1133D00B8CFF4E0FD1568F324C08AE991E00E947D
S1133D102810F7016281738180E090E026E54DEF81
S1133D200E946B320E94111077CFF4E0FD1568F306
S1133D3027C08AE991E00E942810F701628173810B
S1133D4080E090E026E54DEF0E946B320E94111056
S1133D5090CF6B2D8D2D0E94A529813051F732CF44
S1133D608AE991E00E942810F7016281738180E062
S1133D7090E026E54DEF0E946B320E9411104CCF6B
S1133D806B2D8D2D0E94A529813051F71BCFDF911A
S1133D90CF911F910F91FF90EF90DF90CF90BF9044
S1133DA008950E94111080910901863121F484E460
S1133DB00E949B3003C083E40E949B3080910A01DF
S1133DC080FF04C082E00E949B3003C081E00E9417
S1133DD09B3080910901863121F483E50E949B3058
S1133DE0089585E40E949B3008954F925F926F92EC
S1133DF07F929F92AF92BF92CF92DF92EF92FF9207
S1133E000F931F93CF93DF9380910A0180FF07C024
S1133E10E1E8F1E010810281C6EBD1E006C0E1E8FF
S1133E20F1E012810081C2EBD1E088E392E00E94CC
S1133E301510CE010E94F60F80910A0182FF03C083
S1133E408BE20E949B300E94D10F45E463E482E43C
S1133E500E94071B80910C01833010F00E94D11E38
S1133E600E94D10F612F802F0E94A529813029F44F
S1133E7065E482E40E94901B66C08DEA91E00E9492
S1133E80151060918A0170918B0180918C01909141
S1133E908D0120E040E00E946B3280E0CCE5D1E06F
S1133EA00F2EF8E0EF2EF1E0FF2EF02D0F2EF1E8AB
S1133EB0CF2EF1E0DF2EF02D0F2EFAE09F2EF02D05
S1133EC00F2EF3E0AF2EB12CF02D38C09881911352
S1133ED033C09981901330C088EA91E00E94281081
S1133EE02A813B81EC81FD81D60119964D905D902C
S1133EF06D907C901C97B4E64B16510461047104D8
S1133F0090F0C9018E1B9F0BB5010E9472368AEF97
S1133F10481651046104710418F4261B370B03C0BE
S1133F209B012E0F3F1FB90180E090E026E54DEF85
S1133F300E946B32892D02C08F5F2696D70114969A
S1133F409C91891718F28091880190918901892B9D
S1133F5071F08DE991E00E942810609188017091C0
S1133F60890180E090E021E44AEF0E946B320E94D4
S1133F703131DF91CF911F910F91FF90EF90DF903E
S1133F80CF90BF90AF909F907F906F905F904F9035
S1133F90089580910C0181110E94D11E80910A0123
S1133FA083FD2BC08091860190918701892B81F03C
S1133FB084E991E00E942810609186017091870144
S1133FC0072E000C880B990B26E54DEF0E94343325
S1133FD08AEB91E00E942810E1E8F1E040E0628180
S1133FE080810E94DD0EEBE3F1E0638174818581C1
S1133FF0968126E442810E946B3208950E9411103A
S113400080910A0180FF04C08EE40E949B3003C0AB
S113401080E50E949B308DEC91E00E94F60F08959C
S11340200E94111080910A0182FF05C088EC91E082
S11340300E94F60F089583EC91E00E94F60F089514
S113404080910A0184FF05C085ED91E00E94F60F7E
S113405003C08AE40E949B3081ED91E00E94F60F38
S11340600E94FE1F80910A0184FD0E9410200E947C
S1134070D10F80910A0186FF06C048E768E787E40C
S11340800E94071B05C043E564E487E40E94071B04
S113409080910A0184FD0E94C91F0E943131089554
S11340A08EEB91E00E94F60F0E94FE1F0E941020EA
S11340B00E94D10F45E463E487E40E94071B0E9439
S11340C0C91F0E943131089580910901893161F439
S11340D084E392E00E94F60F0E94D10F43E461E46E
S11340E087E40E94071B0BC08EE292E00E94F60F49
S11340F00E94D10F41E362E387E40E94071B809191
S1134100840190918501892B71F083EA91E00E94EA
S11341102810609184017091850180E090E026E58B
S11341204DEF0E946B320E94313108958F929F921D
S1134130AF92BF92CF92DF92EF92FF920F931F93B1
S1134140CF93DF9380E48AB98BB980E185BF87E898
S113415080937A00C4B784B7877F84BF0FB6F8947E
S1134160A89580916000886180936000109260003F
S11341700FBE0E94EA2FC3FF10C00E94463088E899
S113418091E00E94F60F81E492E00E941D1080ED00
S113419097E00E9486221BB89DC186E08093AB0104
S11341A0109226014F9989C110928E0184E190E00A
S11341B00E9486224F9909C080918E018F5F80935F
S11341C08E01853608F07FC1F1CF80918E01803158
S11341D008F07BC1C1E00E94623080E00E941A10A6
S11341E0C33019F40E94150504C061E081E00E9407
S11341F038058091A4010E94543088EE91E00E9419
S1134200F60F81EE91E00E9428108CEC90E00E9461
S1134210F60F8CED95E00E94862210928E0110928A
S11342208001EBEAF1E089E1818381E08283838389
S113423089E893E1978386839FE088E10FB6F89439
S1134240A895809360000FBE90936000C8E0D1E011
S11342500F2EF1E8EF2EF1E0FF2EF02D8F010F2E3F
S1134260F8EC8F2EF02D0F2EF9E19F2EF02D0F2E4E
S1134270FBE9CF2EF1E0DF2EF02D19821A8218828D
S11342801C821B82F7011482138210861782118606
S113429012861386148617B882E00E941A100E94B0
S11342A046308EE00E946C04F801958384838182F9
S11342B08EE00E946C04F8019182F6012781820F3E
S11342C0911D27FD9A95F8019583848385E00E94CA
S11342D06C04880F991F880F991F5C01FEEDAF1ABB
S11342E0FEEFBF0A8CED91E00E9415109501ADEC34
S11342F0BCEC0E94CD3696958795969587959695B4
S11343008795BC0180E090E026E54EEF0E946B3279
S11343100E941110A11429E1B20648F489EB92E03D
S11343200E94F60F80ED97E00E948622B3C088EECB
S1134330A8168CE1B80628F48DEB92E00E94F60FE3
S113434004C089ED91E00E94F60F82EC92E00E9495
S11343501D100E94A32389818130F1F10E949123D1
S1134360833019F40E94F6356DC042E061E080E0CC
S11343700E94FD2442E060E081E00E94FD2441E0CF
S113438062E080E00E94FD2441E060E082E00E945F
S1134390FD2440E062E081E00E94FD2440E061E011
S11343A082E00E94FD248981882311F08A30A1F4DF
S11343B00E94111083E40E949B3040E060E082E0A0
S11343C00E94DD0E41E061E082E00E94DD0E42E0E9
S11343D060E081E00E94DD0E0E94463083E00E948E
S11343E01A10E9818E2F90E0FC013197E931F10533
S11343F0F8F4EC5CFF4F0C94C7360E946F1B22C08C
S11344000E94E61C18C00E94F51E15C00E942020C0
S113441012C00E9450200FC00E9464200CC00E9451
S1134420642009C00E94A91B06C00E947E1C03C010
S11344300E945F1B07C010928E01809180018F5FE4
S11344408093800180E00E941A106CE088EB9BE06E
S11344500E94583381110AC080918E018530D0F4B6
S1134460809180018A3008F408CF14C0813079F437
S113447082E390E00E94862260E08CE291E00E9458
S11344805833882309F4F9CE0E94F635DBCF823005
S113449009F0F3CE0E94463089E292E00E94F60FC2
S11344A00FB6F894A89580916000886180936000AD
S11344B0109260000FBE5E980DC00E94623080E0D2
S11344C00E941A1092CEC3E001C0C2E081E0809342
S11344D0260181CE80E090E0DF91CF911F910F9172
S11344E0FF90EF90DF90CF90BF90AF909F908F9010
S11344F008951F920F920FB60F9211247894109280
S1134500B1000F900FBE0F901F9018950F931F933B
S1134510CF93DF933091AB01A0E0B0E0880F991FF7
S1134520AA1FBB1F880F991FAA1FBB1F880F991FA3
S1134530AA1FBB1F880F991FAA1FBB1F363019F56E
S1134540492F5A2F6B2F77274F5F5F4F6F4F7F4F46
S1134550440F551F661F771F440F551F661F771F93
S1134560440F551F661F771F440F551F661F771F83
S1134570481759076A077B0728F4841B950BA60B79
S1134580B70B01C030E01092B10022E02093B000DC
S11345902093700023B7217F232B23BF7FB777702D
S11345A078940097A105B10539F16FEF42EB50E023
S11345B0C3EBD0E001EB10E037E0A8958F3F910505
S11345C0A105B10509F010F4282F01C0262F821B84
S11345D09109A109B1092150FA0110822883F80137
S11345E0308323B7216023BF889523B72E7F23BF51
S11345F00097A105B10509F7711101C0F894DF9185
S1134600CF911F910F910895CF92DF92EF92FF9275
S11346100F931F93CF93DF93E62E042FCFE8D1E0BF
S1134620888369834A83C82ED12CC6018A5F9F4F31
S11346300E9418378B83880F8C83C601805090406A
S11346400E9418378987F12CC7018A5F9F4F0E9407
S113465018378D83880F8E83C701805090400E9445
S113466018378A8710E0C8018A5F9F4F0E94183765
S11346708F83880F8887C801805090400E94183724
S11346808B87DF91CF911F910F91FF90EF90DF9077
S1134690CF9008950F931F93CF93DF93082F162F76
S11346A0C82FD0E0CA5FDF4FCE010E94183785B90A
S11346B0CE010E941837C82F812F90E08A5F9F4F48
S11346C00E9418378C2B84B9802F0E946C04EC0153
S11346D0812F0E946C04BC012091B1013091B20180
S11346E036952795A9014E5151094C175D0770F471
S11346F0225E3F4FC217D30758F44817590750F4A6
S113470081E06217730738F080E005C080E003C0E1
S113471080E001C080E014B8DF91CF911F910F9128
S11347200895CF9361E080E00E944A23C82F62E09D
S113473080E00E944A23C80F62E081E00E944A237D
S11347408C0FCF9108955F926F927F928F929F9278
S1134750AF92BF92CF92DF92EF92FF920F931F938B
S1134760CF93DF9300D000D000D0CDB7DEB717B819
S113477018B815B88AE284B984B1856184B980E037
S11347800E946C049A83898381E00E946C049C8358
S11347908B8382E00E946C049E838D8300E012E090
S11347A00F2EF8E2AF2EF02DBB24B394712CCC2441
S11347B0C394D12C662463941F5F133008F0172D23
S11347C0E12EF12C202F30E0012E02C035952795E3
S11347D00A94E2F720FD65C0812F0E946C044C010D
S11347E0F701EE0FFF1F81E090E08C0F9D1FE80F93
S11347F0F91F8081918188169906C0F4F701EE0FA4
S1134800FF1F81E090E08C0F9D1FE80FF91F91823C
S113481080828A2D90E08B1991094497A4F49AEE32
S11348209A1598F084E1A80EB62C10C09AE0891667
S1134830910438F488E28A1520F00F2EF0E5AF2EAB
S1134840F02DB39403C0B62C01C0B62C93E08916A6
S1134850910440F4C60102C0880F991FEA94E2F75C
S1134860082B0DC080E2881683E0980640F457B008
S1134870C701805090400E941837852987B90730B6
S113488091F0AB1448F4E8E0F1E081E081838283A5
S113489015839782868207C0A89582E390E00E94E0
S11348A08622B11089CF14B817B826960FB6F8949B
S11348B0DEBF0FBECDBFDF91CF911F910F91FF904F
S11348C0EF90DF90CF90BF90AF909F908F907F90AC
S11348D06F905F90089560FF04C095B1982B95B9CF
S11348E005C095B1282F2095922395B994B1982BA2
S11348F094B963FF07C0EFE9FFE03197F1F700C017
S1134900000006C0EFE3FCE93197F1F700C00000B6
S113491094B18095982394B995B1892385B9089564
S1134920DF92EF92FF920F931F93CF93DF93613047
S1134930E9F1623009F443C0633009F449C080E00E
S113494090E053C0841B950BB8010E945E36D02EB4
S1134950D81ACB019927C817D90710F0262F01C000
S11349602C2FC22FD0E0CC0FDD1FCE0FDF1FCE01C6
S11349700E9420377C01CE0102960E9420379C01C0
S1134980E81AF90ADE9CA001DF9C500D1124C8012D
S113499096958795840F951FB8010E945E36CB01CA
S11349A0820F931F22C020E0D02EDBCFE9E5F0E098
S11349B0C7E0D0E002E310E048EE53E011C0EBE6BC
S11349C0F0E0CAE2D0E009E110E04CE251E008C0B6
S11349D0E9E0F0E0CEE1D0E009E110E048EC50E09D
S11349E08417950708F0AECFDECFDF91CF911F91EA
S11349F00F91FF90EF90DF9008950F931F93CF9343
S1134A00DF9390910901913009F487C0062F182F84
S1134A10A8950E94042315B8CFE8D1E08D8184B90C
S1134A20998597B998B960E18F810E946B24898137
S1134A300E940005EC01813D934008F468C0CFE872
S1134A40D1E061E18F810E946B2489810E9400057D
S1134A50EC01CB3E81E0D80710F00E94572EC13DF7
S1134A6093E0D907E8F58091080181113BC0EFE894
S1134A70F1E0858184B915B8818587B988B98FE15A
S1134A809EE40197F1F700C0000097818581892B8E
S1134A9084B9802F0E9400058F359D4020F0BE010F
S1134AA082E00E94F52C8091080181111BC0EFE87F
S1134AB0F1E0828587B918B897818381892B84B9FD
S1134AC085B9812F0E9400058034964058F40E94D5
S1134AD0452F811107C0BE0181E00E94F52C02C060
S1134AE00E94582B80910901882311F08A3019F40F
S1134AF00E94BC2607C0863129F480910A0184FDF6
S1134B000E94C82C17B818B814B815B806C0CB3E04
S1134B1081E0D80708F4A7CFA0CFDF91CF911F91F0
S1134B200F9108952F923F924F925F926F927F92CE
S1134B308F929F92AF92BF92CF92DF92EF92FF92A9
S1134B400F931F93CF93DF931F92CDB7DEB7898363
S1134B500E94A32380910901813009F4EBC018B8A5
S1134B60EFE8F1E0828587B915B8838184B9812C97
S1134B70912C540181E08F010F2EFCE74F2E512C14
S1134B80F02DD12CC12C0F2EF8E7EF2EF12CF02DA7
S1134B900F2EFBEA2F2EF1E03F2EF02D68946624B1
S1134BA061F8682F04C0822E932EA42EB52E862F72
S1134BB08170782E60FF03C0F801808102C0F80183
S1134BC08181A895806CF20180838FE891E0019740
S1134BD0F1F700C00000EAE7F0E0808180648083A0
S1134BE0EAE7F0E0808186FDFBCF34E640E050E068
S1134BF06D2D7C2DF801828587B9838185B9EAE71B
S1134C00F0E0808180648083FAE6FA95F1F700C0D1
S1134C1015B8F80191858285892B87B9EAE7F0E018
S1134C20808186FDFBCFF70180819181480F591F58
S1134C30611D711D8FE396E00197F1F700C000003C
S1134C40EFECF7E03197F1F700C00000315091F636
S1134C50F101A481B5819A01AB010E94E336052ECE
S1134C605AE096958795779567955A95D1F7502D83
S1134C702AE030E040E050E00E948636822F932FF5
S1134C80A42FB52F662D71108ECF57C08091B1011E
S1134C909091B201A0E0B0E0880F991FAA1FBB1F3A
S1134CA0AC01BD01440F551F661F771F440F551FEC
S1134CB0661F771F840F951FA61FB71F9C01AD01A8
S1134CC0281939094A095B09A8EEB3E00E94E336C2
S1134CD06B017C01A5019401241935094609570982
S1134CE0A0E1B7E20E94E3364B015C0120919D01F3
S1134CF030919E012057354E40E050E0C701B60187
S1134D000E948636C501B4010E948636C901F98124
S1134D10F13061F460919F017091A00162177307F3
S1134D2018F4861B970B02C080E090E020E82093E3
S1134D30AE010EC080E090E00BC02C013D01481490
S1134D4059046A047B0408F4A1CF80E090E0EECF1C
S1134D500F90DF91CF911F910F91FF90EF90DF9013
S1134D60CF90BF90AF909F908F907F906F905F9007
S1134D704F903F902F9008952F923F924F925F92C1
S1134D806F927F928F929F92AF92BF92CF92DF9257
S1134D90EF92FF920F931F93CF93DF93CDB7DEB7BC
S1134DA062970FB6F894DEBF0FBECDBFA89518B8B2
S1134DB00FE811E0D8011A968C911A9787B91396C7
S1134DC08C91139784B985B911968C910E94000532
S1134DD05C01F80180810E946C046C0115B8D80153
S1134DE014969C91149794B98C910E940005459750
S1134DF008F092C2F801848185B980810E9400057F
S1134E003C01D80119969C91199797B998B915B88E
S1134E1015968C91159784B98C910E9400051C01FC
S1134E20F80181810E946C042C01D80116968C91A2
S1134E30169784B911968C910E9400057C01B0E309
S1134E40CB16B1E1DB0628F4E2E66E16710408F035
S1134E5063C2FCE66F16F3E17F0608F05DC229EA3F
S1134E604216510408F084C036E2E316F10408F453
S1134E7053C2D30120EF3BE247E050E00E94E33607
S1134E80C090B101D090B20196012619370940E0D3
S1134E9050E00E94863649015A01D601AE19BF0975
S1134EA020EF3BE247E050E00E94E336870120E038
S1134EB030E0A90198010E9486368EED681683E0E1
S1134EC07806A8F4880C991CAA1CBB1C880C991C95
S1134ED0AA1CBB1CC501B401620F731F841F951F5C
S1134EE025E030E040E050E00E94863628C09EED88
S1134EF0E91693E0F906B8F4DA01C901880F991F9D
S1134F00AA1FBB1F880F991FAA1FBB1FBC01CD017D
S1134F10680D791D8A1D9B1D25E030E040E050E0BE
S1134F200E9486360CC0DA01C901880D991DAA1D9C
S1134F30BB1D9C01AD015695479537952795DA0120
S1134F40C90184549D4FAF4FBF4F880F991FAA1FAB
S1134F50BB1F4C015D01880C991CAA1CBB1C880C4E
S1134F60991CAA1CBB1C880E991EAA1EBB1E8AC0B3
S1134F70CA14DB0408F478C02414350408F474C09B
S1134F804091B1015091B2014C155D0521F46A01C3
S1134F90A1E0CA1AD1080BE911E0F801228133819A
S1134FA02057354ED601AA19BB090E94CD369A0165
S1134FB02C193D0940E050E00E94863649015A010F
S1134FC0D8012D913C912057354ED101A419B50932
S1134FD00E94CD36820120E030E0A90198010E94B0
S1134FE08636BEEDCB16B3E0DB06B8F4880C991C0C
S1134FF0AA1CBB1C880C991CAA1CBB1CC501B401AF
S1135000620F731F841F951F25E030E040E050E0DD
S11350100E94863649015A0135C0EEED4E16E3E092
S11350205E06C8F4DA01C901880F991FAA1FBB1FC5
S1135030880F991FAA1FBB1FBC01CD01680D791DE4
S11350408A1D9B1D25E030E040E050E00E9486363A
S113505049015A0117C0820E931EA41EB51EB694B0
S1135060A794979487940EC031E020E090E080E00C
S1135070FFE84F16F2E15F0608F430E0832E922E2B
S1135080A92EB82E81149104A104B10409F444C1D9
S113509024E682169104A104B10448F581E00E943B
S11350A09225A0E0B0E095018401000F111F221F9A
S11350B0331F000F111F221F331FB901A801440F12
S11350C0551F661F771F440F551F661F771F400F1C
S11350D0511F621F731F84179507A607B70750F463
S11350E04C015D010F2EFEEFFF2EF02D05C0FF24B5
S11350F0FA9402C0FF24FA94C501B40124E130E01B
S113510040E050E00E948636D501C401880F991F03
S1135110AA1FBB1F880F991FAA1FBB1F2C013D018B
S1135120480C591C6A1C7B1C80E00F2EF8E02F2EC3
S1135130F1E03F2EF02D0F2EFFE8CF2EF1E0DF2E11
S1135140F02D4D865E866F86788A2D833E834F834D
S11351505887A50194015695479537952795298732
S11351603A874B875C87B8C0482F50E05A8B498BED
S113517057E0859FF0011124EF5EFE4F2081D60198
S11351809C912913A4C0E989FA89EE0FFF1FEE0F41
S1135190FF1FEE0FFF1F29893A89E21BF30BEF5E15
S11351A0FE4F218111969C91291391C0E12C02E0BC
S11351B010E020E030E04F2DC501B4010E94AC3175
S11351C08F3F49F489859A85AB85BC8589839A8309
S11351D0AB83BC8308C09D819983AE81AA83BF81C0
S11351E0BB83E885EC83EE24EA9401E010E020E040
S11351F030E04F2DC501B4010E94AC318F3F99F0CE
S11352009501840189819A81AB81BC81081B190BAA
S11352102A0B3B0B880D991DAA1DBB1D89839A83FC
S1135220AB83BC831BC0411451046104710451F469
S113523095E099831A821B821C8200E010E020E032
S113524030E00CC0AD85A983BE85BA83EF85EB83BE
S1135250F889FC8300E010E020E030E0E989FA8975
S1135260EE0FFF1FEE0FFF1FEE0FFF1F49895A8934
S1135270E41BF50BEF5EFE4F63817481858196819B
S1135280EF2C42810E94AC3188231CF1E989FA8910
S1135290EE0FFF1FEE0FFF1FEE0FFF1F89899A8984
S11352A0E81BF90BEF5EFE4F638174818581968163
S11352B009811A812B813C8142810E94AC311816EC
S11352C054F0EAE0D1011196EC9384E605C08F5FB7
S11352D003C088EC01C088ECD10113969C91891716
S11352E008F442CF8436C1F09330B0F4B7E09B9F0A
S11352F0F0011124EF5EFE4FAFE8B1E011968C91FE
S1135300119780838C91818383829482A582B68253
S1135310F2829F5F90930B0162960FB6F894DEBF02
S11353200FBECDBFDF91CF911F910F91FF90EF90F2
S1135330DF90CF90BF90AF909F908F907F906F90B1
S11353405F904F903F902F900895CF93DF93C8E0E4
S1135350D1E01B8240E00E9404230E94BC2681E02D
S11353609B81913009F080E0DF91CF910895EF9215
S1135370FF920F931F93CF93DF938130E1F4CFE833
S1135380D1E0898587B988B99F818D81892B84B9BA
S113539095B989810E9400058C01E090B101F090DB
S11353A0B2018A810E946C04B701681B790B6A30D0
S11353B07105E0F07EC018B8CFE8D1E08A8587B9DE
S11353C08B8185B99F81892B84B90091B10110919A
S11353D0B20188810E9400057C018A810E946C04CC
S11353E0BC010A97E8F00E191F0963C0CFE8D1E0A9
S11353F098858D81892B84B995B989810E9400058E
S11354008C01E090B101F090B2018A810E946C0499
S1135410F701E81BF90BC0919B01D0919C0117C0C7
S1135420CFE8D1E098858B81892B84B90091B101B3
S11354301091B20188810E940005081B190B8A8112
S11354400E946C04FC01C0919D01D0919E01309793
S113545011F4E1E0F0E0D80120EF3BE247E050E056
S11354600E94E3369F0140E050E00E948636BA0174
S1135470A901440F551F661F771FDB01CA01880F5E
S1135480991FAA1FBB1F880F991FAA1FBB1F8A0140
S11354909B01080F191F2A1F3B1FC901B8019E0158
S11354A02057354E40E050E00E948636CA01B901CB
S11354B007C0C801861B970B0E945E3680E090E00F
S11354C0DF91CF911F910F91FF90EF9008953F923C
S11354D04F925F926F927F928F929F92AF92BF9200
S11354E0CF92DF92EF92FF920F931F93CF93DF93AC
S11354F0282F2170522E80FF08C0EFE8F1E043808E
S113550081856894332434F808C0EFE8F1E04580DD
S113551082850F2EF1E13F2EF02D8770782E809139
S11355209101806480937C000F2EFAE06F2EF02DA1
S1135530812C912C54010FE811E0CAE7D0E00F2E22
S1135540F8E7EF2EF12CF02D0F2ECC24CA94F3E0C3
S1135550DF2EF02DA895632DF80187810E946B241E
S1135560F8018085842984B9552021F086B18721EA
S1135570E9F703C086B18721E9F344B888818064E0
S11355808883888186FDFDCF552041F0F701808115
S11355909181880E991EA11CB11C0AC0F70180815B
S11355A091819601281B390B821A930AA108B1082C
S11355B06A946110CFCFC501B4012AE030E040E025
S11355C050E00E94A836A091B101B091B2010E94AE
S11355D0E3368B019C01992324F401501C4F2F4F77
S11355E03F4FD901C801072E7AE0B595A795979545
S11355F087957A95D1F7702D9093870180938601D2
S1135600DF91CF911F910F91FF90EF90DF90CF909A
S1135610BF90AF909F908F907F906F905F904F90CE
S11356203F900895CF92DF92EF92FF9215B8EFE882
S1135630F1E0858184B9818587B988B981810E9427
S11356400005E0919B01F0919C01EB56F54EDC01C5
S113565020EA36E841E050E00E94E3366B017C0129
S11356609F01ADECBCEC0E94CD369695879596953E
S11356708795969587959C0140E050E0C701B60157
S11356800E948636CA01B901695C7F4F8F4F9F4FD4
S113569017B818B814B815B824E630E040E050E064
S11356A00E948636C901FF90EF90DF90CF90089555
S11356B02F923F924F925F926F927F928F929F921E
S11356C0AF92BF92CF92DF92EF92FF920F931F930C
S11356D0CF93DF9300D000D0CDB7DEB7A8950E945A
S11356E0A32380910901813009F43BC118B80F2E1E
S11356F0FFE8EF2EF1E0FF2EF02DF701828587B948
S113570080810E946C046C01F701848184B985B99D
S113571061E187810E946B24F70180810E9400056A
S11357204C01F701838184B985B961E187810E94C5
S11357306B24F70180810E9400058C01F7018181AF
S11357400E946C047C010E94A32390910901913072
S113575009F407C10E191F0918B80F2EFFE82F2EE0
S1135760F1E03F2EF02DF101828587B980810E94FE
S11357706C04482E592E17B8F101818588B987B970
S113578015B8868184B960E187810E946B24F10198
S113579080810E9400055C01F10181810E946C04FA
S11357A03C01F101858184B960E187810E946B2409
S11357B0F10180810E9400057C01F10181810E9438
S11357C06C04E81AF90A17B8E016F10620F4C801C7
S11357D08E199F0909C0450186189708C701801BC7
S11357E0910BC42CD52C8701893E934008F0B9C095
S11357F02BE08216910408F4B4C0C814D90420F430
S1135800C4018C199D0903C0C6018819990933E0A4
S1135810C316D10420F08436910508F4A2C088E2AE
S11358208816910408F06BC0EBE9F1E02281338122
S113583080819181280F391F2057354E40E050E078
S113584060E677EB87E490E00E94A83629013A01EC
S11358502150310941095109A8EEB3E00E94E33611
S1135860C090B101D090B201960140E050E00E9496
S11358708636CA01B9016401E12CF12CA701960115
S11358800E944E3669837A838B839C83A8EEB3E0AF
S1135890A30192010E94E3369B01AC01C701B6014A
S11358A00E944E3629813A814B815C8128513C4FBC
S11358B04F4F5F4F0E94863669017A01AFE3B8EF1C
S11358C00E94CD3696958795929582958F708927FB
S11358D09F708927F601E81BF90B0E171F0778F054
S11358E0ADECBCEC0E94CD36969587959695879540
S11358F096958795C80ED91EC016D10690F5C80195
S1135900875991098938914160F58091090188236B
S113591011F08A3019F484E18093090168E071E0A0
S1135920FB012481822F90E07C01EE0CFF1CD70147
S1135930A80FB91FAA0FBB1FA45ABE4F4FE851E0CE
S1135940FA0130813C93318111963C93119713965F
S11359501C930E931297FD01958284822F5FFB01A5
S113596024830F900F900F900F90DF91CF911F9190
S11359700F91FF90EF90DF90CF90BF90AF909F90EA
S11359808F907F906F905F904F903F902F900895ED
S113599080910A0180FF05C0E1E8F1E04281318194
S11359A004C0E1E8F1E04181328120910C0122231D
S11359B0D9F0EDE5F1E080E050E07AE061E0DF016C
S11359C011979C91931305C09081941302C0872F63
S11359D0562F8F5F3696821790F3513029F4E8E002
S11359E0F1E011821282108208958F929F92AF92F9
S11359F0BF92CF92DF92EF92FF920F931F93CF93B8
S1135A00DF93182F5B01813069F5CFE8D1E09885E9
S1135A108B81892B84B985B92FEF80E792E02150DF
S1135A2080409040E1F700C000000F2EFBEACF2E2B
S1135A30F1E0DF2EF02DF601E680F78088810E94E8
S1135A406C04E81AF90AF601C680D7808A810E949C
S1135A506C04E601C81BD90B88E49DE02DEF39E006
S1135A6001E013C0CFE8D1E098858D81892B84B9FA
S1135A7089810E9400057C018A810E946C04EC01EA
S1135A8080ED97E021ED33E002E02C173D0708F0AC
S1135A909FC080910901853161F4E8E0F1E081E083
S1135AA080838281912F982349F4846080930A0132
S1135AB005C0E8E0F1E085E1818312830E94122BA6
S1135AC06C01AE14BF0410F4EA18FB08D70120EFF0
S1135AD03BE247E050E00E94E3369E0140E050E0A4
S1135AE00E948636DA01C901880F991FAA1FBB1FBD
S1135AF04C015D01880C991CAA1CBB1C880C991CC8
S1135B00AA1CBB1CBC01CD01680D791D8A1D9B1DFF
S1135B10113069F420919D0130919E012057354E3A
S1135B2040E050E00E94863649015A010CC02091A1
S1135B309B0130919C012057354E40E050E00E947B
S1135B40863649015A01812F0E94B72930910A01F2
S1135B5032FDA0C0462F572F682F792F48155905BD
S1135B606A057B0510F4B501A40180918A01909126
S1135B708B01A0918C01B0918D0184179507A60724
S1135B80B70708F087C0E1E8F1E0418752876387EF
S1135B907487D086C782809191018083113051F43B
S1135BA0AFE8B1E08C91818311968C91828310923D
S1135BB0100170C0E1E8F1E0AFE8B1E011968C911A
S1135BC0119781838C91828381E08093100162C05C
S1135BD0F1E6AF16B10408F05DC08E159F0508F01C
S1135BE059C0CFE8D1E088810E946C047C0189818E
S1135BF00E946C04E701C81BD90BCA3FD10588F485
S1135C00E8E0F1E086E18183802F846182830130C2
S1135C1021F482E08093100115C083E08093100189
S1135C2025C0E8E0F1E087E18183802F84608283EE
S1135C30013021F488E08093100104C089E080934E
S1135C40100114C081E080930801802F0E94672A0C
S1135C50E1E8F1E0AFE8B1E012968C91129780830D
S1135C608C91818311968C91828314C081E08093FE
S1135C700801802F0E94672AE1E8F1E0AFE8B1E073
S1135C8012968C911297808311968C91119781832F
S1135C908C918283DF91CF911F910F91FF90EF90B0
S1135CA0DF90CF90BF90AF909F908F900895CF9248
S1135CB0DF92EF92FF920F931F93CF93DF93809124
S1135CC008018111D9C0CFE8D1E098858D81892B55
S1135CD084B989810E9409058C01888585B98981E7
