:1000000003C100002EC100002CC100002AC1000065
:1000100028C1000026C1000024C1000022C1000048
:1000200020C100001EC100001CC100001AC1000058
:1000300018C100000C94AD0B14C1000012C10000E7
:1000400010C100000EC100000CC100000AC1000078
:1000500008C1000006C1000004C100000C946B0C34
:1000600000C100000C942A0E0C947A0FFAC0000014
:10007000F8C00000F6C00000F4C00000F2C00000AC
:10008000F0C00000EEC00000ECC00000EAC00000BC
:100090000C946A0E0C94B90FE4C00000E2C000009A
:1000A000E0C00000DEC00000DCC00000DAC00000DC
:1000B000D8C00000D6C00000D4C00000D2C00000EC
:1000C000D0C00000CEC00000CCC000000C94AA0E2E
:1000D0000C94F80FC6C000000C94EA0E0C94371074
:1000E000C0C0000000002100240027002A002D00CD
:1000F0003000330001010000040107010A01000083
:100100002200250028002B002E00310034000201BF
:100110000000050108010B0100002000230026005B
:1001200029002C002F00320000010000030106010D
:10013000090105050505070508080808020202026D
:100140000A0A080804040404010101010101010173
:100150000303030303030303040707070C0C0C0C3E
:100160000C0C0C0C02020202060606060606060627
:100170000B0B0B0B0B0B0B0B0102102020080810B4
:100180002040102040800201020108040201010207
:1001900004081020408080402010080402018004E0
:1001A000020180402010080402010804020101023B
:1001B0000408102040800102040810204080000044
:1001C000090A02080B0C0D070603040100000000D9
:1001D000000000000000000000000000000000001F
:1001E0000000000000000000000011100F000000DF
:1001F00000000000000000000000000000000000FF
:10020000000000003002A71111241FBECFEFD1E281
:10021000DEBFCDBF00E00CBF12E0A0E0B2E0E2EB39
:10022000FCE200E00BBF02C007900D92A031B107C5
:10023000D9F71BBE15E0A0E1B2E001C01D92AE39B6
:10024000B107E1F712E0C8E0D2E004C02297FE0156
:100250000E945316C430D107C9F70E94DE120C94D5
:100260005716CECEEF92FF920F93DF93CF93CDB779
:10027000DEB760970FB6F894DEBF0FBECDBFA82FD4
:10028000002309F461C07E010894E11CF11C88E0A0
:10029000F70111928A95E9F729833A834B835C83AE
:1002A0006D837E83AF83988780E2801BE82FFF27D2
:1002B000E7FDF0954D815E816F817885181684F099
:1002C0001D861E861F86188A882799278E1B9F0BDE
:1002D00004C076956795579547958A95D2F728C0BB
:1002E000202F332727FD3095DB01CA01022E04C0E1
:1002F000B695A795979587950A94D2F78D879E878F
:10030000AF87B88B04C0440F551F661F771FEA954F
:10031000D2F789819A81AB81BC8104C0B695A7953B
:10032000979587952A95D2F7482B592B6A2B7B2BCB
:1003300049875A876B877C8729853A854B855C85F9
:100340006D857E85AF8598898A2F60960FB6F89463
:10035000DEBF0FBECDBFCF91DF910F91FF90EF9029
:100360000895EF92FF920F93DF93CF93CDB7DEB74F
:1003700060970FB6F894DEBF0FBECDBFA82F002345
:1003800009F461C07E010894E11CF11C88E0F701CA
:1003900011928A95E9F729833A834B835C836D83B5
:1003A0007E83AF83988780E2801BE82FFF27E7FDDD
:1003B000F09549815A816B817C81181684F01986E9
:1003C0001A861B861C86882799278E1B9F0B04C0C4
:1003D000440F551F661F771F8A95D2F728C0202F1C
:1003E000332727FD3095DB01CA01022E04C0880F98
:1003F000991FAA1FBB1F0A94D2F789879A87AB87D8
:10040000BC8704C07695679557954795EA95D2F7CE
:100410008D819E81AF81B88504C0880F991FAA1F66
:10042000BB1F2A95D2F7482B592B6A2B7B2B4D8764
:100430005E876F87788B29853A854B855C856D85CE
:100440007E85AF8598898A2F60960FB6F894DEBFB7
:100450000FBECDBFCF91DF910F91FF90EF90089528
:1004600080E192E066E370E0CEC080E192E061E17D
:1004700072E00E942E0B892B89F040911502509159
:100480001602609117027091180286E195E020E152
:1004900030E00E94C01380E192E0BAD08091150252
:1004A00090911602A0911702B0911802803028E0B6
:1004B000920720E0A20720E0B20789F1813028E00E
:1004C000920720E0A20720E0B20748F40097A105B8
:1004D000B10569F10197A105B10589F519C0803011
:1004E00024E792072FE0A20720E8B20771F08130DD
:1004F00024EF92072FE0A20720E8B20749F08150CD
:100500009840A040B040D9F403C08DE060E009C03D
:100510008DE061E00E94C80D8CE061E006C08DE0D6
:1005200061E00E94C80D8CE060E00C94C80D8DE085
:1005300061E00E94C80D8CE060E00C94C80D089545
:100540008DE061E00E94150D8CE061E00E94150DC8
:1005500086E195E040E855E260E070E00E947610A8
:1005600080E192E00C94520CDF92EF92FF920F9395
:100570001F93CF93DF93EC01882777FD8095982F09
:100580000E94D6147B018C0120E030E040E45FE360
:100590000E94861520E030E048E452E40E943B14BB
:1005A0000E94A314C617D70714F4DD241CC0DD2451
:1005B000C801B70120E030E040EA5FE30E94861501
:1005C00020E030E048E452E40E943B1420E030E0B8
:1005D00040E85FE30E94D3130E94A3146C177D07C9
:1005E00014F0DD24D3948D2D90E0DF91CF911F91F5
:1005F0000F91FF90EF90DF9008956C597F4FB4CF2B
:1006000064567040B1CF60931F021092210208958A
:1006100082E0809320021092EC020895AF92BF9284
:10062000CF92DF92EF92FF920F931F93CF93DF93BE
:100630006B01DB011A96CD91DC911B978A819B811E
:1006400068E273E2DADF892B09F47AC08091EC0268
:10065000843009F086C08C819D816AEC78E0D0DF1F
:10066000892B09F47EC08E819F8160E372E0C5DF33
:10067000892B09F476C0F601118610868FEF9FEF63
:10068000AFEFBFEF84839583A683B78381E090E0CB
:100690009183808350C08C819D8164E971E1B0DFDA
:1006A000892B09F44DC02696EE24FF24870123E010
:1006B000A22EB12C8881998160E372E09EDF892BA4
:1006C00009F43EC08A819B8160E476E099DF892B42
:1006D00069F0EE0CFF1C001F111F81E090E0A0E00C
:1006E000B0E0E82AF92A0A2B1B2B0BC08A819B81D8
:1006F00060E372E085DF892B19F1EE0CFF1C001F0F
:10070000111F249691E4A916B10429F0A2E0B0E0EB
:10071000AA0EBB1ECFCF80E290E0F60191878087C2
:10072000D6011496ED92FD920D931C93179781E0DC
:1007300090E08D939C9321E030E040E050E004C0D5
:1007400020E030E040E050E0B901CA01DF91CF91F4
:100750001F910F91FF90EF90DF90CF90BF90AF90DF
:1007600008958091EC02843458F395CFAF92BF92F4
:10077000CF92DF92EF92FF920F931F93CF93DF936D
:100780006B018091EC028A3108F47CC0DB011A967F
:10079000CD91DC911B9788819981845F914080F491
:1007A000FB01118610868FEF9FEFAFEFBFEF8483C1
:1007B0009583A683B78389E090E0918380835DC0B1
:1007C0008A819B8160E679E018DF892B09F45AC0A1
:1007D0002696EE24FF24870162E0A62EB12C2DC0C0
:1007E000229788819981229668E572E009DF892B3A
:1007F00069F18881998160EB74E0FFDE892B69F0F3
:10080000EE0CFF1C001F111F81E090E0A0E0B0E0A3
:10081000E82AF92A0A2B1B2B0BC08881998168E5ED
:1008200072E0EBDE892B71F1EE0CFF1C001F111F33
:10083000A2E0B0E0AA0EBB1E24968091EC029501C6
:100840002F5F3F4F90E02817390754F2C5010197F9
:1008500095958795F601918780870C971CF41186F2
:10086000108610C0D6011496ED92FD920D931C9344
:10087000179782E090E08D939C9321E030E040E078
:1008800050E004C020E030E040E050E0B901CA018F
:10089000DF91CF911F910F91FF90EF90DF90CF905C
:1008A000BF90AF900895AF92BF92CF92DF92EF9238
:1008B000FF920F931F93CF93DF936B018091EC0214
:1008C0008A3108F484C0DB011A96CD91DC911B9724
:1008D000888199818052934080F4FB0111861086B3
:1008E0008FEF9FEFAFEFBFEF84839583A683B7832E
:1008F00089E090E09183808365C08A819B816CEA66
:100900007DE07BDE892B09F462C08C819D816CEADD
:100910007DE073DE892B09F45AC02896EE24FF246B
:100920008701A3E0AA2EB12C2DC02297888199813E
:10093000229666EB73E064DE892B69F188819981E8
:1009400060E679E05ADE892B69F0EE0CFF1C001F8F
:10095000111F81E090E0A0E0B0E0E82AF92A0A2B1C
:100960001B2B0BC0888199816CEB72E046DE892BD2
:1009700071F1EE0CFF1C001F111FA2E0B0E0AA0EE7
:10098000BB1E24968091EC0295012F5F3F4F90E0B3
:100990002817390754F2C501019795958795F601F7
:1009A000918780870C971CF41186108610C0D601A1
:1009B0001496ED92FD920D931C93179789E090E0A9
:1009C0008D939C9321E030E040E050E004C020E0B3
:1009D00030E040E050E0B901CA01DF91CF911F91B2
:1009E0000F91FF90EF90DF90CF90BF90AF90089560
:1009F0006F927F928F929F92AF92BF92CF92DF922F
:100A0000EF92FF920F931F93CF93DF934B0180914F
:100A1000EC02823208F476C0DB011A96CD91DC91AB
:100A20001B978A819B816EE571E0E7DD892B09F4D4
:100A300069C036E0A32EB12CAC0EBD1EEE24FF24FF
:100A4000870122E0C22ED12C34C0E5012297888193
:100A500099816EE977E0D1DD892B69F0EE0CFF1CFE
:100A6000001F111F81E090E0A0E0B0E0E82AF92A21
:100A70000A2B1B2B0CC0888199816EEE72E0BDDDC4
:100A8000892B09F43FC0EE0CFF1C001F111FD5017C
:100A90008D919C916EE571E0B3DDE4E0F0E0AE0E87
:100AA000BF1E892B11F463010FC022E030E0C20E9B
:100AB000D31E36010894611C711C8091EC0290E0F9
:100AC000681679060CF4C1CFC601019795958795F4
:100AD000D40119969C938E93189740972CF41996ED
:100AE0001C921E9218970EC0F401E482F5820683D0
:100AF00017838AE090E09183808321E030E040E03A
:100B000050E004C020E030E040E050E0B901CA010C
:100B1000DF91CF911F910F91FF90EF90DF90CF90D9
:100B2000BF90AF909F908F907F906F9008956F923D
:100B30007F928F929F92AF92BF92CF92DF92EF926D
:100B4000FF920F931F93CF93DF93FB013A0159015B
:100B50006801DA012D913C91848595852817390724
:100B600024F071E0E72EF12C53C0C901880F991FC2
:100B70000284F385E02DE80FF91F80819181982E82
:100B8000892E20FD06C00CE91FEF51E0E52EF12C67
:100B900004C004E610E0EE24FF24B8016C0D7D1DB6
:100BA000892D982DE1DC892B19F021E030E01EC061
:100BB000E601CC0FDD1FB8016C0F7D1F892D982D2C
:100BC000D3DC892B19F022E030E010C0CC0DDD1D04
:100BD0000C0F1D1F892D982DB801C6DC892B21F41F
:100BE000EE24EA94FE2C14C023E030E0F50180816D
:100BF0009181019691838083821793074CF0118233
:100C00001082D3018D919C91119701968D939C93A5
:100C1000C701DF91CF911F910F91FF90EF90DF906F
:100C2000CF90BF90AF909F908F907F906F900895DE
:100C30002F923F924F925F926F927F928F929F92EC
:100C4000AF92BF92CF92DF92EF92FF920F931F93DA
:100C5000DF93CF9300D000D0CDB7DEB71C015B018E
:100C60008091EC028D3008F479C081E090E09A83A5
:100C700089831C821B82A3E08A2E912C8C0E9D1EE0
:100C8000C1012E010894411C511CA201940109E7E5
:100C900013E04DDF892B09F061C0C101B501A2014C
:100CA000940145DF019709F059C0C101B501A201C6
:100CB00094013DDF892B09F051C0CC24DD2476015D
:100CC00066247724C4018D829E832DC0C101B501A5
:100CD000A2012D813E8109E713E029DF4C01C1010A
:100CE000B501A2012D813E8122DF21E0821691040F
:100CF00079F4892B99F5CC0CDD1CEE1CFF1C81E0EE
:100D000090E0A0E0B0E0C82AD92AEA2AFB2A08C06D
:100D1000892821F5019711F5CC0CDD1CEE1CFF1C78
:100D20000894611C711C8091EC0290E029813A8149
:100D3000281739075CF2D50119967C926E921897A4
:100D4000F501C482D582E682F78283E090E0918348
:100D5000808321E030E040E050E004C020E030E05B
:100D600040E050E0B901CA0126960FB6F894DEBF04
:100D70000FBECDBFCF91DF911F910F91FF90EF90EC
:100D8000DF90CF90BF90AF909F908F907F906F90AB
:100D90005F904F903F902F9008952F923F924F92E7
:100DA0005F926F927F928F929F92AF92BF92CF92FB
:100DB000DF92EF92FF920F931F93DF93CF93CDB704
:100DC000DEB728970FB6F894DEBF0FBECDBF1C016B
:100DD0004B01DB011C968D919C911D9718161906ED
:100DE0000CF0BCC081E090E09A8389831A960D9143
:100DF0001C911B97F801828193816AE67AE0FDDB02
:100E0000892B09F4ABC082E090E09A838983D801F2
:100E100014968D919C91159769E773E0F1DB892B0E
:100E200009F49CC083E090E09A8389831C821B8232
:100E300003E0A02EB12CAC0EBD1EC101B4013E01D9
:100E40000894611C711CA30195010CEB11E06FDE8D
:100E5000892B09F083C0C101B401A301950167DEAC
:100E6000019709F07BC0CC24DD247601442455246D
:100E7000C501AD829E83C3016F82988752C0C101B4
:100E8000B4014F8158852D813E810CEB11E04FDE7E
:100E90003C01B3E04B16510459F4C101B4014F8138
:100EA00058852D813E8143DE6816790609F056C0CB
:100EB000C101B4014F8158852D813E810CEB11E0B9
:100EC00036DE5C01E3E04E16510451F4C101B40179
:100ED0004F8158852D813E812ADEA816B906F1F58D
:100EE0006114710489F4F1E0AF16B104B9F5CC0CCA
:100EF000DD1CEE1CFF1C81E090E0A0E0B0E0C82A01
:100F0000D92AEA2AFB2A0AC091E06916710431F550
:100F1000AB2821F5CC0CDD1CEE1CFF1C0894411CF9
:100F2000511C29813A81D4011C968D919C911D9769
:100F3000281739070CF4A3CF19965C924E92189794
:100F4000F401C482D582E682F78284E090E0918346
:100F5000808321E030E040E050E004C020E030E059
:100F600040E050E0B901CA0128960FB6F894DEBF00
:100F70000FBECDBFCF91DF911F910F91FF90EF90EA
:100F8000DF90CF90BF90AF909F908F907F906F90A9
:100F90005F904F903F902F9008956F927F928F9225
:100FA0009F92AF92BF92CF92DF92EF92FF920F93F8
:100FB0001F93CF93DF937B01FB01C285D3858A8189
:100FC0009B816EEA7DE019DB892B09F46DC08C8171
:100FD0009D8166ED76E011DB892B09F465C02696CC
:100FE00000E010E0DD24CC249924882477246624B2
:100FF00083E0A82EB12C8881998166EF71E0FDDA3B
:10100000892B09F451C08A819B816CED74E0F8DA78
:10101000892B61F098014D2D5C2D692D782D872D40
:10102000962D01E09ED9022F016011C08A819B811B
:1010300060E971E0E5DA892BB9F198014D2D5C2D5D
:10104000692D782D872D962D01E08BD9022F132F36
:10105000D42EC52E962E872E782E692E2496F1E654
:10106000AF16B10429F082E090E0A80EB91EC3CFFC
:10107000C801F70104839583468357839801872D20
:10108000962D00E2EFD8C901F7012283938387E010
:1010900090E09183808380E390E09187808721E0D6
:1010A00030E040E050E004C020E030E040E050E0BC
:1010B000B901CA01DF91CF911F910F91FF90EF907D
:1010C000DF90CF90BF90AF909F908F907F906F9068
:1010D00008958F929F92AF92BF92CF92DF92EF923C
:1010E000FF920F931F93CF93DF934B01DB011A966F
:1010F000CD90DC901B97F6018281938160E47FE1C3
:101100007CDA892B09F469C08091EC02893308F4F8
:1011100064C0D60114968D919C91159760EA7FE08A
:101120006FDA892B09F459C0E6012696EE24FF24D4
:10113000870133E0A32EB12C8881998168E572E0A4
:101140005CDA892B09F449C08A819B8160E476E0EE
:1011500057DA892B69F0EE0CFF1C001F111F81E08C
:1011600090E0A0E0B0E0E82AF92A0A2B1B2B0BC084
:101170008A819B8166E272E043DA892B71F1EE0C81
:10118000FF1C001F111FA2E0B0E0AA0EBB1E249698
:10119000BBE3AB16B10481F6E6E7F0E0CE0EDF1E4E
:1011A000D6018D919C9168E572E027DA892BA9F030
:1011B0008CE190E0F40191878087D4011496ED9240
:1011C000FD920D931C9317978CE090E08D939C9368
:1011D00021E030E040E050E004C020E030E040E0BA
:1011E00050E0B901CA01DF91CF911F910F91FF909B
:1011F000EF90DF90CF90BF90AF909F908F90089529
:101200008F929F92AF92BF92CF92DF92EF92FF9216
:101210000F931F93CF93DF936B018091EC02823287
:1012200009F0ABC0DB011A96CD91DC911B978A8146
:101230009B8168E572E0E1D9892B09F49EC0809119
:10124000EC0221E030E0281B3109220F331FC21BC2
:10125000D30B8881998168E572E0CFD9892B09F495
:101260008CC0F601118610868FEF9FEFAFEFBFEFB6
:1012700084839583A683B78388E090E091838083FD
:1012800064C08091EC02813208F464C0D5011496E8
:101290008D919C91159760EA7FE0B2D9892B09F472
:1012A00059C0E5012696EE24FF24870163E0862ECF
:1012B000912C8881998168E572E09FD9892B09F486
:1012C00049C08A819B8160E476E09AD9892B69F0D4
:1012D000EE0CFF1C001F111F81E090E0A0E0B0E0C9
:1012E000E82AF92A0A2B1B2B0BC08A819B8166E214
:1012F00072E086D9892B71F1EE0CFF1C001F111FC3
:10130000A2E0B0E08A0E9B1E2496B3E28B169104F5
:1013100081F6E6E4F0E0AE0EBF1ED5018D919C9102
:1013200068E572E06AD9892BA9F080E190E0F601C6
:1013300091878087D6011496ED92FD920D931C93B0
:10134000179788E090E08D939C9321E030E040E097
:1013500050E004C020E030E040E050E0B901CA01B4
:10136000DF91CF911F910F91FF90EF90DF90CF9081
:10137000BF90AF909F908F900895F601A284B384A0
:10138000D50112968D919C91139760E47FE135D938
:10139000892B09F076CFDECFAF92BF92CF92DF924A
:1013A000EF92FF920F931F93CF93DF936B01DB01BB
:1013B0001A96CD91DC911B978A819B8168E873E135
:1013C0001CD9892B09F47AC08091EC02843009F091
:1013D00086C08C819D816AEC78E012D9892B09F452
:1013E0007EC08E819F8160E372E007D9892B09F46A
:1013F00076C0F601118610868FEF9FEFAFEFBFEF3B
:1014000084839583A683B7838BE090E09183808368
:1014100050C08C819D8168E873E1F2D8892B09F472
:101420004DC02696EE24FF248701A3E0AA2EB12CFE
:101430008881998160E372E0E0D8892B09F43EC08D
:101440008A819B8160E476E0DBD8892B69F0EE0C21
:10145000FF1C001F111F81E090E0A0E0B0E0E82A2F
:10146000F92A0A2B1B2B0BC08A819B8160E372E057
:10147000C7D8892B19F1EE0CFF1C001F111F2496F1
:1014800091E4A916B10429F0A2E0B0E0AA0EBB1EB7
:10149000CFCF80E290E0F60191878087D601149645
:1014A000ED92FD920D931C9317978BE090E08D9336
:1014B0009C9321E030E040E050E004C020E030E0C8
:1014C00040E050E0B901CA01DF91CF911F910F9127
:1014D000FF90EF90DF90CF90BF90AF9008958091F4
:1014E000EC02843458F395CF2F923F924F925F9243
:1014F0006F927F928F929F92AF92BF92CF92DF9224
:10150000EF92FF920F931F93DF93CF930F920F925F
:10151000CDB7DEB71B01FB0184859585863091052B
:101520002CF420E030E040E050E081C035ECA32E08
:101530003DE9B32E3CE1C32E31E8D32E26E0422E06
:10154000512C9C01220F331F3A83298359C0F1018A
:10155000A285B385F2013497EA0FFB1FE080F1808A
:10156000A40DB51D6D917C9180E090E00E94D41493
:101570003B014C0100E010E0C801B7010E94D41407
:101580007B018C012DEC3CEC4CE45FE30E94861562
:101590009B01AC01C401B3010E94371488231CF4E1
:1015A00000E010E018C0C401B3012DEC3CEC4CE4A9
:1015B0005FE30E9486159B01AC01C801B7010E9440
:1015C0003714082F112707FD10950027110F001F52
:1015D00011270F5F1F4FC601B50123E931E040E03D
:1015E00051E00E94E9155801CC24B7FCC094DC2CD2
:1015F000A626B726C826D92622E030E0420E531E82
:1016000089819A814816590609F0A1CFF101A48277
:10161000B582C682D78280E290E0918780878FEF83
:101620009FEF9183808321E030E040E050E0B901FA
:10163000CA010F900F90CF91DF911F910F91FF90F2
:10164000EF90DF90CF90BF90AF909F908F907F9062
:101650006F905F904F903F902F9008950F931F933E
:10166000CF93DF938C01EB0184E292E09B878A8722
:101670008091EC028C871D8680912002853009F0D4
:1016800061C0C8010E940E036115710581059105B5
:1016900009F05BC0C801BE0169D8611571058105FB
:1016A000910509F052C0C801BE01FDD86115710550
:1016B0008105910509F049C0C801BE0199D961159C
:1016C00071058105910509F040C0C801BE01B0DA7D
:1016D0006115710581059105C1F5C801BE015DDB8C
:1016E000611571058105910581F5C801BE0155DCC3
:1016F000611571058105910541F5C801BE01E9DC5F
:10170000611571058105910501F5C801BE0178DDFE
:101710006115710581059105C1F4C801BE013CDE6A
:10172000611571058105910581F4C801BE01DCDEFA
:10173000611571058105910541F482E080932002D5
:101740001092EC0220E030E002C021E030E0C9015C
:10175000DF91CF911F910F9108951F920F920FB6B5
:101760000F920BB60F9211242F933F934F935F93D9
:101770006F937F938F939F93AF93BF93EF93FF9359
:1017800080911F0237D2482F80912202909123022C
:10179000019690932302809322028091EC0284367A
:1017A00018F085E080932002809120028330D1F0F0
:1017B000843020F4823009F059C006C0843071F1C1
:1017C000853009F053C04CC0442309F04FC08091CC
:1017D0002202909123028436910508F443C01092AE
:1017E000EC021EC0413009F041C08091EC02E82FAC
:1017F000F0E02091220230912302EE0FFF1FE15E04
:10180000FD4F368325838F5F8093EC021092230275
:101810001092220284E08093200228C04423B9F46D
:101820008091EC02E82FF0E0209122023091230217
:10183000EE0FFF1FE15EFD4F368325838F5F8093A0
:10184000EC02109223021092220283E0E4CF8091F6
:101850002202909123028536910540F085E0DBCF8E
:10186000442321F41092230210922202809121023B
:10187000882329F0442311F42F9A01C02F98FF9157
:10188000EF91BF91AF919F918F917F916F915F91F8
:101890004F913F912F910F900BBE0F900FBE0F9065
:1018A0001F901895F89492E09093B0009093B10037
:1018B00084E68093B300E2EBF0E01082E081909345
:1018C0007000789482E0809320021092EC02809164
:1018D0001F0260E0AAC01F920F920FB60F92112450
:1018E0002F933F938F939F93AF93BF938091F10278
:1018F0009091F202A091F302B091F4023091F502BE
:101900000196A11DB11D232F2D5F2D3720F02D57DE
:101910000196A11DB11D2093F5028093F1029093D1
:10192000F202A093F302B093F4028091ED02909141
:10193000EE02A091EF02B091F0020196A11DB11D3F
:101940008093ED029093EE02A093EF02B093F00229
:10195000BF91AF919F918F913F912F910F900FBEAB
:101960000F901F901895789484B5826084BD84B5DB
:10197000816084BD85B5826085BD85B5816085BD8A
:10198000EEE6F0E0808181608083E1E8F0E01082A3
:10199000808182608083808181608083E0E8F0E0E4
:1019A000808181608083E1EBF0E0808184608083CE
:1019B000E0EBF0E0808181608083E1E9F0E080810C
:1019C00082608083808181608083E0E9F0E08081B3
:1019D00081608083E1EAF0E08081826080838081A1
:1019E00081608083E0EAF0E0808181608083E1E2D1
:1019F000F1E0808182608083808181608083E0E289
:101A0000F1E0808181608083EAE7F0E0808184609A
:101A100080838081826080838081816080838081F7
:101A2000806880831092C1000895CF93DF93482F80
:101A300050E0CA0188589E4FFC0134914E5C5E4FC5
:101A4000FA018491882369F190E0880F991FFC01C5
:101A5000EC51FF4FA591B491FC01E250FF4FC591AD
:101A6000D491662351F42FB7F8948C91932F9095CD
:101A700089238C93888189230BC0623061F42FB74E
:101A8000F8948C91932F909589238C938881832B44
:101A900088832FBF06C09FB7F8948C91832B8C93BB
:101AA0009FBFDF91CF910895893009F449C08A30F2
:101AB000A0F4843051F1853040F4823079F18330E4
:101AC00000F5813009F063C026C0873079F1883095
:101AD00098F5863009F05BC025C08D3009F442C00E
:101AE0008E3028F48B30B1F18C30C0F52DC08031B0
:101AF00009F442C0813109F445C08F3009F047C074
:101B000037C0809180008F7703C0809180008F7DE7
:101B100080938000089584B58F7702C084B58F7D4F
:101B200084BD08958091B0008F7703C08091B0008C
:101B30008F7D8093B0000895809190008F7707C0CB
:101B4000809190008F7D03C080919000877F80936B
:101B5000900008958091A0008F7707C08091A00029
:101B60008F7D03C08091A000877F8093A00008959F
:101B7000809120018F7703C0809120018F7D809319
:101B80002001089580912001877F8093200108958E
:101B9000FF920F931F93F62E482F50E0CA018254F4
:101BA0009E4FFC012491CA0188589E4FFC0114915C
:101BB0004E5C5E4FFA0104910023C1F0222311F024
:101BC000822F72DFE02FF0E0EE0FFF1FE250FF4F99
:101BD000A591B4919FB7F894FF2021F48C911095B2
:101BE000812302C08C91812B8C939FBF1F910F91F9
:101BF000FF9008950F931F93482F50E0CA0182541D
:101C00009E4FFC012491CA0188589E4FFC0104910B
:101C10004E5C5E4FFA011491112319F420E030E07C
:101C200014C0222311F0822F3FDF812F90E0880F14
:101C3000991F885E9E4FFC01A591B4918C9120E084
:101C400030E0802311F021E030E0C9011F910F91B5
:101C5000089508951F920F920FB60F920BB60F9230
:101C600011242F933F934F938F939F93EF93FF9361
:101C70008091C00082FD1DC04091C60020913603B6
:101C8000309137032F5F3F4F2F73307080913803AF
:101C9000909139032817390771F0E0913603F091DC
:101CA0003703EA50FD4F40833093370320933603C8
:101CB00002C08091C600FF91EF919F918F914F914B
:101CC0003F912F910F900BBE0F900FBE0F901F9062
:101CD000189508951F920F920FB60F920BB60F92A0
:101CE00011242F933F934F938F939F93EF93FF93E1
:101CF0008091C80082FD1DC04091CE002091BE039E
:101D00003091BF032F5F3F4F2F7330708091C0031E
:101D10009091C1032817390771F0E091BE03F0914B
:101D2000BF03E258FC4F40833093BF032093BE03B0
:101D300002C08091CE00FF91EF919F918F914F91C2
:101D40003F912F910F900BBE0F900FBE0F901F90E1
:101D5000189508951F920F920FB60F920BB60F921F
:101D600011242F933F934F938F939F93EF93FF9360
:101D70008091D00082FD1DC04091D6002091460484
:101D8000309147042F5F3F4F2F733070809148048C
:101D9000909149042817390771F0E0914604F091B9
:101DA0004704EA5FFB4F4083309347042093460487
:101DB00002C08091D600FF91EF919F918F914F913A
:101DC0003F912F910F900BBE0F900FBE0F901F9061
:101DD000189508951F920F920FB60F920BB60F929F
:101DE00011242F933F934F938F939F93EF93FF93E0
:101DF0008091300182FD1DC0409136012091CE04BA
:101E00003091CF042F5F3F4F2F7330708091D004FB
:101E10009091D1042817390771F0E091CE04F09128
:101E2000CF04E257FB4F40833093CF042093CE047E
:101E300002C080913601FF91EF919F918F914F9158
:101E40003F912F910F900BBE0F900FBE0F901F90E0
:101E50001895E0912205F0912305E05CFF4F8191F8
:101E6000919120813181805C9F4F821B930B60E4B4
:101E700070E0CED6892B09F0ECDEE0914405F091BC
:101E80004505E05CFF4F8191919120813181805C1B
:101E90009F4F821B930B60E470E0BAD6892B09F048
:101EA00018DFE0916605F0916705E05CFF4F8191D6
:101EB000919120813181805C9F4F821B930B60E464
:101EC00070E0A6D6892B09F044DFE0918805F091F7
:101ED0008905E05CFF4F8191919120813181805C87
:101EE0009F4F821B930B60E470E092D6892B09F020
:101EF00070CF08951F920F920FB60F920BB60F92EC
:101F000011242F933F938F939F93EF93FF932091EF
:101F10007A0330917B0380917C0390917D03281795
:101F2000390731F48091C1008F7D8093C10014C0C6
:101F3000E0917C03F0917D03E65CFC4F2081809171
:101F40007C0390917D0301968F73907090937D0335
:101F500080937C032093C600FF91EF919F918F9116
:101F60003F912F910F900BBE0F900FBE0F901F90BF
:101F700018951F920F920FB60F920BB60F92112465
:101F80002F933F938F939F93EF93FF93209102049E
:101F900030910304809104049091050428173907B7
:101FA00031F48091C9008F7D8093C90014C0E09105
:101FB0000404F0910504EE53FC4F20818091040449
:101FC0009091050401968F7390709093050480930F
:101FD00004042093CE00FF91EF919F918F913F9148
:101FE0002F910F900BBE0F900FBE0F901F90189562
:101FF0001F920F920FB60F920BB60F9211242F93D0
:102000003F938F939F93EF93FF9320918A04309196
:102010008B0480918C0490918D042817390731F43A
:102020008091D1008F7D8093D10014C0E0918C0409
:10203000F0918D04E65BFB4F208180918C049091A0
:102040008D0401968F73907090938D0480938C040F
:102050002093D600FF91EF919F918F913F912F9107
:102060000F900BBE0F900FBE0F901F9018951F92F0
:102070000F920FB60F920BB60F9211242F933F932E
:102080008F939F93EF93FF93209112053091130547
:1020900080911405909115052817390731F4809126
:1020A00031018F7D8093310114C0E0911405F091CE
:1020B0001505EE52FB4F2081809114059091150576
:1020C00001968F739070909315058093140520935B
:1020D0003601FF91EF919F918F913F912F910F903A
:1020E0000BBE0F900FBE0F901F901895AF92BF922E
:1020F000DF92EF92FF920F931F93CF93DF93EC0148
:102100007A018B01DD24403081EE580780E06807BA
:1021100080E0780711F0DD24D39491E0A92EB12C52
:10212000EC89FD89DD2069F0C50108A002C0880F97
:10213000991F0A94E2F7808360E079E08DE390E0F4
:1021400005C0108260E874E88EE190E0A801970174
:1021500072D52150304040405040569547953795B4
:10216000279580E12030380720F0DD2011F0DD24B4
:10217000D7CFE889F9893083EA89FB89208319A2BE
:10218000EE89FF89408121E030E0C9010C8C02C05A
:10219000880F991F0A94E2F7482B4083EE89FF8944
:1021A0004081C9010D8C02C0880F991F0A94E2F783
:1021B000482B4083EE89FF894081C9010E8C02C003
:1021C000880F991F0A94E2F7482B4083EE89FF8914
:1021D00080810F8C02C0220F331F0A94E2F72095F2
:1021E00028232083DF91CF911F910F91FF90EF90D3
:1021F000DF90BF90AF900895DC011C96ED91FC91AB
:102200001D97E05CFF4F8191919120813181805C2D
:102210009F4F821B930B60E470E0FAC4DC011C96B4
:10222000ED91FC911D97E05CFF4F20813181E054DE
:10223000F040DF01AE5BBF4F8D919C911197281745
:10224000390719F42FEF3FEF07C08D919C91E80FEC
:10225000F91F8081282F30E0C9010895DC011C9608
:10226000ED91FC911D97E05CFF4F20813181E0549E
:10227000F040DF01AE5BBF4F8D919C911197281705
:10228000390719F42FEF3FEF10C08D919C911197F2
:10229000E80FF91F20818D919C91119701968F7302
:1022A000907011969C938E9330E0C9010895DC01E3
:1022B00091968C919197882339F05496ED91FC91E9
:1022C0005597808186FFF9CF91961C920895CF9300
:1022D000DF93EC01EE85FF85E05CFF4F20813181CB
:1022E000E054F0402F5F3F4F2F733070DF01AE5B43
:1022F000BF4F8D919C91119728173907D1F3E05C5E
:10230000FF4F80819181E054F040E80FF91F608316
:10231000EE85FF85E05CFF4F31832083EE89FF89E6
:10232000208181E090E00F8C02C0880F991F0A94F1
:10233000E2F7282B208381E089A3EC89FD89808145
:102340008064808381E090E0DF91CF9108951F93B6
:10235000109219051092180528EE33E040E050E085
:1023600020931A0530931B0540931C0550931D05BF
:1023700064E072E0709317056093160586EF92E0B3
:1023800090932305809322058AE393E0909325059B
:102390008093240585EC90E0909327058093260593
:1023A00084EC90E0909329058093280580EC90E0E0
:1023B00090932B0580932A0581EC90E090932D0556
:1023C00080932C0582EC90E090932F0580932E054E
:1023D00086EC90E0909331058093300514E01093E3
:1023E0003205B3E0B0933305A7E0A0933405F5E0E0
:1023F000F0933505E1E0E093360510923B0510922D
:102400003A0520933C0530933D0540933E0550939B
:102410003F0570933905609338058EE793E09093FC
:1024200045058093440582EC93E0909347058093A3
:1024300046058DEC90E090934905809348058CEC1F
:1024400090E090934B0580934A0588EC90E0909340
:102450004D0580934C0589EC90E090934F05809357
:102460004E058AEC90E090935105809350058EECD8
:1024700090E0909353058093520510935405B093C8
:102480005505A0935605F0935705E0935805109213
:102490005D0510925C0520935E0530935F054093C7
:1024A00060055093610570935B0560935A0586E063
:1024B00094E090936705809366058AE494E0909396
:1024C00069058093680585ED90E090936B05809396
:1024D0006A0584ED90E090936D0580936C0580ED26
:1024E00090E090936F0580936E0581ED90E090935E
:1024F00071058093700582ED90E090937305809351
:10250000720586ED90E090937505809374051093A5
:102510007605B0937705A0937805F0937905E0935D
:102520007A0510927F0510927E05209380053093E6
:102530008105409382055093830570937D056093D8
:102540007C058EE894E0909389058093880582ED60
:1025500094E090938B0580938A0585E391E09093B6
:102560008D0580938C0584E391E090938F05809393
:102570008E0580E391E0909391058093900581E32F
:1025800091E0909393058093920582E391E090937C
:1025900095058093940586E391E090939705809349
:1025A000960510939805B0939905A0939A05F0931A
:1025B0009B05E0939C051F9108950895CF93DF93A9
:1025C000D2D9FBDF0E94A002C9E2DFE00E943502FF
:1025D0002097E1F33EDCFACFCF92DF92EF92FF92A9
:1025E0000F931F93CF93DF937C016B018A01C0E0AF
:1025F000D0E00FC0D6016D916D01D701ED91FC9136
:102600000190F081E02DC7011995C80FD91F015025
:1026100010400115110571F7CE01DF91CF911F9187
:102620000F91FF90EF90DF90CF900895EF92FF927F
:102630000F931F938C01DC01ED91FC910190F081CF
:10264000E02D6DE019957C01D801ED91FC91019090
:10265000F081E02DC8016AE019959C012E0D3F1D07
:10266000C9011F910F91FF90EF900895CF93DF93D1
:10267000EC016115710519F420E030E00FC0DB01B9
:102680000D900020E9F71197A61BB70BE881F9819F
:102690000280F381E02DAD0119959C01C901DF9104
:1026A000CF9108954F925F927F928F929F92AF92B7
:1026B000BF92CF92DF92EF92FF920F931F93DF931F
:1026C000CF93CDB7DEB7A1970FB6F894DEBF0FBE9C
:1026D000CDBF2C01742ECB01223008F42AE019A2C0
:1026E00031E2C32ED12CCC0EDD1E822E9924AA24D9
:1026F000BB24672D752FA50194019DD279018A0114
:10270000C801B701A501940164D2472D461B089466
:10271000C108D1084A3014F4405D01C0495CF6019B
:102720004083E114F1040105110521F07E2C5F2D99
:10273000C801DFCFC201B60199DFA1960FB6F894A8
:10274000DEBF0FBECDBFCF91DF911F910F91FF90E4
:10275000EF90DF90CF90BF90AF909F908F907F9041
:102760005F904F900895DC012115310541F4ED9102
:10277000FC910190F081E02D642F1995089592CF7E
:10278000EF92FF920F931F937C01EDDF8C01C70145
:102790004DDF9C01200F311FC9011F910F91FF9048
:1027A000EF9008955058BB27AA270ED075C166D167
:1027B00030F06BD120F031F49F3F11F41EF45BC177
:1027C0000EF4E095E7FB51C1E92F77D180F3BA17FA
:1027D000620773078407950718F071F49EF58FC19F
:1027E0000EF4E0950B2EBA2FA02D0B01B90190012C
:1027F0000C01CA01A0011124FF27591B99F0593F70
:1028000050F4503E68F11A16F040A22F232F342FB7
:102810004427585FF3CF469537952795A795F04005
:102820005395C9F77EF41F16BA0B620B730B840B1A
:10283000BAF09150A1F0FF0FBB1F661F771F881FD2
:10284000C2F70EC0BA0F621F731F841F48F487952A
:1028500077956795B795F7959E3F08F0B3CF939519
:10286000880F08F09927EE0F979587950895D9D08E
:1028700008F481E008950CD00FC107D140F0FED0DC
:1028800030F021F45F3F19F0F0C0511139C1F3C0AD
:1028900014D198F39923C9F35523B1F3951B550B24
:1028A000BB27AA2762177307840738F09F5F5F4F23
:1028B000220F331F441FAA1FA9F333D00E2E3AF064
:1028C000E0E830D091505040E695001CCAF729D07E
:1028D000FE2F27D0660F771F881FBB1F26173707CD
:1028E0004807AB07B0E809F0BB0B802DBF01FF27FD
:1028F00093585F4F2AF09E3F510568F0B6C000C163
:102900005F3FECF3983EDCF3869577956795B79536
:10291000F7959F5FC9F7880F911D9695879597F951
:102920000895E1E0660F771F881FBB1F62177307CA
:102930008407BA0720F0621B730B840BBA0BEE1FDF
:1029400088F7E095089504D06894B111D9C008952E
:10295000BCD088F09F5790F0B92F9927B751A0F0BD
:10296000D1F0660F771F881F991F1AF0BA95C9F723
:1029700012C0B13081F0C3D0B1E00895C0C0672F5C
:10298000782F8827B85F39F0B93FCCF386957795D3
:102990006795B395D9F73EF49095809570956195BC
:1029A0007F4F8F4F9F4F0895E89409C097FB3EF4E7
:1029B00090958095709561957F4F8F4F9F4F99238C
:1029C000A9F0F92F96E9BB279395F695879577950A
:1029D0006795B795F111F8CFFAF4BB0F11F460FFCA
:1029E0001BC06F5F7F4F8F4F9F4F16C0882311F022
:1029F00096E911C0772321F09EE8872F762F05C036
:102A0000662371F096E8862F70E060E02AF09A95D0
:102A1000660F771F881FDAF7880F9695879597F9C5
:102A20000895990F0008550FAA0BE0E8FEEF16165F
:102A30001706E807F907C0F012161306E407F507B2
:102A400098F0621B730B840B950B39F40A2661F026
:102A5000232B242B252B21F408950A2609F4A140C9
:102A6000A6958FEF811D811D089597F99F6780E8D6
:102A700070E060E008959FEF80EC089500240A94D0
:102A80001616170618060906089500240A94121649
:102A90001306140605060895092E0394000C11F47C
:102AA000882352F0BB0F40F4BF2B11F460FF04C029
:102AB0006F5F7F4F8F4F9F4F089557FD9058440F82
:102AC000551F59F05F3F71F04795880F97FB991F8D
:102AD00061F09F3F79F0879508951216130614064A
:102AE000551FF2CF4695F1DF08C0161617061806D7
:102AF000991FF1CF86957105610508940895E894B2
:102B0000BB2766277727CB0197F908950BD0C4CF51
:102B1000B5DF28F0BADF18F0952309F0A6CFABCFC8
:102B20001124EECFCADFA0F3959FD1F3950F50E0AB
:102B3000551F629FF001729FBB27F00DB11D639F6F
:102B4000AA27F00DB11DAA1F649F6627B00DA11D15
:102B5000661F829F2227B00DA11D621F739FB00DBB
:102B6000A11D621F839FA00D611D221F749F33272B
:102B7000A00D611D231F849F600D211D822F762FC4
:102B80006A2F11249F5750408AF0E1F088234AF0C1
:102B9000EE0FFF1FBB1F661F771F881F915050400D
:102BA000A9F79E3F510570F060CFAACF5F3FECF3CD
:102BB000983EDCF3869577956795B795F795E795F9
:102BC0009F5FC1F7FE2B880F911D9695879597F90A
:102BD0000895629FD001739FF001829FE00DF11D67
:102BE000649FE00DF11D929FF00D839FF00D749F87
:102BF000F00D659FF00D9927729FB00DE11DF91F33
:102C0000639FB00DE11DF91FBD01CF01112408958F
:102C100097FB092E07260AD077FD04D02ED006D0C8
:102C200000201AF4709561957F4F0895F6F79095FE
:102C300081959F4F0895A1E21A2EAA1BBB1BFD018F
:102C40000DC0AA1FBB1FEE1FFF1FA217B307E4078B
:102C5000F50720F0A21BB30BE40BF50B661F771FE3
:102C6000881F991F1A9469F76095709580959095C3
:102C70009B01AC01BD01CF010895AA1BBB1B51E113
:102C800007C0AA1FBB1FA617B70710F0A61BB70BDC
:102C9000881F991F5A95A9F780959095BC01CD0181
:102CA0000895EE0FFF1F0590F491E02D1994F8940C
:022CB000FFCF54
:102CB200000000006711EC12FC102E110E115711CA
:00000001FF
