:1000000071C000008EC000008CC000008AC00000DB
:1000100088C0000086C0000084C0000082C00000CC
:1000200080C000007EC000007CC000007AC00000DC
:1000300078C0000076C0000074C0000072C00000EC
:1000400070C000006EC000006CC000006AC00000FC
:1000500068C0000066C0000064C0000062C000000C
:1000600060C000005EC000005CC000005AC000001C
:1000700058C0000056C0000054C0000052C000002C
:1000800050C000004EC000004CC000004AC000003C
:1000900048C0000046C0000044C0000042C000004C
:1000A00040C000003EC000003CC000003AC000005C
:1000B00038C0000036C0000034C0000032C000006C
:1000C00030C000002EC000002CC000002AC000007C
:1000D00028C0000026C0000024C0000022C000008C
:1000E00020C0000011241FBECFEFD1E2DEBFCDBF84
:1000F00000E00CBF12E0A0E0B2E0EAEAF3E000E0CA
:100100000BBF02C007900D92A830B107D9F722E0CB
:10011000A8E0B2E001C01D92AA30B207E1F7BED05C
:1001200042C16ECF169A85E08A95F1F700001698C5
:100130000895CF93DF93D82F662311F0149A01C04E
:100140001498159881B18F6081B9C2B1C07F8D2F8D
:1001500082958F708C2B82B9E5DFDF70DC2BD2B9F2
:10016000E1DFCF60C2B9DF91CF910895882311F00C
:10017000149A01C01498159A81B1807F81B9169A9A
:1001800085E08A95F1F7000020B1169885E08A9500
:10019000F1F70000169A85E08A95F1F7000090B11A
:1001A0002295207F892F8F701698822B089580E0EA
:1001B000DDDF8823E4F385E18A95F1F7000080E034
:1001C000D5CF0895CF93C82FF2DF60E08C2FB1DF39
:1001D000CF910895611103C08058F4CF08958054E1
:1001E000F1CF089581E0EECF089582E0EBCF08953E
:1001F000CF93C82FDCDFCA3041F4803410F080E0A8
:1002000001C080E48058DEDF03C061E08C2F91DF05
:10021000CF910895CF93DF93EC012196FC0180816B
:10022000882321F0E5DF89918111FCCFDF91CF9107
:100230000895CF93C82F91B19F6791B98FEF99EF30
:100240000197F1F700C00000119A109A6BDF8FE15F
:100250009EE40197F1F700C0000064DF8FEF90E0AB
:100260000197F1F700C000005DDF8FEF90E001978C
:10027000F1F700C00000109855DF8FEF90E0019774
:10028000F1F700C0000088E29DDF88E09BDFAADF75
:1002900086E098DF8C2F96DFCF910895CF93DF9380
:1002A000CDB7DEB72A970FB6F894DEBF0FBECDBF2D
:1002B0008EE0BFDF279A8DB180718DB985B18078CE
:1002C00085B90F2EF6E0FF2EF02D8E010B5F1F4F2C
:1002D00019821A821B821C82F8012F2D11922A95F5
:1002E000E9F764990BC08091080290910902019688
:1002F0009093090280930802279A03C084B1807802
:1003000084B94AE0BE016F5F7F4F809108029091EF
:10031000090216D067DF69DF80E092E07BDF61E0F1
:1003200080E058DFCE01019675DF8FEF99E6E8E1B6
:1003300081509040E040E1F700C0000053DFC8CF9B
:10034000BB274A3031F4992322F4BDE29095819580
:100350009F4F01C0BB27FB015527AA27880F991F74
:10036000AA1FA41710F0A41B83955051B9F7A05DE4
:10037000AA3308F0A95DA193009779F7B111B19361
:100380001192CB0100C0DC01FC01672F7191772332
:10039000E1F7329704C07C916D9370836291AE1740
:0A03A000BF07C8F30895F894FFCFDB
:0803AA005061736F733A2000EB
:00000001FF
