:100000000C945C000C9479000C9479000C947900A9
:100010000C9479000C9479000C9479000C9479007C
:100020000C9479000C9479000C9479000C9479006C
:100030000C9479000C9479000C9479000C9479005C
:100040000C94BB020C9479000C9479000C94790008
:100050000C9479000C9479000C9479000C9479003C
:100060000C9479000C947900000000080002010053
:100070000003040700000000000000000102040863
:100080001020408001020408102001020408102002
:10009000040404040404040402020202020203032E
:1000A0000303030300000000250028002B000000CC
:1000B0000000240027002A0011241FBECFEFD8E043
:1000C000DEBFCDBF17E0A0E0B1E0E4E8F6E002C09B
:1000D00005900D92A631B107D9F727E0A6E1B7E068
:1000E00001C01D92AF31B207E1F70E94AC020C943F
:1000F00040030C94000061E0809106010E943C02E4
:1001000061E0809104010E943C0261E08091020163
:100110000E943C0261E0809100010C943C02CF936C
:10012000DF93D82F61E0809100010E94750260E0AA
:10013000809106010E947502C9E0C150B1F0D7FF5D
:1001400002C061E001C060E0809104010E9475027C
:1001500061E0809106010E947502000060E08091DC
:1001600006010E947502DD0FE8CFDF91CF9108955F
:10017000CF93DF93D82F60E0809100010E94750239
:1001800060E0809106010E947502C9E0C150B1F0A3
:10019000D7FF02C061E001C060E0809104010E94CD
:1001A000750261E0809106010E947502000060E026
:1001B000809106010E947502DD0FE8CFDF91CF919B
:1001C0000895CF93C82F80EB860F0E94B8008C2F24
:1001D00082958F7080610E94B8008C2F8F70CF91B4
:1001E0000C94B8001F93CF93DF93182FC0EB8C2F84
:1001F0000E94B80080E00E94B80080E10E94B80030
:10020000D0E0812F0E948F00DF5FD038D1F7CF5F21
:10021000C83B69F7DF91CF911F910895CF93C82F05
:1002200080E20E94B8008C2FCF910C94B800CF933D
:10023000C82F81E80E94B8008C2FCF910C94B80091
:10024000CF93C82F8DE80E94B8008C2F8061CF918A
:100250000C94B800CF93C82F88EA0E94B8008C2F66
:10026000CF910C94B800CF93C82F83ED0E94B800B3
:100270008C2FCF910C94B800CF93C82F85ED0E949E
:10028000B8008C2FCF910C94B800CF93C82F89ED74
:100290000E94B8008C2FCF910C94B800CF93C82F38
:1002A0008AED0E94B8008C2F8260CF910C94B80028
:1002B000CF93C82F8BED0E94B8008C2FCF910C9458
:1002C000B800CF93DF930E947B0061E0809106012C
:1002D0000E947502C2E0D1E060E088810E94750250
:1002E00061E088810E9475028EEA0E94B80080E871
:1002F0000E943C018FE30E942A0180E00E943301AA
:1003000080E40E94B80084E00E94200182E00E9404
:100310000E0181EA0E94B80088EC0E94B80080E1DA
:100320000E944E018FEC0E94170181EF0E9445014F
:1003300080E40E94580184EA0E94B80086EA0E9484
:10034000B8008FEA0E94B80080E00E94F20060E0EE
:1003500080E0DF91CF910C94E100BF92CF92DF92C9
:10036000EF92FF920F931F93CF93DF93D82EC62E59
:100370007A01B12CF701EB0DF11DC081CC2399F16D
:10038000C05288E78D1510F4C394D12C6C2D8D2D9F
:100390000E94E10080E1C89FE001112400E010E02C
:1003A000CB5DDE4FFE01E00FF11F80810E948F00C8
:1003B0000F5F1F4F08301105A9F761E06C0D8D2DFF
:1003C0000E94E10000E010E0FE01E00FF11F8085D7
:1003D0000E948F000F5F1F4F08301105A9F788E0BA
:1003E000D80EB394C7CFDF91CF911F910F91FF909B
:1003F000EF90DF90CF90BF9008950E947B000C9407
:10040000610148E051E060E087E10E94AD0143E115
:1004100051E062E088E20E94AD0149E151E064E010
:1004200084E10C94AD01833081F028F4813099F09F
:100430008230A1F008958730A9F08830B9F0843077
:10044000D1F4809180008F7D03C0809180008F77F0
:1004500080938000089584B58F7702C084B58F7D26
:1004600084BD08958091B0008F7703C08091B00063
:100470008F7D8093B0000895CF93DF9390E0FC01CF
:10048000E458FF4F2491FC01E057FF4F84918823EB
:1004900049F190E0880F991FFC01E255FF4FA591AB
:1004A000B4918C559F4FFC01C591D4919FB76111B8
:1004B00008C0F8948C91209582238C9388818223A4
:1004C0000AC0623051F4F8948C91322F3095832316
:1004D0008C938881822B888304C0F8948C91822B22
:1004E0008C939FBFDF91CF9108950F931F93CF936C
:1004F000DF931F92CDB7DEB7282F30E0F901E8591E
:10050000FF4F8491F901E458FF4F1491F901E0572E
:10051000FF4F04910023C9F0882321F069830E94D2
:1005200013026981E02FF0E0EE0FFF1FEC55FF4F43
:10053000A591B4919FB7F8948C91611103C0109567
:10054000812301C0812B8C939FBF0F90DF91CF91AE
:100550001F910F91089508950E9405030E94AB0218
:100560000E94FD01C0E0D0E00E9401022097E1F36B
:100570000E940000F9CF1F920F920FB60F92112424
:100580002F933F938F939F93AF93BF9380911707C0
:1005900090911807A0911907B0911A07309116078A
:1005A00023E0230F2D3720F40196A11DB11D05C0B6
:1005B00026E8230F0296A11DB11D209316078093F4
:1005C000170790931807A0931907B0931A07809103
:1005D0001B0790911C07A0911D07B0911E07019663
:1005E000A11DB11D80931B0790931C07A0931D07AD
:1005F000B0931E07BF91AF919F918F913F912F9123
:100600000F900FBE0F901F901895789484B582605C
:1006100084BD84B5816084BD85B5826085BD85B5A6
:10062000816085BDEEE6F0E0808181608083E1E855
:10063000F0E010828081826080838081816080838D
:10064000E0E8F0E0808181608083E1EBF0E0808190
:1006500084608083E0EBF0E0808181608083EAE762
:10066000F0E08081846080838081826080838081EB
:10067000816080838081806880831092C1000895AA
:04068000F894FFCF1C
:100684000B000D0009000A0077656C636F6D65202F
:10069400746F00536D6172740050726F746F74796B
:1006A40070696E6700000000000000000000000098
:1006B4000000000000000000F8000000000000003E
:1006C400333000000000100C06100C06000000007F
:1006D400000000000040C07840C0784000043F049F
:1006E400043F040400007088FC0830000000182057
:1006F400FF211E0000F008F000E018000000211C9B
:10070400031E211E0000F00888700000001E212333
:10071400241927211010160E00000000000000000C
:100724000000000000000000E018040200000000C7
:10073400071820400000020418E0000000004020D8
:100744001807000000404080F08040400002020191
:100754000F01020200000000F0000000000101018E
:100764001F01010100000000000000000080B070C3
:100774000000000000000000000000000000010173
:100784000101010101000000000000000000303000
:1007940000000000000000000080601804006018E1
:1007A400060100000000E010080810E000000F102F
:1007B4002020100F00001010F8000000000020207E
:1007C4003F202000000070080808887000003028CE
:1007D4002422213000003008888848300000182086
:1007E4002020110E000000C02010F80000000704B3
:1007F40024243F240000F8088888080800001921F0
:100804002020110E0000E0108888180000000F114D
:100814002020110E0000380808C838080000000025
:100824003F000000000070880808887000001C2247
:100834002121221C0000E010080810E00000003113
:100844002222110F00000000C0C0000000000000C0
:100854003030000000000000800000000000008034
:100864006000000000000080402010080000010229
:10087400040810200040404040404040000404046C
:10088400040404040000081020408000000020102C
:100894000804020100007048080808F00000000085
:1008A4003036010000C030C828E810E000071827DF
:1008B4002423140B000000C038E0000000203C2377
:1008C400020227382008F8888888700000203F201A
:1008D4002020110E00C0300808080838000718202E
:1008E400202010080008F808080810E000203F2025
:1008F4002020100F0008F88888E8081000203F2006
:10090400202320180008F88888E8081000203F20D9
:100914000003000000C03008080838000007182051
:1009240020221E020008F808000008F808203F21D1
:100934000101213F20000808F808080000002020D9
:100944003F2020000000000808F8080800C080804C
:10095400807F00000008F888C028180800203F2085
:10096400012638200008F8080000000000203F207D
:10097400202020300008F8F800F8F80800203F0094
:100984003F003F200008F830C00008F808203F204E
:100994000007183F00E01008080810E0000F1020BE
:1009A4002020100F0008F808080808F000203F2154
:1009B4000101010000E01008080810E0000F1824ED
:1009C4002438504F0008F8888888887000203F2019
:1009D40000030C3020007088080808380000382014
:1009E4002121221C00180808F8080818000000201B
:1009F4003F2000000008F808000008F808001F2045
:100A04002020201F000878880000C838080000074C
:100A1400380E010000F80800F80008F800033C074D
:100A240000073C0300081868808068180820302CF0
:100A340003032C30200838C800C838080000002000
:100A44003F2000000010080808C838080020382695
:100A54002120201800000000FE0202020000000015
:100A64007F40404000000C30C00000000000000047
:100A7400010638C00000020202FE000000004040EF
:100A8400407F000000000004020202040000000095
:100A940000000000000000000000000000808080D2
:100AA40080808080800002020400000000000000BA
:100AB40000000000000000808080800000001924F5
:100AC4002222223F2008F8008080000000003F110D
:100AD4002020110E000000008080800000000E1114
:100AE4002020201100000000808088F800000E11F2
:100AF4002020103F200000808080800000001F2202
:100B04002222221300008080F08888881800202088
:100B14003F202000000000808080808000006B94D3
:100B2400949493600008F8008080800000203F21A6
:100B34000000203F20008098980000000000202042
:100B44003F20200000000000809898000000C08032
:100B540080807F000008F8000080808000203F240F
:100B6400022D302000000808F800000000002020BA
:100B74003F202000008080808080808000203F20F3
:100B8400003F20003F8080008080800000203F21C3
:100B94000000203F200000808080800000001F2093
:100BA4002020201F00808000808000000080FFA1A2
:100BB4002020110E000000008080808000000E11B3
:100BC4002020A0FF80808080008080800020203F43
:100BD40021200001000000808080808000003324F8
:100BE4002424241900008080E0808000000000009C
:100BF4001F202000008080000000808000001F2053
:100C04002020103F20808080000080808000010E22
:100C1400300806010080800080008080800F300C46
:100C2400030C300F000080800080808000002031A1
:100C34002E0E312000808080000080808080818E94
:100C440070180601000080808080808000002130C0
:100C54002C2221300000000000807C0202000000F1
:100C640000003F404000000000FF000000000000C2
:100C740000FF0000000002027C80000000004040F1
:100C84003F0000000000060101020204040000000D
:060C94000000000000005A
:00000001FF
