:100000000C9457000C9469000C9469000C946900DE
:100010000C9469000C9469000C9469000C944917C5
:100020000C9469000C9469000C9469000C946900AC
:100030000C9469000C9469000C9469000C9469009C
:100040000C9469000C9469000C9469000C9469008C
:100050000C9469000C9469000C9469000C9469007C
:100060000C9469000C946900E016FB16FB16FB1655
:10007000FB16FB16FB16FB16FB16F516F816FB1601
:10008000FB16FB16FB16FB16FB16FB16FB16E31600
:10009000E616E916EC16F216EF16C027C427C82795
:1000A000CB27CE27EC27EC27E627EC27E9271124DE
:1000B0001FBECFEFD8E0DEBFCDBF21E0A0E0B1E0B2
:1000C00001C01D92A03AB207E1F70E9484150C947A
:1000D00003290C94000003D002D001D000D000D03E
:1000E00003D002D001D000D0A89500D003D002D018
:1000F00001D000D000D003D002D001D000D000D079
:1001000003D002D001D000D000D003D002D001D063
:1001100000D008955F926F927F928F929F92AF92DC
:10012000BF92CF92DF92EF92FF920F931F93CF93E4
:10013000DF938064B82E0F2EFCE7CF2ED12CF02D4C
:100140000EE811E0CAE7D0E0612C712C812C912CD3
:10015000A12C0F2EF8E7EF2EF12CF02DD601BC923A
:10016000BB2DB0785B2EF80184818B1759F00E946B
:100170008400888180648883888186FDFDCFD801D2
:1001800014965C92D8011296EC91EE2351F1462D13
:10019000572D682D792D3A2D9881906498839881F8
:1001A00096FDFDCFF70180819181480F591F611D98
:1001B000711D343079F44115F4E05F0758F4BB2029
:1001C0004CF0D80113968C91813021F4BB2DB0688E
:1001D000BB2EC4CF3F5FD8011296EC913E17E0F2E0
:1001E00003C040E050E0BA01BB202CF4A091930181
:1001F000B091940104C0A0919501B09196019A012B
:10020000AB010E949D28052E5AE09695879577951B
:1002100067955A95D1F7502D2E2F30E040E050E0F1
:100220000E944028C901DF91CF911F910F91FF904B
:10023000EF90DF90CF90BF90AF909F908F907F9086
:100240006F905F900895CF93C82F0E947B008C2FF2
:100250000E948A00CF910895CF93C82F0E94790001
:100260008C2F0E948A00CF910895EEE8F1E09185ED
:100270008385890F9785890F9585890F9089890FC7
:100280009189890F0895CF93DF93CEE8D1E06985F6
:100290007A8580E992E00E94EE286B857C858EE865
:1002A00092E00E94EE286D857E858CE892E00E94A7
:1002B000EE286F858BE892E00E94E02868898AE842
:1002C00092E00E94E028698989E892E00E94E02893
:1002D0000E943501682F88E892E00E94E028DF91B3
:1002E000CF910895CF93DF9380E992E00E94DA28BE
:1002F000CEE8D1E09A8789878EE892E00E94DA28DA
:100300009C878B878CE892E00E94DA289E878D87F5
:100310008BE892E00E94D2288F878AE892E00E94C0
:10032000D228888B89E892E00E94D228898B88E8BD
:1003300092E00E94D228C82F0E9435018C1709F143
:100340000E944A0F85E291E00E94CF0F81E092E087
:100350000E94BF0F80ED97E00E945617EEE8F1E093
:1003600088EC90E0928781878CED90E0948783877A
:1003700084E190E0968785878BE28787108A8FE0FB
:10038000818BDF91CF910895CF93DF930E944A0F25
:1003900083E591E00E94CF0FCEE8D1E069857A85B0
:1003A00080E090E024EF4FEF0E9465250E94520FFD
:1003B0008FE491E00E94CF0F6B857C8580E090E018
:1003C00024EF4FEF0E9465250E94CB260E944A0F22
:1003D00089E391E00E94CF0F6F8570E080E090E0AC
:1003E00026E444EF0E9465250E94520F86E391E0C7
:1003F0000E94CF0F6D857E8580E090E024EF4EEF68
:100400000E9465250E94CB260E944A0F8FE591E04D
:100410000E94CF0F6D817E8180E090E026E54DEF58
:100420000E9465250E94520F82E391E00E94CF0F47
:100430006F81788580E090E026E54DEF0E9465258C
:100440000E94CB260E944A0F8CE291E00E94CF0FBF
:100450006989062E000C770B880B990B26E54DEF6A
:100460000E942E260E94CB26DF91CF9108952F92D5
:100470003F924F925F926F927F928F929F92AF9234
:10048000BF92CF92DF92EF92FF920F931F93CF9381
:10049000DF93CDB7DEB72C970FB6F894DEBF0FBE53
:1004A000CDBF81E00E94D126882309F4BDC1412C33
:1004B000512C1A821C821B821982212C312CB12CC6
:1004C0001A8619861886C12CD12CE12CF12C612CAE
:1004D000712CAA24A39401E06894882482F8102F38
:1004E0006894992491F824E62F835E824D824B2CE8
:1004F000592C7BC10E944A0F81E40E94460F892D2E
:100500000E94460F0E94BB0F3C85333009F44FC058
:1005100030F4313061F0323009F442C01BC18C85B7
:10052000843009F471C0853009F4AAC013C186E390
:1005300091E00E94CF0F8CE391E00E94BF0F40E05A
:1005400060E0812F0E94C51780E00E94551A3C018F
:1005500094E66916710418F4260C371C439440E0A5
:1005600060E0852D0E94C51780E00E94551A7C012D
:100570008436910518F4280E391E439440E0612F0B
:10058000852D0E94C51780E00E94551A6C018436A3
:10059000910508F0E1C0280E391E4394812FE1C077
:1005A00080E00E94D12680E02F812B87DAC083E58E
:1005B00091E00E94BF0F18B807B905B904B980E0EF
:1005C0000E9423013C0132E037B985B884B8812FFD
:1005D0000E9423017C015301A80EB91E8B819C81CE
:1005E000A80EB91E87B890E195B994B9852D0E94DF
:1005F00023016C01F501E80FF91FFC83EB83F981FE
:10060000FD5FF983812FADC08FE491E00E94BF0FA1
:1006100015B808B907B904B96090950170909601B2
:1006200080E00E942301681A790A22E028B927B9DC
:1006300084B8E0909501F0909601812F0E942301EB
:10064000E81AF90A5301AE0CBF1C8D819E81A80ED9
:10065000B91E88B887B890E194B9C0909501D09040
:100660009601852D0E942301C81AD90AF501EC0DC7
:10067000FD1DFE83ED83FA81FD5FFA83812F71C03A
:1006800089E391E00E94CF0F8CE391E00E94BF0FBD
:1006900040E060E0812F0E94BE098091300190917E
:1006A0003101A0913201B09133013C0120912B0125
:1006B000243F71F485369105A105B10548F42985DB
:1006C0003A85280F391F3A87298738853F5F388751
:1006D000412F60E0852D0E94BE0980913B019091E1
:1006E0003C01A0913D01B0913E017C012091360179
:1006F000243F71F485369105A105B10548F4E985DB
:10070000FA85E80FF91FFA87E987F885FF5FF88710
:10071000452D612F852D0E94BE0980914601909143
:100720004701A0914801B09149016C01209141011C
:10073000243FA1F485369105A105B10588F42985EA
:100740003A85280F391F3A87298738853F5F3887D0
:10075000812F07C0812F05C0812F03C0812F01C0C9
:10076000812F17B818B814B815B8882309F10E945A
:10077000520FC301A0E0B0E020E040E0BC01CD0199
:100780000E9465250E94BB0FC701A0E0B0E020E0F9
:1007900040E0BC01CD010E9465250E94BB0FC6014F
:1007A000A0E0B0E020E040E0BC01CD010E94652562
:1007B0008B85843678F460E088EE93E00E945226C0
:1007C000882341F0AC84823061F40F2EF4E6AF2E22
:1007D000F02D07C09B859F5F9B87963008F48ACEDB
:1007E000AC84A394E5E0EA1540F00F2EF0E39F2ED1
:1007F000F02D9A0CAC860B877DCEB42C4D805E809C
:10080000F885FF30E1F429853A85A9E8B8E80E9427
:100810008728969587959695879596958795809341
:100820009D01AA24A3940CC0412C512C1A821C8235
:100830001B821982212C312CB12CA12C01C0A12C9E
:100840002FE0B21210C09101A9E8B8E80E948728F1
:1008500096958795969587959695879590939C0103
:1008600080939B01A39439813F3009F069C08A814C
:100870008F3009F065C02B813C81ADECBCEC0E944F
:100880008728AC01569547955695479592010E9449
:1008900087288C0116950795169507952091950147
:1008A000309196016901CC0CDD1CC20ED31EC41A16
:1008B000D50AC01AD10AE12CF12CDA0120EA39E07C
:1008C00041E050E00E949D28A70196010E94402827
:1008D000CA01B9016B5F7F4F8F4F9F4F2AE030E015
:1008E00040E050E00E9440282A3F31054105510573
:1008F00028F43093980120939701A394D80120EA1B
:1009000039E041E050E00E949D28A70196010E9435
:100910004028CA01B9016B5F7F4F8F4F9F4F2AE07C
:1009200030E040E050E00E944028283191E0390753
:100930004105510528F430939A0120939901A3941D
:100940000E94C40181E0E4E0AE1280E02C960FB674
:10095000F894DEBF0FBECDBFDF91CF911F910F91F5
:10096000FF90EF90DF90CF90BF90AF909F908F90CF
:100970007F906F905F904F903F902F9008952F92AF
:100980003F924F925F926F927F928F929F92AF921F
:10099000BF92CF92DF92EF92FF920F931F93CF936C
:1009A000DF9300D01F92CDB7DEB781E00E94D12641
:1009B000882309F451C100E010E0212C312C812C56
:1009C000912CFF24F3946894772471F80F2EFEE89D
:1009D0004F2EF1E05F2EF02D6894662463F8B72C5B
:1009E00084E6898322C10E944A0F84E50E94460F53
:1009F0008D2D0E94460F0E94BB0FEA81E33009F45F
:100A000071C028F4E13069F0E23001F1CEC0FA8122
:100A1000F53009F49EC008F496C0F63009F4AEC073
:100A2000C4C08EE00E948A008EE00E948A007C0191
:100A30008FE591E00E94BF0F0E94520FB70180E046
:100A400090E026E54DEF0E94652500C18AE491E023
:100A50000E94CF0F8CE391E00E94BF0F81E085B927
:100A600085E084B98B2D0E942C014C01F201278175
:100A70003085A0E7B3E00E94872824EF36E040E00D
:100A800050E00E946228821A930AF1E1F4B981E0F1
:100A90000E942C011C01F20127813085A0E7B3E000
:100AA0000E94872824EF36E040E050E00E94622850
:100AB000221A330AF4E0F5B984E184B981E00E9496
:100AC0002C018C01F20127813085A0E7B3E00E9460
:100AD000872824EF36E040E050E00E946228021BA5
:100AE000130BB7C085E491E00E94CF0F8CE391E037
:100AF0000E94BF0F75B8FAE0F4B98B2D0E942C014B
:100B0000F20127813085369527954C01821A930A88
:100B1000F2E2F4B981E00E942C01F20127813085D4
:100B2000369527951C01221A330A65B8A4B880E0CF
:100B30000E942C01F20127813085369527958C0182
:100B4000021B130B86C080E00E94D126F981FB8333
:100B50007DC08BE591E00E94BF0F15B874B880E0AE
:100B60000E942C014C0164B881E00E942C011C0100
:100B7000C4B88B2D0E942C018C016BC087E591E0DD
:100B80000E94BF0F74B875B880E00E942C014C0120
:100B900064B865B881E00E942C011C01C4B8C5B8D6
:100BA0008B2D0E942C018C0154C014B815B80E94E2
:100BB000520F20E040E0B401092C000C880B990B87
:100BC0000E942E260E94BB0F20E040E0B101032CC2
:100BD000000C880B990B0E942E260E94BB0F20E070
:100BE00040E0B801012E000C880B990B0E942E26C4
:100BF0008B81843678F460E088EE93E00E94522680
:100C0000882341F0FA80823061F40F2EF4E6FF2E43
:100C1000F02D07C0EB81EF5FEB83E63008F4E3CE05
:100C2000FA80F394F6E0FF15B8F0EE24E3940F2E6B
:100C3000F0E3DF2EF02DDF0C0F2EF8E2AF2EF02DBB
:100C40006894CC24C5F8FA82EB82CDCE14B815B8DE
:100C5000CFCF14B815B8ABCF81E00F900F900F90A5
:100C6000DF91CF911F910F91FF90EF90DF90CF9088
:100C7000BF90AF909F908F907F906F905F904F90BC
:100C80003F902F900895EF920F931F93CF93DF9390
:100C90000097E9F0EC016B817C818D819E810F2EA4
:100CA000F7EFEF2EF02D04EB10E020E030E04A816A
:100CB0000E94A62488235CF00E94641880910101A0
:100CC000813029F040E0698188810E94C51780E069
:100CD00090E0DF91CF911F910F91EF9008952F92A7
:100CE0003F924F925F926F927F928F929F92AF92BC
:100CF000BF92CF92DF92EF92FF920F931F93CF9309
:100D0000DF9300D000D01F92CDB7DEB79B838A83DC
:100D10000F2EF1E1CF2EF02D23E029830F2EF0E0EE
:100D20008F2EF1E09F2EF02D0F2EFDE7EF2EF1E03C
:100D3000FF2EF02D212C312C44244394712C522C65
:100D4000632C0E946418D40111968C91813009F4AF
:100D5000E8C018B8F701828587B915B814B8808142
:100D60000E948A005C01022D132DD42C0F5F1F4FAF
:100D70006C2DD70113968C910E942C19F70180815C
:100D80000E948A00A816B90608F0CFC09C012A1953
:100D90003B093D832C830E37110531F42B3431058B
:100DA00008F0CAC0D72CC8C04C815D814C3251407C
:100DB00020F0D72C02C05C826D82043F81E01807CE
:100DC00019F4D72C01C0D72CA895D110CFCF2C81E6
:100DD0003D81C8012C32A1E03A0708F449828130F4
:100DE000910571F42531354008F4ADC08C2D80712A
:100DF0000F2EF9E0CF2EF02D8111A3CF82E0E6C0B7
:100E0000C801E981E33009F0A4C0892B11F418C0AE
:100E10008C0178010F2EFDE78F2EF1E09F2EF02D33
:100E2000F1E0EF1AF108D4018C910E948A00A89594
:100E3000E114F104A9F78A199B092C813D8104C0B2
:100E40002C813D8180E090E08217930788F4F901BE
:100E5000E81BF90BCF01E536F10508F079C00AC0AF
:100E6000F981F33009F05FC08C0180E090E002C0AE
:100E700080E090E062E02C813D81820F931F0E9410
:100E80004C199801DC010E9487284B015C018C2DD4
:100E9000807109F46EC0880C991CAA1CBB1CD5017A
:100EA000C401880F991FAA1FBB1F880F991FAA1F73
:100EB000BB1FA5019401280F391F4A1F5B1F490161
:100EC0005A01283369E8360761E44607510508F0FE
:100ED00059C041C02DE630E040E050E00E9440287B
:100EE00006C028E630E040E050E00E944028EDE7F0
:100EF000F1E08181AA81BB818C93808111968C93D2
:100F0000119712961C931297FD0187829086A186F5
:100F1000B28613962D933D934D935C93169783E081
:100F200055C080E053C0898151C00E37110509F0CA
:100F300042CF5C826D82D72CEC81FD81EC32F14096
:100F400008F041CF3ACF3981333009F461CF88CFEF
:100F5000198289813BC0A4E6B0E00E949D2817EF6A
:100F6000B9CFA4E6B0E0A50194010E949D2817EF37
:100F7000B8CF48E3841649E8940641E4A406B104D6
:100F800098F4EFCFCA01B90128EE33E040E050E019
:100F90000E944028822E932EA42EB52EA4E6B0E007
:100FA0000E949D281AEF96CFC501B40128EE33E0C8
:100FB00040E050E00E944028822E932EA42EB52EB1
:100FC000A4E6B0E00E949D281AEF8BCF0F900F90FF
:100FD0000F900F900F90DF91CF911F910F91FF9085
:100FE000EF90DF90CF90BF90AF909F908F907F90C9
:100FF0006F905F904F903F902F9008958F929F92A7
:10100000AF92BF92CF92DF92EF92FF920F931F9316
:10101000CF93DF934C010E946418809101018130CD
:1010200009F420C115B887E087B918B8CDE7D1E039
:101030008C8184B980E480937B0084E480BF8881C4
:10104000806480937C0083E080937A000E94830018
:1010500010928000109281001092850010928400FE
:1010600087E286BB8C8185B980910101863161F46C
:1010700081E090E000907D0102C0880F991F0A94E2
:10108000E2F78095877002C08091870191E090938C
:10109000810087B9E12CF12C81E096B395FD0CC05D
:1010A00090FFFBCF86BBA8952FEFE21AF20A98ECCF
:1010B000E916F10491F7DEC01092810080E286BB50
:1010C000C0908600D090870014B8209184003091A1
:1010D0008500C216D30638F490FF05C081E086BBB8
:1010E000AFEFEA1AFA0A83E980937A00CDE7D1E0FC
:1010F00088810E948A008C0115B88C8184B9B8EC73
:10110000EB16F10408F4C8C0AFC0C2E0CC1AD10895
:10111000E108F108D8E3CD16D9E8DD06D1E4ED0603
:10112000F10408F4D0C0C701B60128EE33E040E076
:1011300050E00E94402869017A01EEE8F1E021893F
:101140008581968161E0820F911D27FD9A950E940D
:101150004C19DC01A70196010E949D2824E630E08D
:1011600040E050E00E944028EDE7F1E08181D401A9
:101170008C93808111968C93119787EF12968C93A4
:10118000E4012F83388749875A872B833C834D831B
:101190005E8321323E444105510510F183E0E1C0F8
:1011A00069017A01C81AD90AEA0AFB0AEDE7F1E0F7
:1011B0006181E40168836081698364EF6A832F83BE
:1011C000388749875A87CB82DC82ED82FE82D0EA5B
:1011D000CD16D6E8DD06D1E0ED06F10408F446C0F0
:1011E000CDE7D1E088810E948A00853D9340D0F709
:1011F00014B80F2EFEE8CF2EF1E0DF2EF02DD60131
:1012000013961C92CDE7D1E088810E948A007C0170
:1012100081E0F601838388810E948A00AC018C8181
:1012200084B9D701A41BB50BCD010496099758F0DA
:10123000E6012D813E810E9496289A0140E050E00F
:101240000E946228288B8091930190919401081B41
:10125000190BC801C1968336910550F400939F0184
:1012600083E07FC080E07DC081E07BC083E079C007
:1012700083E077C01092810080E286BBC090860038
:10128000D090870014B88091840090918500C81692
:10129000D90608F423CF59C0C601A0E0B0E0A701E9
:1012A00060E070E0BA01552744276A017B01C82A33
:1012B000D92AEA2AFB2AF3E0CF16D104E104F1048B
:1012C00008F023CF27CF0F2EFEE8AF2EF1E0BF2E80
:1012D000F02DD50151962C91519715968D919C9199
:1012E000169761E0820F911D27FD9A950E944C1977
:1012F000DC01A70196010E949D2824E630E040E031
:1013000050E00E944028E5018F8590E0A0E0B0E029
:10131000281739074A075B0708F042CFEDE7F1E0ED
:101320008181D4018C93808111968C93119784EFE5
:1013300012968C93E4012F83388749875A871B8242
:101340001C821D821E8283E00CC083E980937A0098
:10135000CDE7D1E088810E948A0015B88C8184B9DC
:1013600081E0DF91CF911F910F91FF90EF90DF907F
:10137000CF90BF90AF909F908F9008955F926F92A3
:101380007F928F929F92AF92BF92CF92DF92EF9215
:10139000FF920F931F93CF93DF93C42ED12C9BE02A
:1013A000499FF0011124E75DFE4F1082118294EFF6
:1013B00092831782108611861286138214821582F8
:1013C000168290910101913009F4BCC0C62FD82F2C
:1013D0009A3009F04CC080910301882309F4B2C00F
:1013E0000F2EF9E0AF2EF1E0BF2EF02D0F2EFAE018
:1013F0008F2EF1E09F2EF02DF12C0F2EF3E65F2EB5
:10140000F02D0F2EF0E06F2EF1E07F2EF02DD501A4
:10141000F501319780818D1304C0F50190819C17EF
:1014200029F08C1315C08C918D1312C012966D91FA
:101430007D918D919C911597E12C0AE010E020E0C0
:1014400030E0D4014C910E94A6248F3F09F4F52C82
:10145000F394B7E0AB0EB11CE7E08E0E911CD30104
:1014600013968C91F81698F2B4E6FB126BC030918B
:1014700004013323B9F0EBE4F1E090E020812C1378
:101480000DC0AF0141505109DA018C918D1306C096
:10149000418152814C3D554008F454C09F5F3696BF
:1014A0009313ECCF8BE08C9D80018D9D100D11244A
:1014B000075D1E4F40E06C2F8D2F0E94C517C8019D
:1014C0000E946F06823019F4C8010E94FE078091C5
:1014D0000401811131C0809101018A3079F48BE0DF
:1014E0008C9DF0018D9DF00D1124E75DFE4F8281F2
:1014F0008A3F14F18BE0809301011EC08BE08C9D2C
:10150000F0018D9DF00D1124E75DFE4F8281853F36
:1015100084F48BE08C9DF0018D9DF00D1124E75D2E
:10152000FE4F83819481A581B6810597A105B10500
:1015300018F08BE0809301010E94641817B818B866
:1015400014B815B8DF91CF911F910F91FF90EF90D4
:10155000DF90CF90BF90AF909F908F907F906F90D3
:101560005F9008950F931F93CF93DF938C010E9498
:10157000AA0FD0E080E291E00E94CF0FC8010E9444
:10158000BF0F60E08CEB92E00E945226C82F0E94B1
:10159000AA0FC1110AC060E08CE291E00E945226BD
:1015A000811103C0DF5FD33028F38AEF90E00E94FF
:1015B0005617DF91CF911F910F9108954F925F922F
:1015C0006F927F928F929F92AF92BF92CF92DF9253
:1015D000EF92FF920F931F93CF93DF936C0180E004
:1015E0000E94D1260E944A0F84E191E00E94CF0F11
:1015F000E12CF12C28E440E0C701B6010E946525EA
:101600008AE70E94460F8FE091E00E94B20A18B864
:1016100085E087B984E084B915B860E271EA87E0B3
:1016200090E0A70196010E94402829013A01213843
:101630003E434105510550F0689415F8769467943F
:10164000579447941694D1F723E001C021E0C201DA
:1016500096958795019710928F01E1E8F0E010824E
:1016600033E23093800030E1308310928500109295
:101670008400A20141505109509389004093880091
:1016800090938B0080938A00822F80618083C2E3D5
:1016900053014201AA24BB240F2EF4E6CF2ED12CF5
:1016A000E12CF12CF02D0AE810E00E94AA0F8C2FFB
:1016B00090E0A0E0B0E025E240E0BC01CD010E9456
:1016C000652584EF91E00E94561760E080E090E08D
:1016D0000E945226D82F813079F482E390E00E9454
:1016E000561760E088EC90E00E945226811131C0CC
:1016F000C036F8F4CB5F1DC0C53008F0C550AC2F24
:10170000B0E0A50194010E949D28A70196010E94C6
:10171000402821503109F80131832083D111C5CFF0
:10172000109281001092800014B886E080938F019F
:1017300025C0AC2FB0E0A50194010E949D28A7010F
:1017400096010E94402821503109F80131832083FD
:10175000ACCFA301920144275527AC2FB0E00E94E3
:101760009D2824E630E040E050E00E9440282150CF
:10177000310930938B0020938A00D2CFDF91CF9133
:101780001F910F91FF90EF90DF90CF90BF90AF909F
:101790009F908F907F906F905F904F9008950F93E0
:1017A0001F93CF93DF93109204010E944A0F8CE1A4
:1017B00091E00E94BF0F88E191E00E94B20A8DE2A1
:1017C0000E94460FC0E0D1E009E211E060E080E055
:1017D00090E00E945226813059F482E390E00E940A
:1017E000561760E088EC90E00E945226811130C0CC
:1017F0000E94AA0F8DE792E00E94BF0F40E060E0D8
:1018000081E00E94BE090E94AA0F99819B30E1F4F9
:10181000F801638174818581968126E442810E946A
:1018200065250E94BB0FC8010E944306009741F046
:10183000BC0180E090E024EF4EEF0E946525C6CF0A
:101840008DE20E94460FC2CF8DE20E94460FBECFAE
:10185000DF91CF911F910F9108950F931F93CF9315
:10186000DF938C01CDE7D1E09D818B81892B85B9F8
:1018700084B918B88B8587B90E94800026B19985F4
:10188000922311F0C2E001C0C0E080918701822361
:1018900009F0C16014B817B8F8012081922F96950D
:1018A0009695392F337096959695333009F441C04B
:1018B0002370C21709F440C08C2F822780FF8695C1
:1018C0008130E9F5220F4DE850E002C0559547956B
:1018D0002A95E2F743704C1711F0D2E001C0D1E035
:1018E000D31330C09F5F943081F50E94AA0FD1308E
:1018F00051F4EFE6F1E0ADE7B1E08C918083119611
:101900008C9181830AC0EFE6F1E0ADE7B1E011967A
:101910008C91119780838C91818380917F0180933A
:10192000710143E462E481E40E94D90F8D2F90E0BD
:101930000DC0D0E080E00AC0D32F80E007C0D3E024
:1019400080E004C091E080E001C080E0DD0FDD0FA9
:101950009295907F9D2B9C2BF8019083DF91CF91E6
:101960001F910F9108951F93CF93DF9300D01F9283
:10197000CDB7DEB70E944A0F8AED91E00E94BF0FFB
:101980008CE089838A838B8385E015E0A895853078
:1019900031F40E94AA0F8EEC91E00E94BF0F42E04A
:1019A00061E080E00E94C517CE0101960E942D0CD7
:1019B000811115C041E062E00E94C517CE01029678
:1019C0000E942D0C81110BC040E062E081E00E947A
:1019D000C517CE0103960E942D0C882339F06BE0C9
:1019E00088EB9BE00E945226812FD0CF4F99CECF1B
:1019F00084E690E00E9456170F900F900F90DF91B1
:101A0000CF911F9108950F931F93CF93DF9300976A
:101A100009F4B3C0162FEC010E94641880910101F3
:101A2000813009F4ACC015B818B810FF07C0EDE755
:101A3000F1E0858184B9818587B907C014B8EDE7E5
:101A4000F1E092858185892B87B980E480937B00C2
:101A500084E480BF80917E01806480937C0083E079
:101A600080937A000E94830010928000109281007F
:101A7000109285001092840087E286BBA12FA4708B
:101A800012FF0AC08091860188B90000E1E8F0E009
:101A900080818160808308C0E1E8F0E0808181601E
:101AA00080838091860188B900E010E081E096B3E0
:101AB00095FD0AC090FFFBCF86BBA8950F5F1F4F17
:101AC00004301105A1F75DC01092810080E286BB51
:101AD0006091860070918700EDE7F1E023818581B8
:101AE000822B84B917B82091840030918500621749
:101AF000730750F490FF0AC0E3E001C0E0E081E02A
:101B000086BB0F5F1F4F03C0E3E001C0E3E083E942
:101B100080937A00AB0160E070E020E030E0980153
:101B200011270027CB01BA01602B712B822B932B3D
:101B3000A11105C03FC06450710981099109611567
:101B400071058105910569F0A8EEB3E09B01AC0138
:101B50000E949D28653671058105910540F4E2E0FB
:101B600006C0E2E004C060E070E0CB01E2E0688320
:101B700079838A839B838E2F23C080E021C080E0FD
:101B80001FC01092810080E286BB60918600709138
:101B90008700EDE7F1E093818581892B84B917B83F
:101BA00080918400909185006817790708F4A6CF8A
:101BB000E0E0ADCF6430710581059105A0F2BBCFA7
:101BC000DF91CF911F910F9108954F925F926F9285
:101BD0007F928F929F92AF92BF92CF92DF92EF92BD
:101BE000FF920F931F93CF93DF93CDB7DEB7289764
:101BF0000FB6F894DEBF0FBECDBFE9E8F1E010826A
:101C00001182128213821482009709F4F9C06C01C8
:101C1000FC016381748185819681E12C00ED17E0E0
:101C200020E030E042810E94A62488230CF0EAC024
:101C300040E0F601618180810E94C51761E0CE011C
:101C400001960E94030D8230B1F4F6016381748124
:101C50008581968108E210E020E030E042810E9418
:101C6000A62488230CF0D2C062E0CE0101960E9427
:101C7000030D12E01CC0833009F0C8C065E0CE013E
:101C800005960E94030D4D815E816F817885898064
:101C90009A80AB80BC80481559056A057B0530F4F5
:101CA00049835A836B837C8315E001C015E0833040
:101CB00009F0AAC0F60163817481858196812FEFB6
:101CC00042810E942625AEE8B1E01996ED91FC9183
:101CD0001A971B968D909C901C978E0E9F1E680DD8
:101CE000791D10FF04C06057754EE057F54EAEE801
:101CF000B1E051968C91519715960D90BC91A02D05
:101D0000A80FB11D87FDBA954B01A12CB12CA501DF
:101D100094010E949D289F0140E050E00E944028CD
:101D2000CA01B90125E030E040E050E00E944028BF
:101D300063E0C9010E944C197C0129813A814B81E1
:101D40005C81213AF6E83F07F1E04F075105D8F0F2
:101D500017EF0F2EFAE04F2E512C612C712CF02D25
:101D6000CA01B9016B5F7F4F8F4F9F4FA301920153
:101D70000E9440281F5F213A86E8380781E0480723
:101D8000510570F701C017EFD7010E949D289B01F4
:101D9000AC01613A764881409105C8F00F2EFAE017
:101DA000CF2ED12CE12CF12CF02DCA01B9016B5FA3
:101DB0007F4F8F4F9F4FA70196010E9440281F5FC2
:101DC000213AF6E83F07F1E04F07510570F7C501EA
:101DD000B4010E9408280F2EF9E8EF2EF1E0FF2E43
:101DE000F02DF701108320E137E240E050E00E943F
:101DF0004028F701218332834383548381E007C065
:101E000080E005C080E003C080E001C080E028964B
:101E10000FB6F894DEBF0FBECDBFDF91CF911F91FB
:101E20000F91FF90EF90DF90CF90BF90AF909F9079
:101E30008F907F906F905F904F9008955D9A0E9471
:101E400089005D980895CF93C82F9BB182958F70BC
:101E5000907F982B9BB900C000C000000E941E0F0D
:101E60009BB18C2F8F70907F892B8BB900C000C0E5
:101E700000000E941E0F0E9485008BB1807F8BB9ED
:101E8000CF9108955C980E94230F08955C9A0E9458
:101E9000230F089581E00E94420F82E090E00E94AB
:101EA0005617089580EC0E94420F08958AB18F63FF
:101EB0008AB98EE190E00E9456178BB1807E8360D4
:101EC0008BB90E941E0F85E090E00E9456170E9479
:101ED0001E0F81E090E00E9456170E941E0F81E0C5
:101EE00090E00E9456178BB1807E82608BB981E0B2
:101EF00090E00E9456170E941E0F81E090E00E9421
:101F0000561788E20E94420F8CE00E94420F86E042
:101F10000E94420F0E944A0F08950F931F93CF9380
:101F2000DF93EC01862F880F880F880F80640E9452
:101F3000420F8E01085F1F4FCE010E94D2280E94DF
:101F4000460F2196C017D107B9F7DF91CF911F91A6
:101F50000F910895CF930E94520FC4E180E20E9436
:101F6000460FC150D9F70E94520FCF9108958F5C50
:101F70000E94460F089580E20E94460F0895CF9375
:101F8000DF93EC01CE010E94D228982F9F7721F099
:101F90000E94460F2196F6CFDF91CF9108950E94BF
:101FA000BF0F0E94BB0F08950E94CB260E94AA0F6C
:101FB00008958F929F92AF92BF92DF92EF92FF921D
:101FC0000F931F93CF93DF9300D000D000D0CDB7F5
:101FD000DEB7EFE6F1E09081998391819A83928157
:101FE0009B838C836D834E8380E00E94B70F81E0DA
:101FF0000E94B70F82E00E94B70F8DE30E94460F48
:10200000D12C4E0184E0880E911C540113C0F801BC
:1020100081918F018D1104C0F70180810E94460FCC
:10202000FFEFEF1AFF0A0A151B0589F7D39483E027
:10203000D81629F08E010F5F1F4F7401E8CF269646
:102040000FB6F894DEBF0FBECDBFDF91CF911F91C9
:102050000F91FF90EF90DF90BF90AF909F908F9087
:10206000089587E692E00E94BF0F0E94520F80E61B
:1020700092E00E94BF0F80910401882369F00E94C2
:10208000BB0F80910401805D0E94460F0E94BB0F30
:1020900084E091E00E94BF0F80917C018F5F80936C
:1020A0007C0110926E010895CF93DF93809102011D
:1020B0008130C1F488E092E00E94BF0F0E94520F6D
:1020C000C0E0D1E08D810E94B70F8AE30E94460FE5
:1020D0000E94BB0F6E817F8180E090E026E54DEF8E
:1020E0000E946525DF91CF910895CF93C62F0E945E
:1020F000460F8BEF90E00E94BF0F8C2F0E94460F7F
:102100000E94BB0FE8E0F1E06381748185819681D4
:1021100024EF42810E946525CF910895CF92DF92EE
:10212000EF92FF920F931F93CF93DF938091030160
:10213000813039F4F0900801C0E0D0E008E011E00F
:1021400057C0833009F047C0E8E0F1E00381148113
:10215000258136816285738584859585E2804185F8
:102160000E94A624813039F40F2EFFE0CF2EF1E03B
:10217000DF2EF02D06C00F2EF8E0CF2EF1E0DF2E7F
:10218000F02DD60113960D911D912D913C9116972E
:10219000E8E0F1E061897289838994891296EC9074
:1021A00040890E94A624813009F47BC0B8E0CB1698
:1021B000B1E0DB0619F008E011E002C00FE011E029
:1021C000E8012796CC16DD0651F402C00FE011E0BD
:1021D000E8012E9604C0CFE0D1E008E011E0F8015C
:1021E0008081F8808F1559F0F9808F1541F0F180CA
:1021F000D8018C918F1519F00E94B70F04C0F80117
:1022000081810E94B70F8BEF90E00E94BF0F8F2D4E
:102210000E94B70F2097A1F18BEF90E00E94BF0FB3
:1022200088818F1519F00E94B70F11C089810E9413
:10223000B70F0DC00E94BB0FE9E8F1E06181728128
:102240008381948128E440810E94652533C00E94E7
:10225000520FD80113966D917D918D919C91169797
:1022600024EF12964C910E9465250E94BB0F6B8152
:102270007C818D819E8124EF4A810E9465251AC050
:102280000E94520FF801638174818581968124EF49
:1022900042810E946525C8010E94E50D813051F4FC
:1022A000C9CF86E191E0F1E088309F0709F48ECF35
:1022B0006C0181CFDF91CF911F910F91FF90EF9033
:1022C000DF90CF900895EF920F931F93CF93DF93FA
:1022D000E9E2F1E003811481258136816685778505
:1022E00080899189E28045850E94A624813019F475
:1022F000C4E3D1E002C0C9E2D1E00B811C812D8191
:102300003E81E9E2F1E0618D728D838D948DEA80EA
:10231000408D0E94A624813011F4CFE3D1E0888162
:102320000E94B70F88E091E00E94BF0F89810E9450
:10233000B70F0E94520F6B817C818D819E8126E4B4
:102340004A810E946525CE010E944306EC01892B3B
:1023500049F00E94BB0FBE0180E090E024EF4EEFF9
:102360000E946525DF91CF911F910F91EF90089505
:10237000009781F0FC0140E0608181810E94BE09EC
:10238000E9E2F1E0638174818581968126E44281EE
:102390000E9465250895BF92CF92DF92EF92FF923F
:1023A0000F931F93CF93DF93809104018130A1F4A9
:1023B00000914B010F2EF5E0BF2EF02D0F2EF5E012
:1023C000DF2EF02D15E0C0E0D0E00F2EFAE4EF2E66
:1023D000F1E0FF2EF02D66C1823031F5EAE4F1E044
:1023E0001081B6801B1106C0D180B78005E0CC24D7
:1023F000C3947DC0EAE4F1E081810781801709F48C
:1024000034C110133DC1B81609F467C00F2EF5E0B2
:10241000BF2EF02D0F2EF5E0DF2EF02D05E015E09C
:10242000C0E5D1E07F013EC1833009F053C020E018
:10243000CAE4D1E0F12C50E0622F70E0FE018F2D54
:10244000952FDB01AA0FBB1FA60FB71FAA0FBB1F3B
:10245000A55BBE4F8C01281729F04C9130814313A6
:1024600002C00AC0282F019636968330910591F755
:102470002F5F233008F301C026E07B01EE0CFF1C28
:10248000E60EF71EC701880F991FAC01465B5E4F31
:102490007A01E801CC0FDD1FC00FD11FCC0FDD1F6B
:1024A000C65BDE4F253010F4C0E0D0E0FB01EE0F3C
:1024B000FF1FE60FF71FEE0FFF1FE65BFE4F0181C8
:1024C0000F2EF5E0BF2EF02D0F2EF5E0DF2EF02DB4
:1024D00013E0E8C00E94311046C1012F0F2EF5E035
:1024E000BF2EF02D0F2EF5E0DF2EF02DC12C133076
:1024F000A0F480914B010E94B70F80E091E00E9410
:10250000BF0F812F0E94B70FC0E5D1E00F2EFAE474
:10251000EF2EF1E0FF2EF02D13C0C0E5D1E00F2E1D
:10252000FAE4EF2EF1E0FF2EF02DF70180810E94FA
:10253000B70F84E091E00E94BF0F802F0E94B70F79
:10254000209709F4DAC0143038F484E091E00E9456
:10255000BF0F10130BC006C080E091E00E94BF0FB8
:10256000101308C088810E94B70FB1C089810E94F2
:10257000B70FADC088810E94B70FA9C00E94BB0FE2
:10258000133028F48EE891E00E94BF0F04C082E966
:1025900091E00E94BF0F8FE30E94460F0E94520FEE
:1025A00061E36B0D81E38D0D0E9475100E94CB26B7
:1025B0000E94AA0F86E791E00E94CF0FF701628187
:1025C000738180E090E026E54DEF0E9465250E9432
:1025D000BB0F209779F5C12CF701848195818A3F43
:1025E000910578F488E20E94460FF70164817581B5
:1025F00080E090E020E040E00E94652589E20E94B2
:10260000460F40E0F701608181810E94C5170E945A
:10261000E91F8C01892BB9F00E94D40F8CE691E060
:102620000E94CF0FB80180E090E021E44AEF0E94C1
:10263000652509C0C12C6A817B8180E090E026E598
:102640004DEF0E946525F1E0CF128DC00E94D40F9E
:1026500084E791E00E94CF0FC7010E94B8110E9449
:10266000BB0FCE010E94B8117EC0D12E15E0C0E58F
:10267000D1E00F2EFAE4EF2EF1E0FF2EF02D12C084
:102680000F2EF5E0BF2EF02D0F2EF5E0DF2EF02DF2
:1026900005E015E0C0E5D1E00F2EFAE4EF2EF1E001
:1026A000FF2EF02DCC24C39440CF0E94AA0F86E7C2
:1026B00091E00E94CF0FF7016281738180E090E08A
:1026C00026E54DEF0E9465250E94BB0FB4CFF4E0D4
:1026D000FD1558F328C00E94AA0F86E791E00E94DA
:1026E000CF0FF7016281738180E090E026E54DEF26
:1026F0000E9465250E94BB0F6FCFF4E0FD1558F3D3
:102700002BC00E94AA0F86E791E00E94CF0FF7012D
:102710006281738180E090E026E54DEF0E9465259F
:102720000E94BB0F88CF6B2D8D2D0E946A1E8130B9
:1027300041F724CF0E94AA0F86E791E00E94CF0FB5
:10274000F7016281738180E090E026E54DEF0E9401
:1027500065250E94BB0F40CF6B2D8D2D0E946A1EF8
:10276000813041F70BCFDF91CF911F910F91FF90F7
:10277000EF90DF90CF90BF9008950E94BB0F8091A3
:102780000101863121F484E40E94460F03C083E4F2
:102790000E94460F8091020180FF04C082E00E94E7
:1027A000460F03C081E00E94460F809101018631EF
:1027B00021F483E50E94460F089585E40E94460FA8
:1027C00008954F925F926F927F929F92AF92BF92C5
:1027D000CF92DF92EF92FF920F931F93CF93DF93ED
:1027E0008091020180FF07C0EFE6F1E010810281D5
:1027F000C2E9D1E006C0EFE6F1E012810081CEE847
:10280000D1E088EF91E00E94CF0FCE010E94BF0F70
:102810008091020182FF03C08BE20E94460F0E945A
:10282000520F45E463E482E40E94D90F80910401D1
:10283000833010F00E94BD130E94D40F612F802FAF
:102840000E946A1E813029F465E482E40E947510BA
:1028500068C089E891E00E94CF0F60917801709183
:10286000790180917A0190917B0120E040E00E9403
:10287000652580E0CAE4D1E00F2EF0E0EF2EF1E014
:10288000FF2EF02D0F2EFFE6CF2EF1E0DF2EF02DE4
:102890000F2EFAE09F2EF02D0F2EF3E0AF2EB12C6D
:1028A000F02D3AC09881911335C09981901332C0B0
:1028B0000E94D40F84E891E00E94CF0F2A813B81CF
:1028C000EC81FD81D60119964D905D906D907C90C4
:1028D0001C97B4E64B1651046104710490F0C901D1
:1028E0008E1B9F0BB5010E942C288AEF48165104BD
:1028F0006104710418F4261B370B03C09B012E0FD3
:102900003F1FB90180E090E026E54DEF0E9465256C
:10291000892D02C08F5F2696D70114969C91891746
:1029200008F28091760190917701892B81F00E94C5
:10293000D40F89E791E00E94CF0F609176017091EA
:10294000770180E090E021E44AEF0E946525DF9165
:10295000CF911F910F91FF90EF90DF90CF90BF909C
:10296000AF909F907F906F905F904F90089580916F
:10297000040181110E94BD138091020183FD2FC0CB
:102980008091740190917501892B91F00E94D40F70
:1029900080E791E00E94CF0F609174017091750102
:1029A000072E000C880B990B26E54DEF0E942E2672
:1029B0000E94D40F86E991E00E94CF0FEFE6F1E08C
:1029C00040E0628180810E94BE09E9E2F1E063811A
:1029D00074818581968126E442810E94652508954F
:1029E0000E94BB0F8091020180FF04C08EE40E9410
:1029F000460F03C080E50E94460F89EA91E00E94DD
:102A0000BF0F08950E94BB0F8091020182FF05C095
:102A100084EA91E00E94BF0F08958FE991E00E943F
:102A2000BF0F08958091020184FF05C081EB91E002
:102A30000E94BF0F03C08AE40E94460F8DEA91E016
:102A40000E94BF0F0E94F0148091020184FD0E9439
:102A500002150E94520F8091020186FF06C048E7CE
:102A600068E787E40E94D90F05C043E564E487E482
:102A70000E94D90F8091020184FD0E94B71408952D
:102A80008AE991E00E94BF0F0E94F0140E94021593
:102A90000E94520F45E463E487E40E94D90F0E942C
:102AA000B714089580910101893161F484EF91E0B8
:102AB0000E94BF0F0E94520F43E461E487E40E942A
:102AC000D90F0BC08EEE91E00E94BF0F0E94520FF3
:102AD00041E362E387E40E94D90F809172019091F3
:102AE0007301892B81F00E94D40F8FE791E00E943F
:102AF000CF0F609172017091730180E090E026E544
:102B00004DEF0E9465250895AF92BF92CF92DF925C
:102B1000EF92FF920F931F93CF93DF9380E48AB9D4
:102B20008BB980E185BF83E880937A0094B784B73E
:102B3000877F84BF0FB6F894A89580916000886164
:102B400080936000109260000FBE93FF12C00E943D
:102B50004A0F84E691E00E94BF0F0E94520F81E06D
:102B600092E00E94BF0F80ED97E00E9456171BB8BD
:102B700083C10E94560F61E08CEE90E00E948D0FA1
:102B800062E084EE90E00E948D0F63E08CED90E0B7
:102B90000E948D0F66E084ED90E00E948D0F67E04B
:102BA0008CEC90E00E948D0F0E944A0FEEE8F1E05D
:102BB00086E0818310824F9909C08CE291E00E94E7
:102BC00056174F9903C081E080938E018DEB91E001
:102BD0000E94BF0F0E94520F84EF90E00E94BF0F2F
:102BE00088EE93E00E94561710927C0110926E01BD
:102BF000EEE8F1E089E1828381E08383848389E8E0
:102C000093E1908787830E9472019FE088E10FB66D
:102C1000F894A895809360000FBE90936000C0E088
:102C2000D1E00F2EFFE6EF2EF1E0FF2EF02D0EE8A3
:102C300011E00F2EF8ECAF2EF02D0F2EF9E1BF2E84
:102C4000F02D19821A8218821C821B82F7011482CD
:102C5000138210861782118612861386148617B87F
:102C60000E944A0F8EE00E948A00F80196838583B5
:102C7000A2828EE00E948A00F801B2822089820F2F
:102C8000911D27FD9A959683858385E00E948A0091
:102C9000880F991F880F991F6C01FEEDCF1AFEEF68
:102CA000DF0A88EB91E00E94CF0F9601ADECBCECFF
:102CB0000E948728969587959695879596958795EE
:102CC000BC0180E090E026E54EEF0E9465250E9461
:102CD000BB0FC11429E1D20648F484E792E00E94B8
:102CE000BF0F80ED97E00E945617B4C088EEC8165B
:102CF0008CE1D80628F488E792E00E94BF0F04C058
:102D000085EB91E00E94BF0F0E94520F8DE792E089
:102D10000E94BF0F0E9464188981813009F442C06B
:102D20000E945218833019F40E9468276EC042E056
:102D300061E080E00E94B91942E060E081E00E9419
:102D4000B91941E062E080E00E94B91941E060E019
:102D500082E00E94B91940E062E081E00E94B91966
:102D600040E061E082E00E94B9198981882311F076
:102D70008A30C1F40E94AA0F8DE792E00E94CF0F23
:102D800083E40E94460F40E060E082E00E94BE09BA
:102D900041E061E082E00E94BE0942E060E081E043
:102DA0000E94BE090E944A0FE9818E2F90E0FC012B
:102DB0003197E931F105F8F4EC5CFF4F0C94812870
:102DC0000E94541022C00E94CB1118C00E94E1132F
:102DD00015C00E94121512C00E9440150FC00E941B
:102DE00052150CC00E94521509C00E948E1006C0D8
:102DF0000E94631103C00E94311007C010927C0131
:102E000080916E018F5F80936E016CE088EB9BE098
:102E10000E94522681110AC080917C018530D0F435
:102E200080916E018A3008F40CCF14C0813079F49F
:102E300082E390E00E94561760E08CE291E00E94ED
:102E40005226882309F4FDCE0E946827DECF823007
:102E500009F0F7CE0E944A0F89EE91E00E94BF0F61
:102E60000FB6F894A8958091600088618093600007
:102E7000109260000FBE5E9880E090E0DF91CF91ED
:102E80001F910F91FF90EF90DF90CF90BF90AF9088
:102E900008951F920F920FB60F92112478941092FA
:102EA000B1000F900FBE0F901F9018950F931F93B6
:102EB000CF93DF93AC0190918F0160E070E096308A
:102EC00019F5052F162F272F33270F5F1F4F2F4F71
:102ED0003F4F000F111F221F331F000F111F221F12
:102EE000331F000F111F221F331F000F111F221F3E
:102EF000331F041715072607370728F4401B510B0B
:102F0000620B730B01C090E01092B10082E08093DD
:102F1000B0008093700083B7817F892B83BF1FB778
:102F200017707894411551056105710531F13FEF36
:102F3000C2EBD0E0A3EBB0E0E1EBF0E027E0A89536
:102F40004F3F51056105710509F010F4942F01C040
:102F5000932F491B510961097109915018829C9363
:102F6000208383B7816083BF889583B78E7F83BFBB
:102F7000411551056105710511F7111101C0F89452
:102F8000DF91CF911F910F910895CF92DF92EF9231
:102F9000FF920F931F93CF93DF93E62E042FCDE77D
:102FA000D1E0888369834A83C82ED12CC6018A5F09
:102FB0009F4F0E94D2288B83880F8C83C60180503C
:102FC00090400E94D2288987F12CC7018A5F9F4FC9
:102FD0000E94D2288D83880F8E83C7018050904035
:102FE0000E94D2288A8710E0C8018A5F9F4F0E9402
:102FF000D2288F83880F8887C801805090400E9414
:10300000D2288B87DF91CF911F910F91FF90EF9086
:10301000DF90CF9008950F931F93CF93DF93082FE6
:10302000162FC82FD0E0CA5FDF4FCE010E94D228F2
:1030300085B9CE010E94D228C82F812F90E08A5FE7
:103040009F4F0E94D2288C2B84B9802F0E948A0027
:10305000EC01812F0E948A00BC01209195013091E2
:10306000960136952795A9014E5151094C175D07D8
:1030700070F4225E3F4FC217D30758F44817590720
:1030800050F481E06217730738F080E005C080E0FB
:1030900003C080E001C080E014B8DF91CF911F91A0
:1030A0000F910895CF9361E080E00E940B18C82F24
:1030B00062E080E00E940B18C80F62E081E00E948D
:1030C0000B188C0FCF9108955F926F927F928F9221
:1030D0009F92AF92BF92CF92DF92EF92FF920F93A7
:1030E0001F93CF93DF9300D000D000D0CDB7DEB7D1
:1030F00017B818B815B88AE284B984B1856184B963
:1031000080E00E948A009A83898381E00E948A007D
:103110009C838B8382E00E948A009E838D8300E0E3
:1031200012E00F2EF8E2AF2EF02DBB24B394712CD9
:10313000CC24C394D12C662463941F5F133008F011
:10314000172DE12EF12C202F30E0012E02C03595F5
:1031500027950A94E2F720FD65C0812F0E948A001E
:103160004C01F701EE0FFF1F81E090E08C0F9D1FD7
:10317000E80FF91F8081918188169906C0F4F70144
:10318000EE0FFF1F81E090E08C0F9D1FE80FF91FED
:10319000918280828A2D90E08B1991094497A4F442
:1031A0009AEE9A1598F084E1A80EB62C10C09AE019
:1031B0008916910438F488E28A1520F00F2EF0E584
:1031C000AF2EF02DB39403C0B62C01C0B62C93E003
:1031D0008916910440F4C60102C0880F991FEA9431
:1031E000E2F7082B0DC080E2881683E0980640F4D1
:1031F00057B0C701805090400E94D228852987B9D6
:10320000073091F0AB1448F4E0E0F1E081E0818315
:10321000828315839782868207C0A89582E390E017
:103220000E945617B11089CF14B817B826960FB65A
:10323000F894DEBF0FBECDBFDF91CF911F910F91EC
:10324000FF90EF90DF90CF90BF90AF909F908F90C6
:103250007F906F905F900895CF93C82F60FF04C058
:1032600085B18C2B85B905C085B19C2F909589239C
:1032700085B984B18C2B84B963FF03C00E947F00A1
:1032800002C00E947A0084B1C0958C2384B985B1B4
:10329000C823C5B9CF910895DF92EF92FF920F93A3
:1032A0001F93CF93DF936130E9F1623009F443C09B
:1032B000633009F449C080E090E053C0841B950B53
:1032C000B8010E941828D02ED81ACB019927C81708
:1032D000D90710F0262F01C02C2FC22FD0E0CC0F21
:1032E000DD1FCE0FDF1FCE010E94DA287C01CE0148
:1032F00002960E94DA289C01E81AF90ADE9CA001D5
:10330000DF9C500D1124C80196958795840F951F59
:10331000B8010E941828CB01820F931F22C020E021
:10332000D02EDBCFE9E5F0E0C7E0D0E002E310E02B
:1033300048EE53E011C0EBE6F0E0CAE2D0E009E16C
:1033400010E04CE251E008C0E9E0F0E0CEE1D0E06E
:1033500009E110E048EC50E08417950708F0AECF83
:10336000DECFDF91CF911F910F91FF90EF90DF9013
:103370000895EF92FF920F931F93CF93DF93909155
:103380000101913009F48AC0062F182FA8950E94D8
:10339000C51715B8CDE7D1E08D8184B9998597B966
:1033A00098B960E18F810E942C1989810E942301C4
:1033B000EC01813D934008F46BC0CDE7D1E061E1C1
:1033C0008F810E942C1989810E942301EC01CB3E40
:1033D00081E0D80710F00E940923C13DE3E0DE0739
:1033E00008F03FC08091000181113DC00F2EFDE724
:1033F000EF2EF1E0FF2EF02DF701858184B915B88D
:10340000818587B988B90E947B00F7019781858102
:10341000892B84B9802F0E9423018F359D4020F095
:10342000BE0182E00E94CF218091000181111BC06A
:10343000EDE7F1E0828587B918B897818381892B00
:1034400084B985B9812F0E9423018034964058F4B5
:103450000E94EB23811107C0BE0181E00E94CF21B1
:1034600002C00E942F2080910101882311F08A3030
:1034700019F40E947F1B07C0863129F48091020154
:1034800084FD0E94A22117B818B814B815B806C058
:10349000CB3E81E0D80708F4A5CF9DCFDF91CF9137
:1034A0001F910F91FF90EF9008952F923F924F92AE
:1034B0005F926F927F928F929F92AF92BF92CF92C4
:1034C000DF92EF92FF920F931F93CF93DF9300D081
:1034D00000D01F92CDB7DEB78D830E946418809113
:1034E0000101813009F4E1C018B8EDE7F1E082850F
:1034F00087B915B8838184B9412C512C320181E000
:103500008F010F2EFCE7CF2ED12CF02D812C0F2E0A
:10351000F8E7AF2EB12CF02D0F2EFEE82F2EF1E0A4
:103520003F2EF02D6894992491F849825A826B823B
:103530007C8204C029833A834B835C83682F61704B
:10354000E62E80FF03C0F801808102C0F80181816E
:10355000A895806CF60180830E948400EAE7F0E081
:10356000808180648083EAE7F0E0808186FDFBCF84
:103570000F2EF4E6FF2EF02D412C512C612C782CCF
:10358000F801828587B9838185B9EAE7F0E0808117
:10359000806480830E94880015B8F8019185828537
:1035A000892B87B9EAE7F0E0808186FDFBCFF50142
:1035B00080819181480E591E611C711C0E948100FE
:1035C0000E948000FA94F110DBCFF101A581B68151
:1035D000A30192010E949D28052E5AE09695879599
:1035E000779567955A95D1F7502D2AE030E040E065
:1035F00050E00E944028422E532E642E752E892DB5
:10360000E11098CF55C0EEE8F1E087819085A0E009
:10361000B0E0880F991FAA1FBB1FAC01BD01440F6A
:10362000551F661F771F440F551F661F771F840F96
:10363000951FA61FB71F9C01AD0124193509460926
:103640005709A8EEB3E00E949D284B015C01A3013D
:1036500092012C193D094E095F09A0E1B7E20E94D1
:103660009D286B017C01238534852057354E40E031
:1036700050E0C501B4010E944028C701B6010E9474
:103680004028C901FD81F13061F460919B01709186
:103690009C016217730718F4861B970B02C080E029
:1036A00090E020E82093920112C080E090E00FC0EB
:1036B0007301620149805A806B807C80C414D504F8
:1036C000E604F70408F49FCF80E090E0EACF0F9083
:1036D0000F900F900F900F90DF91CF911F910F914E
:1036E000FF90EF90DF90CF90BF90AF909F908F9022
:1036F0007F906F905F904F903F902F9008952F9202
:103700003F924F925F926F927F928F929F92AF9271
:10371000BF92CF92DF92EF92FF920F931F93CF93BE
:10372000DF93CDB7DEB762970FB6F894DEBF0FBE5A
:10373000CDBFA89518B80DE711E0D8011A968C9165
:103740001A9787B913968C91139784B985B91196F6
:103750008C910E9423015C01F80180810E948A0003
:103760006C0115B8D80114969C91149794B98C915A
:103770000E942301459708F094C2F801848185B91D
:1037800080810E9423013C01D80119969C911997D0
:1037900097B998B915B815968C91159784B98C91ED
:1037A0000E9423011C01F80181810E948A002C01E2
:1037B000D80116968C91169784B911968C910E9417
:1037C00023017C01B0E3CB16B1E1DB0628F4E2E68D
:1037D0006E16710408F065C2FCE66F16F3E17F0611
:1037E00008F05FC229EA4216510408F084C036E2AC
:1037F000E316F10408F455C2D30120EF3BE247E0A1
:1038000050E00E949D28C0909501D09096019601AD
:103810002619370940E050E00E94402849015A012A
:10382000D601AE19BF0920EF3BE247E050E00E940D
:103830009D28870120E030E0A90198010E944028DE
:103840008EED681683E07806A8F4880C991CAA1CF3
:10385000BB1C880C991CAA1CBB1CC501B401620FBF
:10386000731F841F951F25E030E040E050E00E9468
:10387000402828C09EEDE91693E0F906B8F4DA0175
:10388000C901880F991FAA1FBB1F880F991FAA1F64
:10389000BB1FBC01CD01680D791D8A1D9B1D25E054
:1038A00030E040E050E00E9440280CC0DA01C9013D
:1038B000880D991DAA1DBB1D9C01AD01569547950C
:1038C00037952795DA01C90184549D4FAF4FBF4FFB
:1038D000880F991FAA1FBB1F4C015D01880C991C02
:1038E000AA1CBB1C880C991CAA1CBB1C880E991E08
:1038F000AA1EBB1E8CC0CA14DB0408F47AC02414B0
:10390000350408F476C040919501509196014C150C
:103910005D0521F46A01A1E0CA1AD1080EE811E0A0
:10392000F801238534852057354ED601AA19BB09E5
:103930000E9487289A012C193D0940E050E00E941E
:10394000402849015A01D80119962D913C911A97A6
:103950002057354ED101A419B5090E94872882014C
:1039600020E030E0A90198010E944028BEEDCB166E
:10397000B3E0DB06B8F4880C991CAA1CBB1C880CAD
:10398000991CAA1CBB1CC501B401620F731F841FC4
:10399000951F25E030E040E050E00E9440284901BA
:1039A0005A0135C0EEED4E16E3E05E06C8F4DA01CA
:1039B000C901880F991FAA1FBB1F880F991FAA1F33
:1039C000BB1FBC01CD01680D791D8A1D9B1D25E023
:1039D00030E040E050E00E94402849015A0117C001
:1039E000820E931EA41EB51EB694A7949794879436
:1039F0000EC031E020E090E080E0FFE84F16F2E1F9
:103A00005F0608F430E0832E922EA92EB82E811482
:103A10009104A104B10409F444C124E6821691047E
:103A2000A104B10448F581E00E94551AA0E0B0E07D
:103A300095018401000F111F221F331F000F111F5A
:103A4000221F331FB901A801440F551F661F771F9E
:103A5000440F551F661F771F400F511F621F731FB2
:103A600084179507A607B70750F44C015D010F2E88
:103A7000FEEFFF2EF02D05C0FF24FA9402C0FF24B4
:103A8000FA94C501B40124E130E040E050E00E9426
:103A90004028D501C401880F991FAA1FBB1F880F9A
:103AA000991FAA1FBB1F2C013D01480C591C6A1C01
:103AB0007B1C80E00F2EF0E02F2EF1E03F2EF02D4A
:103AC0000F2EFDE7CF2EF1E0DF2EF02D4D865E8626
:103AD0006F86788A2D833E834F835887A501940192
:103AE000569547953795279529873A874B875C8761
:103AF000B8C0482F50E05A8B498B57E0859FF001A2
:103B00001124E85FFE4F2081D6019C912913A4C0A7
:103B1000E989FA89EE0FFF1FEE0FFF1FEE0FFF1F5F
:103B200029893A89E21BF30BE85FFE4F2181119648
:103B30009C91291391C0E12C02E010E020E030E0DC
:103B40004F2DC501B4010E94A6248F3F49F48985F9
:103B50009A85AB85BC8589839A83AB83BC8308C077
:103B60009D819983AE81AA83BF81BB83E885EC8365
:103B7000EE24EA9401E010E020E030E04F2DC50192
:103B8000B4010E94A6248F3F99F095018401898198
:103B90009A81AB81BC81081B190B2A0B3B0B880D4A
:103BA000991DAA1DBB1D89839A83AB83BC831BC04F
:103BB000411451046104710451F495E099831A820F
:103BC0001B821C8200E010E020E030E00CC0AD85DC
:103BD000A983BE85BA83EF85EB83F889FC8300E077
:103BE00010E020E030E0E989FA89EE0FFF1FEE0FC8
:103BF000FF1FEE0FFF1F49895A89E41BF50BE85F91
:103C0000FE4F6381748185819681EF2C42810E94F1
:103C1000A62488231CF1E989FA89EE0FFF1FEE0F15
:103C2000FF1FEE0FFF1F89899A89E81BF90BE85FD8
:103C3000FE4F638174818581968109811A812B8170
:103C40003C8142810E94A624181654F0EAE0D1017A
:103C50001196EC9384E605C08F5F03C088EC01C029
:103C600088ECD10113969C91891708F442CF8436D1
:103C7000C1F09330B0F4B7E09B9FF0011124E85FEE
:103C8000FE4FADE7B1E011968C91119780838C9136
:103C9000818383829482A582B682F2829F5F909311
:103CA000030162960FB6F894DEBF0FBECDBFDF9161
:103CB000CF911F910F91FF90EF90DF90CF90BF9029
:103CC000AF909F908F907F906F905F904F903F90BC
:103CD0002F900895CF93DF93C0E0D1E01B8240E0A6
:103CE0000E94C5170E947F1B81E09B81913009F0E3
:103CF00080E0DF91CF910895CF92DF92EF92FF9213
:103D00000F931F93CF93DF938130E1F4CDE7D1E0A0
:103D1000898587B988B99F818D81892B84B995B9A7
:103D200089810E9423018C01E0909501F090960119
:103D30008A810E948A00B701681B790B6A3071057D
:103D4000E0F08CC018B8CDE7D1E08A8587B98B81C7
:103D500085B99F81892B84B90091950110919601B5
:103D600088810E9423017C018A810E948A00BC0113
:103D70000A9728F10E191F0971C0CDE7D1E0988587
:103D80008D81892B84B995B989810E9423018C0189
:103D90000F2EFEE8EF2EF1E0FF2EF02DD701179643
:103DA000CD90DC9018978A810E948A00F601E81B6A
:103DB000F90BD7011996CD91DC911A971DC0CDE76B
:103DC000D1E098858B81892B84B90F2EFEE8EF2EE8
:103DD000F1E0FF2EF02DF7010781108588810E9408
:103DE0002301081B190B8A810E948A00FC01D7015C
:103DF0001B96CD91DC911C97309711F4E1E0F0E037
:103E0000D80120EF3BE247E050E00E949D289F014F
:103E100040E050E00E944028BA01A901440F551F1C
:103E2000661F771FDB01CA01880F991FAA1FBB1FDE
:103E3000880F991FAA1FBB1F8A019B01080F191F1A
:103E40002A1F3B1FC901B8019E012057354E40E093
:103E500050E00E944028CA01B90107C0C801861B72
:103E6000970B0E94182880E090E0DF91CF911F917E
:103E70000F91FF90EF90DF90CF9008953F924F9277
:103E80005F926F927F928F929F92AF92BF92CF92EA
:103E9000DF92EF92FF920F931F93CF93DF93282F20
:103EA0002170522E80FF08C0EDE7F1E0438081854C
:103EB0006894332434F808C0EDE7F1E0458082854A
:103EC0000F2EF1E13F2EF02D8770782E80917F012B
:103ED000806480937C000F2EFAE06F2EF02D812CF1
:103EE000912C54010DE711E0CAE7D0E00F2EF8E75E
:103EF000EF2EF12CF02D0F2ECC24CA94F3E0DF2E00
:103F0000F02DA895632DF80187810E942C19F801E6
:103F10008085842984B9552021F086B18721E9F76D
:103F200003C086B18721E9F344B88881806488831F
:103F3000888186FDFDCF552041F0F7018081918178
:103F4000880E991EA11CB11C0AC0F70180819181C5
:103F50009601281B390B821A930AA108B1086A94AA
:103F60006110CFCFC501B4012AE030E040E050E05D
:103F70000E946228A0919501B09196010E949D280F
:103F80008B019C01992324F401501C4F2F4F3F4F6C
:103F9000D901C801072E7AE0B595A7959795879521
:103FA0007A95D1F7702D9093750180937401DF910C
:103FB000CF911F910F91FF90EF90DF90CF90BF9026
:103FC000AF909F908F907F906F905F904F903F90B9
:103FD0000895CF92DF92EF92FF9215B8EDE7F1E0EE
:103FE000858184B9818587B988B981810E9423013F
:103FF000E0919701F0919801EB56F54EDC0120EA33
:1040000036E841E050E00E949D286B017C019F0151
:10401000ADECBCEC0E948728969587959695879580
:10402000969587959C0140E050E0C701B6010E943B
:104030004028CA01B901695C7F4F8F4F9F4F17B865
:1040400018B814B815B824E630E040E050E00E94FB
:104050004028C901FF90EF90DF90CF9008952F92F4
:104060003F924F925F926F927F928F929F92AF9208
:10407000BF92CF92DF92EF92FF920F931F93CF9355
:10408000DF9300D000D0CDB7DEB7A8950E946418AA
:1040900080910101813009F43EC118B80F2EFDE76F
:1040A000EF2EF1E0FF2EF02DF701828587B9808198
:1040B0000E948A006C01F701848184B985B961E1AD
:1040C00087810E942C19F70180810E9423014C01F5
:1040D000F701838184B985B961E187810E942C1938
:1040E000F70180810E9423018C01F70181810E94E8
:1040F0008A007C010E94641890910101913009F4BA
:104100000AC10E191F0918B80F2EFDE72F2EF1E076
:104110003F2EF02DF101828587B980810E948A00AF
:10412000482E592E17B8F101818588B987B915B87D
:10413000868184B960E187810E942C19F101808118
:104140000E9423015C01F10181810E948A003C01EF
:10415000F101858184B960E187810E942C19F10108
:1041600080810E9423017C01F10181810E948A00EB
:10417000E81AF90A17B8E016F10620F4C8018E19FA
:104180009F0909C0450186189708C701801B910B3C
:10419000C42CD52C8701893E934008F0BCC02BE08D
:1041A0008216910408F4B7C0C814D90420F4C401DD
:1041B0008C199D0903C0C6018819990933E0C316FB
:1041C000D10420F08436910508F4A5C088E2881651
:1041D000910408F06EC00F2EFEE8EF2EF1E0FF2EE6
:1041E000F02DF7012385348581859285280F391FAD
:1041F0002057354E40E050E060E677EB87E490E0F2
:104200000E94622829013A012150310941095109CE
:10421000A8EEB3E00E949D28F7012781308540E099
:1042200050E00E944028CA01B9016401E12CF12C40
:10423000A70196010E94082869837A838B839C8357
:10424000A8EEB3E0A30192010E949D289B01AC015E
:10425000C701B6010E94082829813A814B815C81FF
:1042600028513C4F4F4F5F4F0E94402869017A010F
:10427000AFE3B8EF0E94872896958795929582952F
:104280008F7089279F708927281B390B0217130706
:1042900080F09601ADECBCEC0E948728969587953E
:1042A0009695879596958795C80ED91EC016D10606
:1042B00090F5C801875991098938914160F580913D
:1042C0000101882311F08A3019F484E180930101FF
:1042D00060E071E0FB012481822F90E07C01EE0C14
:1042E000FF1CD701A80FB91FAA0FBB1FA65BBE4FAB
:1042F0004DE751E0FA0130813C93318111963C93B6
:10430000119713961C930E931297FD019582848248
:104310002F5FFB0124830F900F900F900F90DF9180
:10432000CF911F910F91FF90EF90DF90CF90BF90B2
:10433000AF909F908F907F906F905F904F903F9045
:104340002F9008958091020180FF05C0EFE6F1E013
:104350004281318104C0EFE6F1E041813281209158
:1043600004012223D9F0EBE4F1E080E050E07AE0B0
:1043700061E0DF0111979C91931305C09081941324
:1043800002C0872F562F8F5F3696821790F35130D9
:1043900029F4E0E0F1E011821282108208958F92F8
:1043A0009F92AF92BF92CF92DF92EF92FF920F93C4
:1043B0001F93CF93DF93182F5B01813031F5CDE749
:1043C000D1E098858B81892B84B985B90E947600CC
:1043D0000F2EFEE8CF2EF1E0DF2EF02DF601E78064
:1043E000F08488810E948A00E81AF90AF601C780E1
:1043F000D0848A810E948A00E601C81BD90B88E418
:104400009DE02DEF39E001E013C0CDE7D1E09885C4
:104410008D81892B84B989810E9423017C018A8145
:104420000E948A00EC0180ED97E021ED33E002E08C
:104430002C173D0708F09AC080910101853161F485
:10444000E0E0F1E081E080838281912F982349F4BC
:1044500084608093020105C0E0E0F1E085E18183A2
:1044600012830E94E91F6C01AE14BF0410F4EA1815
:10447000FB08D70120EF3BE247E050E00E949D2877
:104480009E0140E050E00E944028DA01C901880FF7
:10449000991FAA1FBB1F4C015D01880C991CAA1C07
:1044A000BB1C880C991CAA1CBB1CBC01CD01680D4F
:1044B000791D8A1D9B1D113069F42091990130915D
:1044C0009A012057354E40E050E00E9440284901B3
:1044D0005A010CC020919701309198012057354E18
:1044E00040E050E00E94402849015A01812F0E947B
:1044F0007C1E3091020132FD7FC0462F572F682F5E
:10450000792F481559056A057B0510F4B501A401FA
:104510008091780190917901A0917A01B0917B010D
:1045200084179507A607B70708F066C0EFE6F1E025
:104530004187528763877487D086C78280917F01C5
:104540008083113041F4ADE7B1E08C918183119605
:104550008C91828351C0EFE6F1E0ADE7B1E01196B6
:104560008C91119781838C91828346C0F1E6AF16BE
:10457000B10408F041C08E159F05F0F5CDE7D1E0FC
:1045800088810E948A007C0189810E948A00E7015B
:10459000C81BD90BCA3FD10540F4E0E0F1E086E149
:1045A0008183802F8461828307C0E0E0F1E087E1AE
:1045B0008183802F8460828381E080930001802F3B
:1045C0000E943E1F80917F0180936F01013051F462
:1045D000EFE6F1E0ADE7B1E08C91818311968C912B
:1045E00082830AC0EFE6F1E0ADE7B1E011968C916D
:1045F000119781838C918283DF91CF911F910F91CD
:10460000FF90EF90DF90CF90BF90AF909F908F90F2
:104610000895CF92DF92EF92FF920F931F93CF9363
:10462000DF93809100018111CDC0CDE7D1E0988565
:104630008D81892B84B989810E942C018C01888508
:1046400085B989810E942C01EC01C01BD10B085156
:104650001E4F0817190708F0ABC00F2EFDE7EF2E0D
:10466000F1E0FF2EF02DF701828588B987B990859A
:104670008381892B84B915B880810E942C018C011B
:10468000F701808585B980810E942C01801B910BE8
:104690008C0118B8F701828587B990858381892BB1
:1046A00084B985B982810E942C0188349F4020F012
:1046B00089E18093020141C089E2809302013DC0FB
:1046C00018B8CDE7D1E08A8587B998858B81892B89
:1046D00084B985B988810E942C016C018B8185B9D0
:1046E00088810E942C017C0188519E4F8C159D056C
:1046F00008F068C0898587B998858D81892B84B930
:1047000085B989810E942C018C018D8185B98981AF
:104710000E942C01081B190B898588B987B98A81E9
:104720000E942C01813D934020F48AE18093020194
:1047300045C08AE28093020141C0E0E0F1E086E1F9
:10474000818381E0808380917F0180936F010C17CA
:104750001D0750F4EFE6F1E0ADE7B1E08C91818305
:1047600011968C9182830AC0EFE6F1E0ADE7B1E0EB
:1047700011968C91119781838C9182839E0136953D
:104780002795ABE7B4E10E948728969587959E010F
:10479000281B390B02171307A8F0C80FD91FC01721
:1047A000D10780F0E0E0F1E08281806482830AC07A
:1047B00080910001882309F483CF04C0E601CE195B
:1047C000DF09BBCFDF91CF911F910F91FF90EF9049
:1047D000DF90CF900895CF92DF92EF92FF920F93E8
:1047E0001F93CF93DF93CDE7D1E08A810E948A00A7
:1047F0007C0189810E948A006C0160E18F810E94A6
:104800002C1988810E9423018C0115B80E947B001D
:104810009B8195B988810E9423010034164008F0DD
:1048200049C08133914108F447C014B815B88A854E
:1048300088B90E947B008B8184B988810E94230102
:10484000853F9105D8F560E18F810E942C19888100
:104850000E942301EC018D3D924038F4E0E0F1E04C
:1048600089E1818381E080832FC00DE711E0F801A9
:10487000838185B90E947B0015B8F80180810E9470
:104880002301853F9105E0F480910101883119F4FD
:1048900081E08093000188E180930101809176019D
:1048A000909177018C179D0768F4D0937701C0939E
:1048B00076010AC080E01AC080E018C080E016C00F
:1048C00080E014C081E012C0EFE6F1E0ADE7B1E0B6
:1048D00012968C91129780838C91818311968C9182
:1048E0008283EC18FD08F482E38281E0DF91CF91AE
:1048F0001F910F91FF90EF90DF90CF900895CF928E
:10490000DF92EF92FF92CF936A3071058105910596
:10491000A8F0C1E00F2EFAE0CF2ED12CE12CF12C23
:10492000F02DA70196010E944028CA01B901CF5F6E
:104930002A30310541055105A0F701C0C1E08C2F97
:10494000CF91FF90EF90DF90CF9008954F925F92BC
:104950006F927F928F929F92AF92BF92EF920F933E
:104960001F93CF93DF934B015C01C42F28013901C2
:104970000E947F24D82FC301B2010E947F2481149A
:104980009104A104B10409F43FC04114510461042D
:10499000710409F444C0CD0FE80EEC160CF445C0C8
:1049A000CE1145C02D2F982F8D17B4F4440C551CF3
:1049B000661C771CB301A201440F551F661F771FA9
:1049C000440F551F661F771F440E551E661E771E27
:1049D0009F5F2913EBCF9D2F29170CF5880C991C8D
:1049E000AA1CBB1CB501A401440F551F661F771FED
:1049F000440F551F661F771F840E951EA61EB71EF7
:104A00002F5F2913EBCF0BC081E084149504A6041B
:104A1000B70408F080E081950BC081E009C048141C
:104A200059046A047B0480F7F8CF81E001C08FEF5E
:104A3000DF91CF911F910F91EF90BF90AF909F901A
:104A40008F907F906F905F904F900895CF92DF92FC
:104A5000EF92FF920F931F93CF93DF93C42FD22F28
:104A6000421751F10F2EFAE0CF2ED12CE12CF12C70
:104A7000F02DCD1744F4A70196010E944028CA01E9
:104A8000B901CF5F17C0DC01CB01880F991FAA1FA6
:104A9000BB1F8C019D01000F111F221F331F000F30
:104AA000111F221F331FBC01CD01600F711F821F18
:104AB000931FC150DC13DDCFDF91CF911F910F9178
:104AC000FF90EF90DF90CF9008957F928F929F920A
:104AD000AF92BF92CF92DF92EF92FF920F931F930C
:104AE000CF93DF936B017C01D42F722E80E1C81627
:104AF00087E2D806E104F104C8F00F2EFAE08F2E09
:104B0000912CA12CB12CF02DC701B6016B5F7F4F0A
:104B10008F4F9F4FA50194010E94402869017A019F
:104B2000DF5F203137424105510570F7D43F0CF467
:104B300066C0D45F86E5D802812D1124D7FD839508
:104B4000982F990F980FBD2EB91A21F08F5F93E01F
:104B50009B19B92E873038F490E08B539F4F0E94F9
:104B6000D228182F01C010E04AE06DE171E0C601C3
:104B70000E94A828EDE1F1E001900020E9F73197CB
:104B8000ED51F1400E2FDE2FDB191D1674F080E37E
:104B90000E94460F8EE20E94460FDD2334F402C0CD
:104BA000B12C10E080E30E94460FB11001C0DFEF8E
:104BB000EFEFED0F011103C017C010E0EEEFCDE1F4
:104BC000D1E0E12CF12CCE2EEE0FDD0889910E9470
:104BD000460FEC14FD0419F48EE20E94460F8FEF8D
:104BE000E81AF80AE01690F3112319F0812F0E94B9
:104BF000460F772029F1872D0E94460F21C04AE0F9
:104C00006DE171E0C6010E94A828EDE1F1E001909C
:104C10000020E9F73197ED51F1400E2FDE2F1E16DF
:104C200064F080E30E94460F8EE20E94460F00234C
:104C30000CF4B6CF10E0DFEFBBCFE111BECFD9CF80
:104C4000DF91CF911F910F91FF90EF90DF90CF9068
:104C5000BF90AF909F908F907F900895CF92DF92FA
:104C6000EF92FF92CF93DF936B017C01C42FD22F81
:104C700099235CF48DE20E94460FF094E094D09466
:104C8000C094C11CD11CE11CF11C2D2F4C2FC7015D
:104C9000B6010E946525DF91CF91FF90EF90DF90E4
:104CA000CF900895CF92DF92EF92FF920F931F93D0
:104CB000CF93DF938C01F62E8AE0861740F4809123
:104CC0008E01813069F486EFF80E00E010E0FF20DD
:104CD00041F08FEC0E94420F8EE00E94420F01C013
:104CE000F12CE12CD1E0C0E0CC24C3946894DD2405
:104CF000D1F80115110539F00630110518F00550ED
:104D0000110901C0DC2F4F9918C08EE190E00E947C
:104D10005617C0E010E009C0CF5FCB3128F48AE01D
:104D200090E00E94561701C0D12FDD2311F04F9B58
:104D3000F3CFCB3120F5C1E01AC085E090E00E94AE
:104D4000561782E0F81210C0E39484E6E8120CC013
:104D5000D13029F48CE00E94420FDD2D0EC08EE090
:104D60000E94420FDC2D09C0D111C3CFC0E0FF204B
:104D700041F08CE00E94420F04C0EC2EBACFC2E09A
:104D8000F6CF8C2FDF91CF911F910F91FF90EF9075
:104D9000DF90CF9008956BE088EB9BE00E94522655
:104DA00008950F931F93CF93DF93D82F882321F07B
:104DB00000E212E0C3E003C007E212E0C0E00E949C
:104DC00052188C1317C014C00E9452188C1306C0BE
:104DD00088EC90E00E94561781E019C060E084E6FC
:104DE00090E00E945226DD2379F381110FC0ECCFB1
:104DF00081E00DC00E944A0FC8010E94BF0F0E94AF
:104E0000520F81E192E00E94BF0FDECF80E0DF9180
:104E1000CF911F910F910895DF92EF92FF920F9320
:104E20001F93CF93DF93D62E7A018901DFEFD80F3E
:104E30008AE30E94460FC0E00E94AA0FEC2FF0E028
:104E4000EE0FFF1FC7018E0F9F1F21E0D21206C079
:104E5000FC01808191810E94BF0F09C00E94DA2865
:104E6000BC0180E090E020E040E00E946525011553
:104E7000110519F0C8010E94BF0F84E690E00E945E
:104E800056178FEC0E94420FCD1710F08CE301C033
:104E90008EE30E94460F60E080E090E00E94522680
:104EA000813029F4CF5FDC1738F6C0E0C5CF8230FF
:104EB00019F60E944A0F84EF91E00E9456178C2F3A
:104EC000DF91CF911F910F91FF90EF90DF900895A8
:104ED0001F93CF93DF93CDB7DEB7A1970FB6F894AA
:104EE000DEBF0FBECDBF84E191E09A83898385E068
:104EF0008F8B8CE191E09C838B8388E0888F8AED97
:104F000091E09E838D838AE0898F8AE492E098877E
:104F10008F8381E08A8F8EE292E09A87898784E08E
:104F20008B8F8FE392E09C878B8782E08C8F8AE364
:104F300092E09E878D8783E08D8F8CEF91E0988B38
:104F40008F871E8E0E944A0F83E592E00E94BF0F5A
:104F500020E030E0AE014F5F5F4F61E088E00E94EB
:104F60000C27FE01E80FF11DE7898E2F90E0FC0170
:104F70003197EA30F10580F5E35BFF4F0C9481280F
:104F80000E94BF04182F29C00E943702182F25C085
:104F90000E94430130C00E94C4012DC00E944A0FEC
:104FA00084E191E00E94BF0F2CE031E049E450E041
:104FB00062E088E00E940C2790E0880F991F875BD1
:104FC0009F4F0E94DA280E94DE0A15C00E94CF0B74
:104FD00012C00E94B30C0FC011E00E944A0F1111C1
:104FE00005C081E092E00E94BF0F08C08AE592E010
:104FF0000E94BF0F03C00E944A0FF8CFA1960FB6C0
:10500000F894DEBF0FBECDBFDF91CF911F91089501
:10501000DB018F939F930E949D28BF91AF91A29F28
:10502000800D911DA39F900DB29F900D11240895A6
:10503000AA1BBB1B51E107C0AA1FBB1FA617B707BE
:1050400010F0A61BB70B881F991F5A95A9F78095DA
:105050009095BC01CD01089597FB072E16F400949E
:1050600007D077FD09D00E94182807FC05D03EF430
:10507000909581959F4F0895709561957F4F089504
:10508000A1E21A2EAA1BBB1BFD010DC0AA1FBB1F4C
:10509000EE1FFF1FA217B307E407F50720F0A21BBE
:1050A000B30BE40BF50B661F771F881F991F1A942B
:1050B00069F760957095809590959B01AC01BD0155
:1050C000CF010895052E97FB1EF400940E947928C5
:1050D00057FD07D00E94402807FC03D04EF40C94E3
:1050E000792850954095309521953F4F4F4F5F4F10
:1050F000089590958095709561957F4F8F4F9F4F44
:105100000895EE0FFF1F0590F491E02D0994A29FE2
:10511000B001B39FC001A39F700D811D1124911D8B
:10512000B29F700D811D1124911D08950E94872842
:10513000B7FF0895821B930B08950E948728A59FAF
:10514000900DB49F900DA49F800D911D1124089582
:10515000BB27FB015527AA27880F991FAA1FA41751
:1051600010F0A41B83955051B9F7A05DAA3308F045
:10517000A95DA193009779F7B111B1931192CB0179
:105180000C94C228DC01FC01672F71917723E1F7B1
:10519000329704C07C916D9370836291AE17BF0704
:1051A000C8F30895F999FECF92BD81BDF89A992769
:1051B00080B50895A8E1B0E042E050E00C94F528F5
:1051C000262FF999FECF1FBA92BD81BD20BD0FB623
:1051D000F894FA9AF99A0FBE019608950E94E02871
:1051E000272F0C94E128DC01CB01FC01F999FECFBB
:1051F00006C0F2BDE1BDF89A319600B40D9241505F
:0A5200005040B8F70895F894FFCF6E
:00000001FF
